{
	"contracts/third.sol": {
		"ArrayofNumAndText": {
			"abi": [
				{
					"inputs": [
						{
							"internalType": "uint256",
							"name": "",
							"type": "uint256"
						}
					],
					"name": "ListofPerson",
					"outputs": [
						{
							"internalType": "uint256",
							"name": "Number",
							"type": "uint256"
						},
						{
							"internalType": "string",
							"name": "Name",
							"type": "string"
						}
					],
					"stateMutability": "view",
					"type": "function"
				},
				{
					"inputs": [
						{
							"internalType": "uint256",
							"name": "_number",
							"type": "uint256"
						},
						{
							"internalType": "string",
							"name": "_name",
							"type": "string"
						}
					],
					"name": "addPerson",
					"outputs": [],
					"stateMutability": "nonpayable",
					"type": "function"
				},
				{
					"inputs": [],
					"name": "retrieve",
					"outputs": [
						{
							"internalType": "uint256",
							"name": "",
							"type": "uint256"
						},
						{
							"internalType": "string",
							"name": "",
							"type": "string"
						}
					],
					"stateMutability": "view",
					"type": "function"
				},
				{
					"inputs": [
						{
							"internalType": "uint256",
							"name": "_number",
							"type": "uint256"
						},
						{
							"internalType": "string",
							"name": "_name",
							"type": "string"
						}
					],
					"name": "store",
					"outputs": [],
					"stateMutability": "nonpayable",
					"type": "function"
				}
			],
			"devdoc": {
				"kind": "dev",
				"methods": {},
				"version": 1
			},
			"evm": {
				"assembly": "    /* \"contracts/third.sol\":131:703  contract ArrayofNumAndText{... */\n  mstore(0x40, 0x80)\n  callvalue\n  dup1\n  iszero\n  tag_1\n  jumpi\n  0x00\n  dup1\n  revert\ntag_1:\n  pop\n  dataSize(sub_0)\n  dup1\n  dataOffset(sub_0)\n  0x00\n  codecopy\n  0x00\n  return\nstop\n\nsub_0: assembly {\n        /* \"contracts/third.sol\":131:703  contract ArrayofNumAndText{... */\n      mstore(0x40, 0x80)\n      callvalue\n      dup1\n      iszero\n      tag_1\n      jumpi\n      0x00\n      dup1\n      revert\n    tag_1:\n      pop\n      jumpi(tag_2, lt(calldatasize, 0x04))\n      shr(0xe0, calldataload(0x00))\n      dup1\n      0x2e64cec1\n      eq\n      tag_3\n      jumpi\n      dup1\n      0xbc832d4e\n      eq\n      tag_4\n      jumpi\n      dup1\n      0xce895030\n      eq\n      tag_5\n      jumpi\n      dup1\n      0xe1ff178a\n      eq\n      tag_6\n      jumpi\n    tag_2:\n      0x00\n      dup1\n      revert\n        /* \"contracts/third.sol\":461:567  function retrieve() public view returns(uint256, string memory){... */\n    tag_3:\n      tag_7\n      tag_8\n      jump\t// in\n    tag_7:\n      mload(0x40)\n      tag_9\n      swap3\n      swap2\n      swap1\n      tag_10\n      jump\t// in\n    tag_9:\n      mload(0x40)\n      dup1\n      swap2\n      sub\n      swap1\n      return\n        /* \"contracts/third.sol\":573:695  function addPerson(uint256 _number, string memory _name)public {... */\n    tag_4:\n      tag_11\n      0x04\n      dup1\n      calldatasize\n      sub\n      dup2\n      add\n      swap1\n      tag_12\n      swap2\n      swap1\n      tag_13\n      jump\t// in\n    tag_12:\n      tag_14\n      jump\t// in\n    tag_11:\n      stop\n        /* \"contracts/third.sol\":297:325  Person[] public ListofPerson */\n    tag_5:\n      tag_15\n      0x04\n      dup1\n      calldatasize\n      sub\n      dup2\n      add\n      swap1\n      tag_16\n      swap2\n      swap1\n      tag_17\n      jump\t// in\n    tag_16:\n      tag_18\n      jump\t// in\n    tag_15:\n      mload(0x40)\n      tag_19\n      swap3\n      swap2\n      swap1\n      tag_10\n      jump\t// in\n    tag_19:\n      mload(0x40)\n      dup1\n      swap2\n      sub\n      swap1\n      return\n        /* \"contracts/third.sol\":334:453  function store(uint256 _number, string memory _name) public {... */\n    tag_6:\n      tag_20\n      0x04\n      dup1\n      calldatasize\n      sub\n      dup2\n      add\n      swap1\n      tag_21\n      swap2\n      swap1\n      tag_13\n      jump\t// in\n    tag_21:\n      tag_22\n      jump\t// in\n    tag_20:\n      stop\n        /* \"contracts/third.sol\":461:567  function retrieve() public view returns(uint256, string memory){... */\n    tag_8:\n        /* \"contracts/third.sol\":501:508  uint256 */\n      0x00\n        /* \"contracts/third.sol\":510:523  string memory */\n      0x60\n        /* \"contracts/third.sol\":543:551  Mynumber */\n      sload(0x00)\n        /* \"contracts/third.sol\":552:558  Myname */\n      0x01\n        /* \"contracts/third.sol\":535:559  return (Mynumber,Myname) */\n      dup1\n      dup1\n      sload\n      tag_24\n      swap1\n      tag_25\n      jump\t// in\n    tag_24:\n      dup1\n      0x1f\n      add\n      0x20\n      dup1\n      swap2\n      div\n      mul\n      0x20\n      add\n      mload(0x40)\n      swap1\n      dup2\n      add\n      0x40\n      mstore\n      dup1\n      swap3\n      swap2\n      swap1\n      dup2\n      dup2\n      mstore\n      0x20\n      add\n      dup3\n      dup1\n      sload\n      tag_26\n      swap1\n      tag_25\n      jump\t// in\n    tag_26:\n      dup1\n      iszero\n      tag_27\n      jumpi\n      dup1\n      0x1f\n      lt\n      tag_28\n      jumpi\n      0x0100\n      dup1\n      dup4\n      sload\n      div\n      mul\n      dup4\n      mstore\n      swap2\n      0x20\n      add\n      swap2\n      jump(tag_27)\n    tag_28:\n      dup3\n      add\n      swap2\n      swap1\n      0x00\n      mstore\n      keccak256(0x00, 0x20)\n      swap1\n    tag_29:\n      dup2\n      sload\n      dup2\n      mstore\n      swap1\n      0x01\n      add\n      swap1\n      0x20\n      add\n      dup1\n      dup4\n      gt\n      tag_29\n      jumpi\n      dup3\n      swap1\n      sub\n      0x1f\n      and\n      dup3\n      add\n      swap2\n    tag_27:\n      pop\n      pop\n      pop\n      pop\n      pop\n      swap1\n      pop\n      swap2\n      pop\n      swap2\n      pop\n        /* \"contracts/third.sol\":461:567  function retrieve() public view returns(uint256, string memory){... */\n      swap1\n      swap2\n      jump\t// out\n        /* \"contracts/third.sol\":573:695  function addPerson(uint256 _number, string memory _name)public {... */\n    tag_14:\n        /* \"contracts/third.sol\":647:659  ListofPerson */\n      0x02\n        /* \"contracts/third.sol\":665:686  Person(_number,_name) */\n      mload(0x40)\n      dup1\n      0x40\n      add\n      0x40\n      mstore\n      dup1\n        /* \"contracts/third.sol\":672:679  _number */\n      dup5\n        /* \"contracts/third.sol\":665:686  Person(_number,_name) */\n      dup2\n      mstore\n      0x20\n      add\n        /* \"contracts/third.sol\":680:685  _name */\n      dup4\n        /* \"contracts/third.sol\":665:686  Person(_number,_name) */\n      dup2\n      mstore\n      pop\n        /* \"contracts/third.sol\":647:687  ListofPerson.push(Person(_number,_name)) */\n      swap1\n      dup1\n      0x01\n      dup2\n      sload\n      add\n      dup1\n      dup3\n      sstore\n      dup1\n      swap2\n      pop\n      pop\n      0x01\n      swap1\n      sub\n      swap1\n      0x00\n      mstore\n      keccak256(0x00, 0x20)\n      swap1\n      0x02\n      mul\n      add\n      0x00\n      swap1\n      swap2\n      swap1\n      swap2\n      swap1\n      swap2\n      pop\n      0x00\n      dup3\n      add\n      mload\n      dup2\n      0x00\n      add\n      sstore\n      0x20\n      dup3\n      add\n      mload\n      dup2\n      0x01\n      add\n      swap1\n      dup2\n      tag_32\n      swap2\n      swap1\n      tag_33\n      jump\t// in\n    tag_32:\n      pop\n      pop\n      pop\n        /* \"contracts/third.sol\":573:695  function addPerson(uint256 _number, string memory _name)public {... */\n      pop\n      pop\n      jump\t// out\n        /* \"contracts/third.sol\":297:325  Person[] public ListofPerson */\n    tag_18:\n      0x02\n      dup2\n      dup2\n      sload\n      dup2\n      lt\n      tag_34\n      jumpi\n      0x00\n      dup1\n      revert\n    tag_34:\n      swap1\n      0x00\n      mstore\n      keccak256(0x00, 0x20)\n      swap1\n      0x02\n      mul\n      add\n      0x00\n      swap2\n      pop\n      swap1\n      pop\n      dup1\n      0x00\n      add\n      sload\n      swap1\n      dup1\n      0x01\n      add\n      dup1\n      sload\n      tag_36\n      swap1\n      tag_25\n      jump\t// in\n    tag_36:\n      dup1\n      0x1f\n      add\n      0x20\n      dup1\n      swap2\n      div\n      mul\n      0x20\n      add\n      mload(0x40)\n      swap1\n      dup2\n      add\n      0x40\n      mstore\n      dup1\n      swap3\n      swap2\n      swap1\n      dup2\n      dup2\n      mstore\n      0x20\n      add\n      dup3\n      dup1\n      sload\n      tag_37\n      swap1\n      tag_25\n      jump\t// in\n    tag_37:\n      dup1\n      iszero\n      tag_38\n      jumpi\n      dup1\n      0x1f\n      lt\n      tag_39\n      jumpi\n      0x0100\n      dup1\n      dup4\n      sload\n      div\n      mul\n      dup4\n      mstore\n      swap2\n      0x20\n      add\n      swap2\n      jump(tag_38)\n    tag_39:\n      dup3\n      add\n      swap2\n      swap1\n      0x00\n      mstore\n      keccak256(0x00, 0x20)\n      swap1\n    tag_40:\n      dup2\n      sload\n      dup2\n      mstore\n      swap1\n      0x01\n      add\n      swap1\n      0x20\n      add\n      dup1\n      dup4\n      gt\n      tag_40\n      jumpi\n      dup3\n      swap1\n      sub\n      0x1f\n      and\n      dup3\n      add\n      swap2\n    tag_38:\n      pop\n      pop\n      pop\n      pop\n      pop\n      swap1\n      pop\n      dup3\n      jump\t// out\n        /* \"contracts/third.sol\":334:453  function store(uint256 _number, string memory _name) public {... */\n    tag_22:\n        /* \"contracts/third.sol\":414:421  _number */\n      dup2\n        /* \"contracts/third.sol\":405:413  Mynumber */\n      0x00\n        /* \"contracts/third.sol\":405:421  Mynumber=_number */\n      dup2\n      swap1\n      sstore\n      pop\n        /* \"contracts/third.sol\":430:435  _name */\n      dup1\n        /* \"contracts/third.sol\":423:429  Myname */\n      0x01\n        /* \"contracts/third.sol\":423:435  Myname=_name */\n      swap1\n      dup2\n      tag_42\n      swap2\n      swap1\n      tag_33\n      jump\t// in\n    tag_42:\n      pop\n        /* \"contracts/third.sol\":334:453  function store(uint256 _number, string memory _name) public {... */\n      pop\n      pop\n      jump\t// out\n        /* \"#utility.yul\":7:84   */\n    tag_43:\n        /* \"#utility.yul\":44:51   */\n      0x00\n        /* \"#utility.yul\":73:78   */\n      dup2\n        /* \"#utility.yul\":62:78   */\n      swap1\n      pop\n        /* \"#utility.yul\":7:84   */\n      swap2\n      swap1\n      pop\n      jump\t// out\n        /* \"#utility.yul\":90:208   */\n    tag_44:\n        /* \"#utility.yul\":177:201   */\n      tag_83\n        /* \"#utility.yul\":195:200   */\n      dup2\n        /* \"#utility.yul\":177:201   */\n      tag_43\n      jump\t// in\n    tag_83:\n        /* \"#utility.yul\":172:175   */\n      dup3\n        /* \"#utility.yul\":165:202   */\n      mstore\n        /* \"#utility.yul\":90:208   */\n      pop\n      pop\n      jump\t// out\n        /* \"#utility.yul\":214:313   */\n    tag_45:\n        /* \"#utility.yul\":266:272   */\n      0x00\n        /* \"#utility.yul\":300:305   */\n      dup2\n        /* \"#utility.yul\":294:306   */\n      mload\n        /* \"#utility.yul\":284:306   */\n      swap1\n      pop\n        /* \"#utility.yul\":214:313   */\n      swap2\n      swap1\n      pop\n      jump\t// out\n        /* \"#utility.yul\":319:488   */\n    tag_46:\n        /* \"#utility.yul\":403:414   */\n      0x00\n        /* \"#utility.yul\":437:443   */\n      dup3\n        /* \"#utility.yul\":432:435   */\n      dup3\n        /* \"#utility.yul\":425:444   */\n      mstore\n        /* \"#utility.yul\":477:481   */\n      0x20\n        /* \"#utility.yul\":472:475   */\n      dup3\n        /* \"#utility.yul\":468:482   */\n      add\n        /* \"#utility.yul\":453:482   */\n      swap1\n      pop\n        /* \"#utility.yul\":319:488   */\n      swap3\n      swap2\n      pop\n      pop\n      jump\t// out\n        /* \"#utility.yul\":494:740   */\n    tag_47:\n        /* \"#utility.yul\":575:576   */\n      0x00\n        /* \"#utility.yul\":585:698   */\n    tag_87:\n        /* \"#utility.yul\":599:605   */\n      dup4\n        /* \"#utility.yul\":596:597   */\n      dup2\n        /* \"#utility.yul\":593:606   */\n      lt\n        /* \"#utility.yul\":585:698   */\n      iszero\n      tag_89\n      jumpi\n        /* \"#utility.yul\":684:685   */\n      dup1\n        /* \"#utility.yul\":679:682   */\n      dup3\n        /* \"#utility.yul\":675:686   */\n      add\n        /* \"#utility.yul\":669:687   */\n      mload\n        /* \"#utility.yul\":665:666   */\n      dup2\n        /* \"#utility.yul\":660:663   */\n      dup5\n        /* \"#utility.yul\":656:667   */\n      add\n        /* \"#utility.yul\":649:688   */\n      mstore\n        /* \"#utility.yul\":621:623   */\n      0x20\n        /* \"#utility.yul\":618:619   */\n      dup2\n        /* \"#utility.yul\":614:624   */\n      add\n        /* \"#utility.yul\":609:624   */\n      swap1\n      pop\n        /* \"#utility.yul\":585:698   */\n      jump(tag_87)\n    tag_89:\n        /* \"#utility.yul\":732:733   */\n      0x00\n        /* \"#utility.yul\":723:729   */\n      dup5\n        /* \"#utility.yul\":718:721   */\n      dup5\n        /* \"#utility.yul\":714:730   */\n      add\n        /* \"#utility.yul\":707:734   */\n      mstore\n        /* \"#utility.yul\":556:740   */\n      pop\n        /* \"#utility.yul\":494:740   */\n      pop\n      pop\n      pop\n      jump\t// out\n        /* \"#utility.yul\":746:848   */\n    tag_48:\n        /* \"#utility.yul\":787:793   */\n      0x00\n        /* \"#utility.yul\":838:840   */\n      0x1f\n        /* \"#utility.yul\":834:841   */\n      not\n        /* \"#utility.yul\":829:831   */\n      0x1f\n        /* \"#utility.yul\":822:827   */\n      dup4\n        /* \"#utility.yul\":818:832   */\n      add\n        /* \"#utility.yul\":814:842   */\n      and\n        /* \"#utility.yul\":804:842   */\n      swap1\n      pop\n        /* \"#utility.yul\":746:848   */\n      swap2\n      swap1\n      pop\n      jump\t// out\n        /* \"#utility.yul\":854:1231   */\n    tag_49:\n        /* \"#utility.yul\":942:945   */\n      0x00\n        /* \"#utility.yul\":970:1009   */\n      tag_92\n        /* \"#utility.yul\":1003:1008   */\n      dup3\n        /* \"#utility.yul\":970:1009   */\n      tag_45\n      jump\t// in\n    tag_92:\n        /* \"#utility.yul\":1025:1096   */\n      tag_93\n        /* \"#utility.yul\":1089:1095   */\n      dup2\n        /* \"#utility.yul\":1084:1087   */\n      dup6\n        /* \"#utility.yul\":1025:1096   */\n      tag_46\n      jump\t// in\n    tag_93:\n        /* \"#utility.yul\":1018:1096   */\n      swap4\n      pop\n        /* \"#utility.yul\":1105:1170   */\n      tag_94\n        /* \"#utility.yul\":1163:1169   */\n      dup2\n        /* \"#utility.yul\":1158:1161   */\n      dup6\n        /* \"#utility.yul\":1151:1155   */\n      0x20\n        /* \"#utility.yul\":1144:1149   */\n      dup7\n        /* \"#utility.yul\":1140:1156   */\n      add\n        /* \"#utility.yul\":1105:1170   */\n      tag_47\n      jump\t// in\n    tag_94:\n        /* \"#utility.yul\":1195:1224   */\n      tag_95\n        /* \"#utility.yul\":1217:1223   */\n      dup2\n        /* \"#utility.yul\":1195:1224   */\n      tag_48\n      jump\t// in\n    tag_95:\n        /* \"#utility.yul\":1190:1193   */\n      dup5\n        /* \"#utility.yul\":1186:1225   */\n      add\n        /* \"#utility.yul\":1179:1225   */\n      swap2\n      pop\n        /* \"#utility.yul\":946:1231   */\n      pop\n        /* \"#utility.yul\":854:1231   */\n      swap3\n      swap2\n      pop\n      pop\n      jump\t// out\n        /* \"#utility.yul\":1237:1660   */\n    tag_10:\n        /* \"#utility.yul\":1378:1382   */\n      0x00\n        /* \"#utility.yul\":1416:1418   */\n      0x40\n        /* \"#utility.yul\":1405:1414   */\n      dup3\n        /* \"#utility.yul\":1401:1419   */\n      add\n        /* \"#utility.yul\":1393:1419   */\n      swap1\n      pop\n        /* \"#utility.yul\":1429:1500   */\n      tag_97\n        /* \"#utility.yul\":1497:1498   */\n      0x00\n        /* \"#utility.yul\":1486:1495   */\n      dup4\n        /* \"#utility.yul\":1482:1499   */\n      add\n        /* \"#utility.yul\":1473:1479   */\n      dup6\n        /* \"#utility.yul\":1429:1500   */\n      tag_44\n      jump\t// in\n    tag_97:\n        /* \"#utility.yul\":1547:1556   */\n      dup2\n        /* \"#utility.yul\":1541:1545   */\n      dup2\n        /* \"#utility.yul\":1537:1557   */\n      sub\n        /* \"#utility.yul\":1532:1534   */\n      0x20\n        /* \"#utility.yul\":1521:1530   */\n      dup4\n        /* \"#utility.yul\":1517:1535   */\n      add\n        /* \"#utility.yul\":1510:1558   */\n      mstore\n        /* \"#utility.yul\":1575:1653   */\n      tag_98\n        /* \"#utility.yul\":1648:1652   */\n      dup2\n        /* \"#utility.yul\":1639:1645   */\n      dup5\n        /* \"#utility.yul\":1575:1653   */\n      tag_49\n      jump\t// in\n    tag_98:\n        /* \"#utility.yul\":1567:1653   */\n      swap1\n      pop\n        /* \"#utility.yul\":1237:1660   */\n      swap4\n      swap3\n      pop\n      pop\n      pop\n      jump\t// out\n        /* \"#utility.yul\":1666:1741   */\n    tag_50:\n        /* \"#utility.yul\":1699:1705   */\n      0x00\n        /* \"#utility.yul\":1732:1734   */\n      0x40\n        /* \"#utility.yul\":1726:1735   */\n      mload\n        /* \"#utility.yul\":1716:1735   */\n      swap1\n      pop\n        /* \"#utility.yul\":1666:1741   */\n      swap1\n      jump\t// out\n        /* \"#utility.yul\":1747:1864   */\n    tag_51:\n        /* \"#utility.yul\":1856:1857   */\n      0x00\n        /* \"#utility.yul\":1853:1854   */\n      dup1\n        /* \"#utility.yul\":1846:1858   */\n      revert\n        /* \"#utility.yul\":1870:1987   */\n    tag_52:\n        /* \"#utility.yul\":1979:1980   */\n      0x00\n        /* \"#utility.yul\":1976:1977   */\n      dup1\n        /* \"#utility.yul\":1969:1981   */\n      revert\n        /* \"#utility.yul\":1993:2115   */\n    tag_53:\n        /* \"#utility.yul\":2066:2090   */\n      tag_103\n        /* \"#utility.yul\":2084:2089   */\n      dup2\n        /* \"#utility.yul\":2066:2090   */\n      tag_43\n      jump\t// in\n    tag_103:\n        /* \"#utility.yul\":2059:2064   */\n      dup2\n        /* \"#utility.yul\":2056:2091   */\n      eq\n        /* \"#utility.yul\":2046:2109   */\n      tag_104\n      jumpi\n        /* \"#utility.yul\":2105:2106   */\n      0x00\n        /* \"#utility.yul\":2102:2103   */\n      dup1\n        /* \"#utility.yul\":2095:2107   */\n      revert\n        /* \"#utility.yul\":2046:2109   */\n    tag_104:\n        /* \"#utility.yul\":1993:2115   */\n      pop\n      jump\t// out\n        /* \"#utility.yul\":2121:2260   */\n    tag_54:\n        /* \"#utility.yul\":2167:2172   */\n      0x00\n        /* \"#utility.yul\":2205:2211   */\n      dup2\n        /* \"#utility.yul\":2192:2212   */\n      calldataload\n        /* \"#utility.yul\":2183:2212   */\n      swap1\n      pop\n        /* \"#utility.yul\":2221:2254   */\n      tag_106\n        /* \"#utility.yul\":2248:2253   */\n      dup2\n        /* \"#utility.yul\":2221:2254   */\n      tag_53\n      jump\t// in\n    tag_106:\n        /* \"#utility.yul\":2121:2260   */\n      swap3\n      swap2\n      pop\n      pop\n      jump\t// out\n        /* \"#utility.yul\":2266:2383   */\n    tag_55:\n        /* \"#utility.yul\":2375:2376   */\n      0x00\n        /* \"#utility.yul\":2372:2373   */\n      dup1\n        /* \"#utility.yul\":2365:2377   */\n      revert\n        /* \"#utility.yul\":2389:2506   */\n    tag_56:\n        /* \"#utility.yul\":2498:2499   */\n      0x00\n        /* \"#utility.yul\":2495:2496   */\n      dup1\n        /* \"#utility.yul\":2488:2500   */\n      revert\n        /* \"#utility.yul\":2512:2692   */\n    tag_57:\n        /* \"#utility.yul\":2560:2637   */\n      0x4e487b7100000000000000000000000000000000000000000000000000000000\n        /* \"#utility.yul\":2557:2558   */\n      0x00\n        /* \"#utility.yul\":2550:2638   */\n      mstore\n        /* \"#utility.yul\":2657:2661   */\n      0x41\n        /* \"#utility.yul\":2654:2655   */\n      0x04\n        /* \"#utility.yul\":2647:2662   */\n      mstore\n        /* \"#utility.yul\":2681:2685   */\n      0x24\n        /* \"#utility.yul\":2678:2679   */\n      0x00\n        /* \"#utility.yul\":2671:2686   */\n      revert\n        /* \"#utility.yul\":2698:2979   */\n    tag_58:\n        /* \"#utility.yul\":2781:2808   */\n      tag_111\n        /* \"#utility.yul\":2803:2807   */\n      dup3\n        /* \"#utility.yul\":2781:2808   */\n      tag_48\n      jump\t// in\n    tag_111:\n        /* \"#utility.yul\":2773:2779   */\n      dup2\n        /* \"#utility.yul\":2769:2809   */\n      add\n        /* \"#utility.yul\":2911:2917   */\n      dup2\n        /* \"#utility.yul\":2899:2909   */\n      dup2\n        /* \"#utility.yul\":2896:2918   */\n      lt\n        /* \"#utility.yul\":2875:2893   */\n      0xffffffffffffffff\n        /* \"#utility.yul\":2863:2873   */\n      dup3\n        /* \"#utility.yul\":2860:2894   */\n      gt\n        /* \"#utility.yul\":2857:2919   */\n      or\n        /* \"#utility.yul\":2854:2942   */\n      iszero\n      tag_112\n      jumpi\n        /* \"#utility.yul\":2922:2940   */\n      tag_113\n      tag_57\n      jump\t// in\n    tag_113:\n        /* \"#utility.yul\":2854:2942   */\n    tag_112:\n        /* \"#utility.yul\":2962:2972   */\n      dup1\n        /* \"#utility.yul\":2958:2960   */\n      0x40\n        /* \"#utility.yul\":2951:2973   */\n      mstore\n        /* \"#utility.yul\":2741:2979   */\n      pop\n        /* \"#utility.yul\":2698:2979   */\n      pop\n      pop\n      jump\t// out\n        /* \"#utility.yul\":2985:3114   */\n    tag_59:\n        /* \"#utility.yul\":3019:3025   */\n      0x00\n        /* \"#utility.yul\":3046:3066   */\n      tag_115\n      tag_50\n      jump\t// in\n    tag_115:\n        /* \"#utility.yul\":3036:3066   */\n      swap1\n      pop\n        /* \"#utility.yul\":3075:3108   */\n      tag_116\n        /* \"#utility.yul\":3103:3107   */\n      dup3\n        /* \"#utility.yul\":3095:3101   */\n      dup3\n        /* \"#utility.yul\":3075:3108   */\n      tag_58\n      jump\t// in\n    tag_116:\n        /* \"#utility.yul\":2985:3114   */\n      swap2\n      swap1\n      pop\n      jump\t// out\n        /* \"#utility.yul\":3120:3428   */\n    tag_60:\n        /* \"#utility.yul\":3182:3186   */\n      0x00\n        /* \"#utility.yul\":3272:3290   */\n      0xffffffffffffffff\n        /* \"#utility.yul\":3264:3270   */\n      dup3\n        /* \"#utility.yul\":3261:3291   */\n      gt\n        /* \"#utility.yul\":3258:3314   */\n      iszero\n      tag_118\n      jumpi\n        /* \"#utility.yul\":3294:3312   */\n      tag_119\n      tag_57\n      jump\t// in\n    tag_119:\n        /* \"#utility.yul\":3258:3314   */\n    tag_118:\n        /* \"#utility.yul\":3332:3361   */\n      tag_120\n        /* \"#utility.yul\":3354:3360   */\n      dup3\n        /* \"#utility.yul\":3332:3361   */\n      tag_48\n      jump\t// in\n    tag_120:\n        /* \"#utility.yul\":3324:3361   */\n      swap1\n      pop\n        /* \"#utility.yul\":3416:3420   */\n      0x20\n        /* \"#utility.yul\":3410:3414   */\n      dup2\n        /* \"#utility.yul\":3406:3421   */\n      add\n        /* \"#utility.yul\":3398:3421   */\n      swap1\n      pop\n        /* \"#utility.yul\":3120:3428   */\n      swap2\n      swap1\n      pop\n      jump\t// out\n        /* \"#utility.yul\":3434:3580   */\n    tag_61:\n        /* \"#utility.yul\":3531:3537   */\n      dup3\n        /* \"#utility.yul\":3526:3529   */\n      dup2\n        /* \"#utility.yul\":3521:3524   */\n      dup4\n        /* \"#utility.yul\":3508:3538   */\n      calldatacopy\n        /* \"#utility.yul\":3572:3573   */\n      0x00\n        /* \"#utility.yul\":3563:3569   */\n      dup4\n        /* \"#utility.yul\":3558:3561   */\n      dup4\n        /* \"#utility.yul\":3554:3570   */\n      add\n        /* \"#utility.yul\":3547:3574   */\n      mstore\n        /* \"#utility.yul\":3434:3580   */\n      pop\n      pop\n      pop\n      jump\t// out\n        /* \"#utility.yul\":3586:4011   */\n    tag_62:\n        /* \"#utility.yul\":3664:3669   */\n      0x00\n        /* \"#utility.yul\":3689:3755   */\n      tag_123\n        /* \"#utility.yul\":3705:3754   */\n      tag_124\n        /* \"#utility.yul\":3747:3753   */\n      dup5\n        /* \"#utility.yul\":3705:3754   */\n      tag_60\n      jump\t// in\n    tag_124:\n        /* \"#utility.yul\":3689:3755   */\n      tag_59\n      jump\t// in\n    tag_123:\n        /* \"#utility.yul\":3680:3755   */\n      swap1\n      pop\n        /* \"#utility.yul\":3778:3784   */\n      dup3\n        /* \"#utility.yul\":3771:3776   */\n      dup2\n        /* \"#utility.yul\":3764:3785   */\n      mstore\n        /* \"#utility.yul\":3816:3820   */\n      0x20\n        /* \"#utility.yul\":3809:3814   */\n      dup2\n        /* \"#utility.yul\":3805:3821   */\n      add\n        /* \"#utility.yul\":3854:3857   */\n      dup5\n        /* \"#utility.yul\":3845:3851   */\n      dup5\n        /* \"#utility.yul\":3840:3843   */\n      dup5\n        /* \"#utility.yul\":3836:3852   */\n      add\n        /* \"#utility.yul\":3833:3858   */\n      gt\n        /* \"#utility.yul\":3830:3942   */\n      iszero\n      tag_125\n      jumpi\n        /* \"#utility.yul\":3861:3940   */\n      tag_126\n      tag_56\n      jump\t// in\n    tag_126:\n        /* \"#utility.yul\":3830:3942   */\n    tag_125:\n        /* \"#utility.yul\":3951:4005   */\n      tag_127\n        /* \"#utility.yul\":3998:4004   */\n      dup5\n        /* \"#utility.yul\":3993:3996   */\n      dup3\n        /* \"#utility.yul\":3988:3991   */\n      dup6\n        /* \"#utility.yul\":3951:4005   */\n      tag_61\n      jump\t// in\n    tag_127:\n        /* \"#utility.yul\":3670:4011   */\n      pop\n        /* \"#utility.yul\":3586:4011   */\n      swap4\n      swap3\n      pop\n      pop\n      pop\n      jump\t// out\n        /* \"#utility.yul\":4031:4371   */\n    tag_63:\n        /* \"#utility.yul\":4087:4092   */\n      0x00\n        /* \"#utility.yul\":4136:4139   */\n      dup3\n        /* \"#utility.yul\":4129:4133   */\n      0x1f\n        /* \"#utility.yul\":4121:4127   */\n      dup4\n        /* \"#utility.yul\":4117:4134   */\n      add\n        /* \"#utility.yul\":4113:4140   */\n      slt\n        /* \"#utility.yul\":4103:4225   */\n      tag_129\n      jumpi\n        /* \"#utility.yul\":4144:4223   */\n      tag_130\n      tag_55\n      jump\t// in\n    tag_130:\n        /* \"#utility.yul\":4103:4225   */\n    tag_129:\n        /* \"#utility.yul\":4261:4267   */\n      dup2\n        /* \"#utility.yul\":4248:4268   */\n      calldataload\n        /* \"#utility.yul\":4286:4365   */\n      tag_131\n        /* \"#utility.yul\":4361:4364   */\n      dup5\n        /* \"#utility.yul\":4353:4359   */\n      dup3\n        /* \"#utility.yul\":4346:4350   */\n      0x20\n        /* \"#utility.yul\":4338:4344   */\n      dup7\n        /* \"#utility.yul\":4334:4351   */\n      add\n        /* \"#utility.yul\":4286:4365   */\n      tag_62\n      jump\t// in\n    tag_131:\n        /* \"#utility.yul\":4277:4365   */\n      swap2\n      pop\n        /* \"#utility.yul\":4093:4371   */\n      pop\n        /* \"#utility.yul\":4031:4371   */\n      swap3\n      swap2\n      pop\n      pop\n      jump\t// out\n        /* \"#utility.yul\":4377:5031   */\n    tag_13:\n        /* \"#utility.yul\":4455:4461   */\n      0x00\n        /* \"#utility.yul\":4463:4469   */\n      dup1\n        /* \"#utility.yul\":4512:4514   */\n      0x40\n        /* \"#utility.yul\":4500:4509   */\n      dup4\n        /* \"#utility.yul\":4491:4498   */\n      dup6\n        /* \"#utility.yul\":4487:4510   */\n      sub\n        /* \"#utility.yul\":4483:4515   */\n      slt\n        /* \"#utility.yul\":4480:4599   */\n      iszero\n      tag_133\n      jumpi\n        /* \"#utility.yul\":4518:4597   */\n      tag_134\n      tag_51\n      jump\t// in\n    tag_134:\n        /* \"#utility.yul\":4480:4599   */\n    tag_133:\n        /* \"#utility.yul\":4638:4639   */\n      0x00\n        /* \"#utility.yul\":4663:4716   */\n      tag_135\n        /* \"#utility.yul\":4708:4715   */\n      dup6\n        /* \"#utility.yul\":4699:4705   */\n      dup3\n        /* \"#utility.yul\":4688:4697   */\n      dup7\n        /* \"#utility.yul\":4684:4706   */\n      add\n        /* \"#utility.yul\":4663:4716   */\n      tag_54\n      jump\t// in\n    tag_135:\n        /* \"#utility.yul\":4653:4716   */\n      swap3\n      pop\n        /* \"#utility.yul\":4609:4726   */\n      pop\n        /* \"#utility.yul\":4793:4795   */\n      0x20\n        /* \"#utility.yul\":4782:4791   */\n      dup4\n        /* \"#utility.yul\":4778:4796   */\n      add\n        /* \"#utility.yul\":4765:4797   */\n      calldataload\n        /* \"#utility.yul\":4824:4842   */\n      0xffffffffffffffff\n        /* \"#utility.yul\":4816:4822   */\n      dup2\n        /* \"#utility.yul\":4813:4843   */\n      gt\n        /* \"#utility.yul\":4810:4927   */\n      iszero\n      tag_136\n      jumpi\n        /* \"#utility.yul\":4846:4925   */\n      tag_137\n      tag_52\n      jump\t// in\n    tag_137:\n        /* \"#utility.yul\":4810:4927   */\n    tag_136:\n        /* \"#utility.yul\":4951:5014   */\n      tag_138\n        /* \"#utility.yul\":5006:5013   */\n      dup6\n        /* \"#utility.yul\":4997:5003   */\n      dup3\n        /* \"#utility.yul\":4986:4995   */\n      dup7\n        /* \"#utility.yul\":4982:5004   */\n      add\n        /* \"#utility.yul\":4951:5014   */\n      tag_63\n      jump\t// in\n    tag_138:\n        /* \"#utility.yul\":4941:5014   */\n      swap2\n      pop\n        /* \"#utility.yul\":4736:5024   */\n      pop\n        /* \"#utility.yul\":4377:5031   */\n      swap3\n      pop\n      swap3\n      swap1\n      pop\n      jump\t// out\n        /* \"#utility.yul\":5037:5366   */\n    tag_17:\n        /* \"#utility.yul\":5096:5102   */\n      0x00\n        /* \"#utility.yul\":5145:5147   */\n      0x20\n        /* \"#utility.yul\":5133:5142   */\n      dup3\n        /* \"#utility.yul\":5124:5131   */\n      dup5\n        /* \"#utility.yul\":5120:5143   */\n      sub\n        /* \"#utility.yul\":5116:5148   */\n      slt\n        /* \"#utility.yul\":5113:5232   */\n      iszero\n      tag_140\n      jumpi\n        /* \"#utility.yul\":5151:5230   */\n      tag_141\n      tag_51\n      jump\t// in\n    tag_141:\n        /* \"#utility.yul\":5113:5232   */\n    tag_140:\n        /* \"#utility.yul\":5271:5272   */\n      0x00\n        /* \"#utility.yul\":5296:5349   */\n      tag_142\n        /* \"#utility.yul\":5341:5348   */\n      dup5\n        /* \"#utility.yul\":5332:5338   */\n      dup3\n        /* \"#utility.yul\":5321:5330   */\n      dup6\n        /* \"#utility.yul\":5317:5339   */\n      add\n        /* \"#utility.yul\":5296:5349   */\n      tag_54\n      jump\t// in\n    tag_142:\n        /* \"#utility.yul\":5286:5349   */\n      swap2\n      pop\n        /* \"#utility.yul\":5242:5359   */\n      pop\n        /* \"#utility.yul\":5037:5366   */\n      swap3\n      swap2\n      pop\n      pop\n      jump\t// out\n        /* \"#utility.yul\":5372:5552   */\n    tag_64:\n        /* \"#utility.yul\":5420:5497   */\n      0x4e487b7100000000000000000000000000000000000000000000000000000000\n        /* \"#utility.yul\":5417:5418   */\n      0x00\n        /* \"#utility.yul\":5410:5498   */\n      mstore\n        /* \"#utility.yul\":5517:5521   */\n      0x22\n        /* \"#utility.yul\":5514:5515   */\n      0x04\n        /* \"#utility.yul\":5507:5522   */\n      mstore\n        /* \"#utility.yul\":5541:5545   */\n      0x24\n        /* \"#utility.yul\":5538:5539   */\n      0x00\n        /* \"#utility.yul\":5531:5546   */\n      revert\n        /* \"#utility.yul\":5558:5878   */\n    tag_25:\n        /* \"#utility.yul\":5602:5608   */\n      0x00\n        /* \"#utility.yul\":5639:5640   */\n      0x02\n        /* \"#utility.yul\":5633:5637   */\n      dup3\n        /* \"#utility.yul\":5629:5641   */\n      div\n        /* \"#utility.yul\":5619:5641   */\n      swap1\n      pop\n        /* \"#utility.yul\":5686:5687   */\n      0x01\n        /* \"#utility.yul\":5680:5684   */\n      dup3\n        /* \"#utility.yul\":5676:5688   */\n      and\n        /* \"#utility.yul\":5707:5725   */\n      dup1\n        /* \"#utility.yul\":5697:5778   */\n      tag_145\n      jumpi\n        /* \"#utility.yul\":5763:5767   */\n      0x7f\n        /* \"#utility.yul\":5755:5761   */\n      dup3\n        /* \"#utility.yul\":5751:5768   */\n      and\n        /* \"#utility.yul\":5741:5768   */\n      swap2\n      pop\n        /* \"#utility.yul\":5697:5778   */\n    tag_145:\n        /* \"#utility.yul\":5825:5827   */\n      0x20\n        /* \"#utility.yul\":5817:5823   */\n      dup3\n        /* \"#utility.yul\":5814:5828   */\n      lt\n        /* \"#utility.yul\":5794:5812   */\n      dup2\n        /* \"#utility.yul\":5791:5829   */\n      sub\n        /* \"#utility.yul\":5788:5872   */\n      tag_146\n      jumpi\n        /* \"#utility.yul\":5844:5862   */\n      tag_147\n      tag_64\n      jump\t// in\n    tag_147:\n        /* \"#utility.yul\":5788:5872   */\n    tag_146:\n        /* \"#utility.yul\":5609:5878   */\n      pop\n        /* \"#utility.yul\":5558:5878   */\n      swap2\n      swap1\n      pop\n      jump\t// out\n        /* \"#utility.yul\":5884:6025   */\n    tag_65:\n        /* \"#utility.yul\":5933:5937   */\n      0x00\n        /* \"#utility.yul\":5956:5959   */\n      dup2\n        /* \"#utility.yul\":5948:5959   */\n      swap1\n      pop\n        /* \"#utility.yul\":5979:5982   */\n      dup2\n        /* \"#utility.yul\":5976:5977   */\n      0x00\n        /* \"#utility.yul\":5969:5983   */\n      mstore\n        /* \"#utility.yul\":6013:6017   */\n      0x20\n        /* \"#utility.yul\":6010:6011   */\n      0x00\n        /* \"#utility.yul\":6000:6018   */\n      keccak256\n        /* \"#utility.yul\":5992:6018   */\n      swap1\n      pop\n        /* \"#utility.yul\":5884:6025   */\n      swap2\n      swap1\n      pop\n      jump\t// out\n        /* \"#utility.yul\":6031:6124   */\n    tag_66:\n        /* \"#utility.yul\":6068:6074   */\n      0x00\n        /* \"#utility.yul\":6115:6117   */\n      0x20\n        /* \"#utility.yul\":6110:6112   */\n      0x1f\n        /* \"#utility.yul\":6103:6108   */\n      dup4\n        /* \"#utility.yul\":6099:6113   */\n      add\n        /* \"#utility.yul\":6095:6118   */\n      div\n        /* \"#utility.yul\":6085:6118   */\n      swap1\n      pop\n        /* \"#utility.yul\":6031:6124   */\n      swap2\n      swap1\n      pop\n      jump\t// out\n        /* \"#utility.yul\":6130:6237   */\n    tag_67:\n        /* \"#utility.yul\":6174:6182   */\n      0x00\n        /* \"#utility.yul\":6224:6229   */\n      dup3\n        /* \"#utility.yul\":6218:6222   */\n      dup3\n        /* \"#utility.yul\":6214:6230   */\n      shl\n        /* \"#utility.yul\":6193:6230   */\n      swap1\n      pop\n        /* \"#utility.yul\":6130:6237   */\n      swap3\n      swap2\n      pop\n      pop\n      jump\t// out\n        /* \"#utility.yul\":6243:6636   */\n    tag_68:\n        /* \"#utility.yul\":6312:6318   */\n      0x00\n        /* \"#utility.yul\":6362:6363   */\n      0x08\n        /* \"#utility.yul\":6350:6360   */\n      dup4\n        /* \"#utility.yul\":6346:6364   */\n      mul\n        /* \"#utility.yul\":6385:6482   */\n      tag_152\n        /* \"#utility.yul\":6415:6481   */\n      0xffffffffffffffffffffffffffffffffffffffffffffffffffffffffffffffff\n        /* \"#utility.yul\":6404:6413   */\n      dup3\n        /* \"#utility.yul\":6385:6482   */\n      tag_67\n      jump\t// in\n    tag_152:\n        /* \"#utility.yul\":6503:6542   */\n      tag_153\n        /* \"#utility.yul\":6533:6541   */\n      dup7\n        /* \"#utility.yul\":6522:6531   */\n      dup4\n        /* \"#utility.yul\":6503:6542   */\n      tag_67\n      jump\t// in\n    tag_153:\n        /* \"#utility.yul\":6491:6542   */\n      swap6\n      pop\n        /* \"#utility.yul\":6575:6579   */\n      dup1\n        /* \"#utility.yul\":6571:6580   */\n      not\n        /* \"#utility.yul\":6564:6569   */\n      dup5\n        /* \"#utility.yul\":6560:6581   */\n      and\n        /* \"#utility.yul\":6551:6581   */\n      swap4\n      pop\n        /* \"#utility.yul\":6624:6628   */\n      dup1\n        /* \"#utility.yul\":6614:6622   */\n      dup7\n        /* \"#utility.yul\":6610:6629   */\n      and\n        /* \"#utility.yul\":6603:6608   */\n      dup5\n        /* \"#utility.yul\":6600:6630   */\n      or\n        /* \"#utility.yul\":6590:6630   */\n      swap3\n      pop\n        /* \"#utility.yul\":6319:6636   */\n      pop\n      pop\n        /* \"#utility.yul\":6243:6636   */\n      swap4\n      swap3\n      pop\n      pop\n      pop\n      jump\t// out\n        /* \"#utility.yul\":6642:6702   */\n    tag_69:\n        /* \"#utility.yul\":6670:6673   */\n      0x00\n        /* \"#utility.yul\":6691:6696   */\n      dup2\n        /* \"#utility.yul\":6684:6696   */\n      swap1\n      pop\n        /* \"#utility.yul\":6642:6702   */\n      swap2\n      swap1\n      pop\n      jump\t// out\n        /* \"#utility.yul\":6708:6850   */\n    tag_70:\n        /* \"#utility.yul\":6758:6767   */\n      0x00\n        /* \"#utility.yul\":6791:6844   */\n      tag_156\n        /* \"#utility.yul\":6809:6843   */\n      tag_157\n        /* \"#utility.yul\":6818:6842   */\n      tag_158\n        /* \"#utility.yul\":6836:6841   */\n      dup5\n        /* \"#utility.yul\":6818:6842   */\n      tag_43\n      jump\t// in\n    tag_158:\n        /* \"#utility.yul\":6809:6843   */\n      tag_69\n      jump\t// in\n    tag_157:\n        /* \"#utility.yul\":6791:6844   */\n      tag_43\n      jump\t// in\n    tag_156:\n        /* \"#utility.yul\":6778:6844   */\n      swap1\n      pop\n        /* \"#utility.yul\":6708:6850   */\n      swap2\n      swap1\n      pop\n      jump\t// out\n        /* \"#utility.yul\":6856:6931   */\n    tag_71:\n        /* \"#utility.yul\":6899:6902   */\n      0x00\n        /* \"#utility.yul\":6920:6925   */\n      dup2\n        /* \"#utility.yul\":6913:6925   */\n      swap1\n      pop\n        /* \"#utility.yul\":6856:6931   */\n      swap2\n      swap1\n      pop\n      jump\t// out\n        /* \"#utility.yul\":6937:7206   */\n    tag_72:\n        /* \"#utility.yul\":7047:7086   */\n      tag_161\n        /* \"#utility.yul\":7078:7085   */\n      dup4\n        /* \"#utility.yul\":7047:7086   */\n      tag_70\n      jump\t// in\n    tag_161:\n        /* \"#utility.yul\":7108:7199   */\n      tag_162\n        /* \"#utility.yul\":7157:7198   */\n      tag_163\n        /* \"#utility.yul\":7181:7197   */\n      dup3\n        /* \"#utility.yul\":7157:7198   */\n      tag_71\n      jump\t// in\n    tag_163:\n        /* \"#utility.yul\":7149:7155   */\n      dup5\n        /* \"#utility.yul\":7142:7146   */\n      dup5\n        /* \"#utility.yul\":7136:7147   */\n      sload\n        /* \"#utility.yul\":7108:7199   */\n      tag_68\n      jump\t// in\n    tag_162:\n        /* \"#utility.yul\":7102:7106   */\n      dup3\n        /* \"#utility.yul\":7095:7200   */\n      sstore\n        /* \"#utility.yul\":7013:7206   */\n      pop\n        /* \"#utility.yul\":6937:7206   */\n      pop\n      pop\n      pop\n      jump\t// out\n        /* \"#utility.yul\":7212:7285   */\n    tag_73:\n        /* \"#utility.yul\":7257:7260   */\n      0x00\n        /* \"#utility.yul\":7212:7285   */\n      swap1\n      jump\t// out\n        /* \"#utility.yul\":7291:7480   */\n    tag_74:\n        /* \"#utility.yul\":7368:7400   */\n      tag_166\n      tag_73\n      jump\t// in\n    tag_166:\n        /* \"#utility.yul\":7409:7474   */\n      tag_167\n        /* \"#utility.yul\":7467:7473   */\n      dup2\n        /* \"#utility.yul\":7459:7465   */\n      dup5\n        /* \"#utility.yul\":7453:7457   */\n      dup5\n        /* \"#utility.yul\":7409:7474   */\n      tag_72\n      jump\t// in\n    tag_167:\n        /* \"#utility.yul\":7344:7480   */\n      pop\n        /* \"#utility.yul\":7291:7480   */\n      pop\n      pop\n      jump\t// out\n        /* \"#utility.yul\":7486:7672   */\n    tag_75:\n        /* \"#utility.yul\":7546:7666   */\n    tag_169:\n        /* \"#utility.yul\":7563:7566   */\n      dup2\n        /* \"#utility.yul\":7556:7561   */\n      dup2\n        /* \"#utility.yul\":7553:7567   */\n      lt\n        /* \"#utility.yul\":7546:7666   */\n      iszero\n      tag_171\n      jumpi\n        /* \"#utility.yul\":7617:7656   */\n      tag_172\n        /* \"#utility.yul\":7654:7655   */\n      0x00\n        /* \"#utility.yul\":7647:7652   */\n      dup3\n        /* \"#utility.yul\":7617:7656   */\n      tag_74\n      jump\t// in\n    tag_172:\n        /* \"#utility.yul\":7590:7591   */\n      0x01\n        /* \"#utility.yul\":7583:7588   */\n      dup2\n        /* \"#utility.yul\":7579:7592   */\n      add\n        /* \"#utility.yul\":7570:7592   */\n      swap1\n      pop\n        /* \"#utility.yul\":7546:7666   */\n      jump(tag_169)\n    tag_171:\n        /* \"#utility.yul\":7486:7672   */\n      pop\n      pop\n      jump\t// out\n        /* \"#utility.yul\":7678:8221   */\n    tag_76:\n        /* \"#utility.yul\":7779:7781   */\n      0x1f\n        /* \"#utility.yul\":7774:7777   */\n      dup3\n        /* \"#utility.yul\":7771:7782   */\n      gt\n        /* \"#utility.yul\":7768:8214   */\n      iszero\n      tag_174\n      jumpi\n        /* \"#utility.yul\":7813:7851   */\n      tag_175\n        /* \"#utility.yul\":7845:7850   */\n      dup2\n        /* \"#utility.yul\":7813:7851   */\n      tag_65\n      jump\t// in\n    tag_175:\n        /* \"#utility.yul\":7897:7926   */\n      tag_176\n        /* \"#utility.yul\":7915:7925   */\n      dup5\n        /* \"#utility.yul\":7897:7926   */\n      tag_66\n      jump\t// in\n    tag_176:\n        /* \"#utility.yul\":7887:7895   */\n      dup2\n        /* \"#utility.yul\":7883:7927   */\n      add\n        /* \"#utility.yul\":8080:8082   */\n      0x20\n        /* \"#utility.yul\":8068:8078   */\n      dup6\n        /* \"#utility.yul\":8065:8083   */\n      lt\n        /* \"#utility.yul\":8062:8111   */\n      iszero\n      tag_177\n      jumpi\n        /* \"#utility.yul\":8101:8109   */\n      dup2\n        /* \"#utility.yul\":8086:8109   */\n      swap1\n      pop\n        /* \"#utility.yul\":8062:8111   */\n    tag_177:\n        /* \"#utility.yul\":8124:8204   */\n      tag_178\n        /* \"#utility.yul\":8180:8202   */\n      tag_179\n        /* \"#utility.yul\":8198:8201   */\n      dup6\n        /* \"#utility.yul\":8180:8202   */\n      tag_66\n      jump\t// in\n    tag_179:\n        /* \"#utility.yul\":8170:8178   */\n      dup4\n        /* \"#utility.yul\":8166:8203   */\n      add\n        /* \"#utility.yul\":8153:8164   */\n      dup3\n        /* \"#utility.yul\":8124:8204   */\n      tag_75\n      jump\t// in\n    tag_178:\n        /* \"#utility.yul\":7783:8214   */\n      pop\n      pop\n        /* \"#utility.yul\":7768:8214   */\n    tag_174:\n        /* \"#utility.yul\":7678:8221   */\n      pop\n      pop\n      pop\n      jump\t// out\n        /* \"#utility.yul\":8227:8344   */\n    tag_77:\n        /* \"#utility.yul\":8281:8289   */\n      0x00\n        /* \"#utility.yul\":8331:8336   */\n      dup3\n        /* \"#utility.yul\":8325:8329   */\n      dup3\n        /* \"#utility.yul\":8321:8337   */\n      shr\n        /* \"#utility.yul\":8300:8337   */\n      swap1\n      pop\n        /* \"#utility.yul\":8227:8344   */\n      swap3\n      swap2\n      pop\n      pop\n      jump\t// out\n        /* \"#utility.yul\":8350:8519   */\n    tag_78:\n        /* \"#utility.yul\":8394:8400   */\n      0x00\n        /* \"#utility.yul\":8427:8478   */\n      tag_182\n        /* \"#utility.yul\":8475:8476   */\n      0x00\n        /* \"#utility.yul\":8471:8477   */\n      not\n        /* \"#utility.yul\":8463:8468   */\n      dup5\n        /* \"#utility.yul\":8460:8461   */\n      0x08\n        /* \"#utility.yul\":8456:8469   */\n      mul\n        /* \"#utility.yul\":8427:8478   */\n      tag_77\n      jump\t// in\n    tag_182:\n        /* \"#utility.yul\":8423:8479   */\n      not\n        /* \"#utility.yul\":8508:8512   */\n      dup1\n        /* \"#utility.yul\":8502:8506   */\n      dup4\n        /* \"#utility.yul\":8498:8513   */\n      and\n        /* \"#utility.yul\":8488:8513   */\n      swap2\n      pop\n        /* \"#utility.yul\":8401:8519   */\n      pop\n        /* \"#utility.yul\":8350:8519   */\n      swap3\n      swap2\n      pop\n      pop\n      jump\t// out\n        /* \"#utility.yul\":8524:8819   */\n    tag_79:\n        /* \"#utility.yul\":8600:8604   */\n      0x00\n        /* \"#utility.yul\":8746:8775   */\n      tag_184\n        /* \"#utility.yul\":8771:8774   */\n      dup4\n        /* \"#utility.yul\":8765:8769   */\n      dup4\n        /* \"#utility.yul\":8746:8775   */\n      tag_78\n      jump\t// in\n    tag_184:\n        /* \"#utility.yul\":8738:8775   */\n      swap2\n      pop\n        /* \"#utility.yul\":8808:8811   */\n      dup3\n        /* \"#utility.yul\":8805:8806   */\n      0x02\n        /* \"#utility.yul\":8801:8812   */\n      mul\n        /* \"#utility.yul\":8795:8799   */\n      dup3\n        /* \"#utility.yul\":8792:8813   */\n      or\n        /* \"#utility.yul\":8784:8813   */\n      swap1\n      pop\n        /* \"#utility.yul\":8524:8819   */\n      swap3\n      swap2\n      pop\n      pop\n      jump\t// out\n        /* \"#utility.yul\":8824:10219   */\n    tag_33:\n        /* \"#utility.yul\":8941:8978   */\n      tag_186\n        /* \"#utility.yul\":8974:8977   */\n      dup3\n        /* \"#utility.yul\":8941:8978   */\n      tag_45\n      jump\t// in\n    tag_186:\n        /* \"#utility.yul\":9043:9061   */\n      0xffffffffffffffff\n        /* \"#utility.yul\":9035:9041   */\n      dup2\n        /* \"#utility.yul\":9032:9062   */\n      gt\n        /* \"#utility.yul\":9029:9085   */\n      iszero\n      tag_187\n      jumpi\n        /* \"#utility.yul\":9065:9083   */\n      tag_188\n      tag_57\n      jump\t// in\n    tag_188:\n        /* \"#utility.yul\":9029:9085   */\n    tag_187:\n        /* \"#utility.yul\":9109:9147   */\n      tag_189\n        /* \"#utility.yul\":9141:9145   */\n      dup3\n        /* \"#utility.yul\":9135:9146   */\n      sload\n        /* \"#utility.yul\":9109:9147   */\n      tag_25\n      jump\t// in\n    tag_189:\n        /* \"#utility.yul\":9194:9261   */\n      tag_190\n        /* \"#utility.yul\":9254:9260   */\n      dup3\n        /* \"#utility.yul\":9246:9252   */\n      dup3\n        /* \"#utility.yul\":9240:9244   */\n      dup6\n        /* \"#utility.yul\":9194:9261   */\n      tag_76\n      jump\t// in\n    tag_190:\n        /* \"#utility.yul\":9288:9289   */\n      0x00\n        /* \"#utility.yul\":9312:9316   */\n      0x20\n        /* \"#utility.yul\":9299:9316   */\n      swap1\n      pop\n        /* \"#utility.yul\":9344:9346   */\n      0x1f\n        /* \"#utility.yul\":9336:9342   */\n      dup4\n        /* \"#utility.yul\":9333:9347   */\n      gt\n        /* \"#utility.yul\":9361:9362   */\n      0x01\n        /* \"#utility.yul\":9356:9974   */\n      dup2\n      eq\n      tag_192\n      jumpi\n        /* \"#utility.yul\":10018:10019   */\n      0x00\n        /* \"#utility.yul\":10035:10041   */\n      dup5\n        /* \"#utility.yul\":10032:10109   */\n      iszero\n      tag_193\n      jumpi\n        /* \"#utility.yul\":10084:10093   */\n      dup3\n        /* \"#utility.yul\":10079:10082   */\n      dup8\n        /* \"#utility.yul\":10075:10094   */\n      add\n        /* \"#utility.yul\":10069:10095   */\n      mload\n        /* \"#utility.yul\":10060:10095   */\n      swap1\n      pop\n        /* \"#utility.yul\":10032:10109   */\n    tag_193:\n        /* \"#utility.yul\":10135:10202   */\n      tag_194\n        /* \"#utility.yul\":10195:10201   */\n      dup6\n        /* \"#utility.yul\":10188:10193   */\n      dup3\n        /* \"#utility.yul\":10135:10202   */\n      tag_79\n      jump\t// in\n    tag_194:\n        /* \"#utility.yul\":10129:10133   */\n      dup7\n        /* \"#utility.yul\":10122:10203   */\n      sstore\n        /* \"#utility.yul\":9991:10213   */\n      pop\n        /* \"#utility.yul\":9326:10213   */\n      jump(tag_191)\n        /* \"#utility.yul\":9356:9974   */\n    tag_192:\n        /* \"#utility.yul\":9408:9412   */\n      0x1f\n        /* \"#utility.yul\":9404:9413   */\n      not\n        /* \"#utility.yul\":9396:9402   */\n      dup5\n        /* \"#utility.yul\":9392:9414   */\n      and\n        /* \"#utility.yul\":9442:9479   */\n      tag_195\n        /* \"#utility.yul\":9474:9478   */\n      dup7\n        /* \"#utility.yul\":9442:9479   */\n      tag_65\n      jump\t// in\n    tag_195:\n        /* \"#utility.yul\":9501:9502   */\n      0x00\n        /* \"#utility.yul\":9515:9723   */\n    tag_196:\n        /* \"#utility.yul\":9529:9536   */\n      dup3\n        /* \"#utility.yul\":9526:9527   */\n      dup2\n        /* \"#utility.yul\":9523:9537   */\n      lt\n        /* \"#utility.yul\":9515:9723   */\n      iszero\n      tag_198\n      jumpi\n        /* \"#utility.yul\":9608:9617   */\n      dup5\n        /* \"#utility.yul\":9603:9606   */\n      dup10\n        /* \"#utility.yul\":9599:9618   */\n      add\n        /* \"#utility.yul\":9593:9619   */\n      mload\n        /* \"#utility.yul\":9585:9591   */\n      dup3\n        /* \"#utility.yul\":9578:9620   */\n      sstore\n        /* \"#utility.yul\":9659:9660   */\n      0x01\n        /* \"#utility.yul\":9651:9657   */\n      dup3\n        /* \"#utility.yul\":9647:9661   */\n      add\n        /* \"#utility.yul\":9637:9661   */\n      swap2\n      pop\n        /* \"#utility.yul\":9706:9708   */\n      0x20\n        /* \"#utility.yul\":9695:9704   */\n      dup6\n        /* \"#utility.yul\":9691:9709   */\n      add\n        /* \"#utility.yul\":9678:9709   */\n      swap5\n      pop\n        /* \"#utility.yul\":9552:9556   */\n      0x20\n        /* \"#utility.yul\":9549:9550   */\n      dup2\n        /* \"#utility.yul\":9545:9557   */\n      add\n        /* \"#utility.yul\":9540:9557   */\n      swap1\n      pop\n        /* \"#utility.yul\":9515:9723   */\n      jump(tag_196)\n    tag_198:\n        /* \"#utility.yul\":9751:9757   */\n      dup7\n        /* \"#utility.yul\":9742:9749   */\n      dup4\n        /* \"#utility.yul\":9739:9758   */\n      lt\n        /* \"#utility.yul\":9736:9915   */\n      iszero\n      tag_199\n      jumpi\n        /* \"#utility.yul\":9809:9818   */\n      dup5\n        /* \"#utility.yul\":9804:9807   */\n      dup10\n        /* \"#utility.yul\":9800:9819   */\n      add\n        /* \"#utility.yul\":9794:9820   */\n      mload\n        /* \"#utility.yul\":9852:9900   */\n      tag_200\n        /* \"#utility.yul\":9894:9898   */\n      0x1f\n        /* \"#utility.yul\":9886:9892   */\n      dup10\n        /* \"#utility.yul\":9882:9899   */\n      and\n        /* \"#utility.yul\":9871:9880   */\n      dup3\n        /* \"#utility.yul\":9852:9900   */\n      tag_78\n      jump\t// in\n    tag_200:\n        /* \"#utility.yul\":9844:9850   */\n      dup4\n        /* \"#utility.yul\":9837:9901   */\n      sstore\n        /* \"#utility.yul\":9759:9915   */\n      pop\n        /* \"#utility.yul\":9736:9915   */\n    tag_199:\n        /* \"#utility.yul\":9961:9962   */\n      0x01\n        /* \"#utility.yul\":9957:9958   */\n      0x02\n        /* \"#utility.yul\":9949:9955   */\n      dup9\n        /* \"#utility.yul\":9945:9959   */\n      mul\n        /* \"#utility.yul\":9941:9963   */\n      add\n        /* \"#utility.yul\":9935:9939   */\n      dup9\n        /* \"#utility.yul\":9928:9964   */\n      sstore\n        /* \"#utility.yul\":9363:9974   */\n      pop\n      pop\n      pop\n        /* \"#utility.yul\":9326:10213   */\n    tag_191:\n      pop\n        /* \"#utility.yul\":8916:10219   */\n      pop\n      pop\n      pop\n        /* \"#utility.yul\":8824:10219   */\n      pop\n      pop\n      jump\t// out\n\n    auxdata: 0xa26469706673582212205acb4c488fb9eec26bf380c879b451446737a1e96499201eba8334bc143b64b964736f6c63430008180033\n}\n",
				"bytecode": {
					"linkReferences": {},
					"object": "608060405234801561000f575f80fd5b5061085a8061001d5f395ff3fe608060405234801561000f575f80fd5b506004361061004a575f3560e01c80632e64cec11461004e578063bc832d4e1461006d578063ce89503014610089578063e1ff178a146100ba575b5f80fd5b6100566100d6565b604051610064929190610341565b60405180910390f35b610087600480360381019061008291906104d6565b61016f565b005b6100a3600480360381019061009e9190610530565b6101d0565b6040516100b1929190610341565b60405180910390f35b6100d460048036038101906100cf91906104d6565b610285565b005b5f60605f5460018080546100e990610588565b80601f016020809104026020016040519081016040528092919081815260200182805461011590610588565b80156101605780601f1061013757610100808354040283529160200191610160565b820191905f5260205f20905b81548152906001019060200180831161014357829003601f168201915b50505050509050915091509091565b6002604051806040016040528084815260200183815250908060018154018082558091505060019003905f5260205f2090600202015f909190919091505f820151815f015560208201518160010190816101c99190610755565b5050505050565b600281815481106101df575f80fd5b905f5260205f2090600202015f91509050805f01549080600101805461020490610588565b80601f016020809104026020016040519081016040528092919081815260200182805461023090610588565b801561027b5780601f106102525761010080835404028352916020019161027b565b820191905f5260205f20905b81548152906001019060200180831161025e57829003601f168201915b5050505050905082565b815f81905550806001908161029a9190610755565b505050565b5f819050919050565b6102b18161029f565b82525050565b5f81519050919050565b5f82825260208201905092915050565b5f5b838110156102ee5780820151818401526020810190506102d3565b5f8484015250505050565b5f601f19601f8301169050919050565b5f610313826102b7565b61031d81856102c1565b935061032d8185602086016102d1565b610336816102f9565b840191505092915050565b5f6040820190506103545f8301856102a8565b81810360208301526103668184610309565b90509392505050565b5f604051905090565b5f80fd5b5f80fd5b6103898161029f565b8114610393575f80fd5b50565b5f813590506103a481610380565b92915050565b5f80fd5b5f80fd5b7f4e487b71000000000000000000000000000000000000000000000000000000005f52604160045260245ffd5b6103e8826102f9565b810181811067ffffffffffffffff82111715610407576104066103b2565b5b80604052505050565b5f61041961036f565b905061042582826103df565b919050565b5f67ffffffffffffffff821115610444576104436103b2565b5b61044d826102f9565b9050602081019050919050565b828183375f83830152505050565b5f61047a6104758461042a565b610410565b905082815260208101848484011115610496576104956103ae565b5b6104a184828561045a565b509392505050565b5f82601f8301126104bd576104bc6103aa565b5b81356104cd848260208601610468565b91505092915050565b5f80604083850312156104ec576104eb610378565b5b5f6104f985828601610396565b925050602083013567ffffffffffffffff81111561051a5761051961037c565b5b610526858286016104a9565b9150509250929050565b5f6020828403121561054557610544610378565b5b5f61055284828501610396565b91505092915050565b7f4e487b71000000000000000000000000000000000000000000000000000000005f52602260045260245ffd5b5f600282049050600182168061059f57607f821691505b6020821081036105b2576105b161055b565b5b50919050565b5f819050815f5260205f209050919050565b5f6020601f8301049050919050565b5f82821b905092915050565b5f600883026106147fffffffffffffffffffffffffffffffffffffffffffffffffffffffffffffffff826105d9565b61061e86836105d9565b95508019841693508086168417925050509392505050565b5f819050919050565b5f61065961065461064f8461029f565b610636565b61029f565b9050919050565b5f819050919050565b6106728361063f565b61068661067e82610660565b8484546105e5565b825550505050565b5f90565b61069a61068e565b6106a5818484610669565b505050565b5b818110156106c8576106bd5f82610692565b6001810190506106ab565b5050565b601f82111561070d576106de816105b8565b6106e7846105ca565b810160208510156106f6578190505b61070a610702856105ca565b8301826106aa565b50505b505050565b5f82821c905092915050565b5f61072d5f1984600802610712565b1980831691505092915050565b5f610745838361071e565b9150826002028217905092915050565b61075e826102b7565b67ffffffffffffffff811115610777576107766103b2565b5b6107818254610588565b61078c8282856106cc565b5f60209050601f8311600181146107bd575f84156107ab578287015190505b6107b5858261073a565b86555061081c565b601f1984166107cb866105b8565b5f5b828110156107f2578489015182556001820191506020850194506020810190506107cd565b8683101561080f578489015161080b601f89168261071e565b8355505b6001600288020188555050505b50505050505056fea26469706673582212205acb4c488fb9eec26bf380c879b451446737a1e96499201eba8334bc143b64b964736f6c63430008180033",
					"opcodes": "PUSH1 0x80 PUSH1 0x40 MSTORE CALLVALUE DUP1 ISZERO PUSH2 0xF JUMPI PUSH0 DUP1 REVERT JUMPDEST POP PUSH2 0x85A DUP1 PUSH2 0x1D PUSH0 CODECOPY PUSH0 RETURN INVALID PUSH1 0x80 PUSH1 0x40 MSTORE CALLVALUE DUP1 ISZERO PUSH2 0xF JUMPI PUSH0 DUP1 REVERT JUMPDEST POP PUSH1 0x4 CALLDATASIZE LT PUSH2 0x4A JUMPI PUSH0 CALLDATALOAD PUSH1 0xE0 SHR DUP1 PUSH4 0x2E64CEC1 EQ PUSH2 0x4E JUMPI DUP1 PUSH4 0xBC832D4E EQ PUSH2 0x6D JUMPI DUP1 PUSH4 0xCE895030 EQ PUSH2 0x89 JUMPI DUP1 PUSH4 0xE1FF178A EQ PUSH2 0xBA JUMPI JUMPDEST PUSH0 DUP1 REVERT JUMPDEST PUSH2 0x56 PUSH2 0xD6 JUMP JUMPDEST PUSH1 0x40 MLOAD PUSH2 0x64 SWAP3 SWAP2 SWAP1 PUSH2 0x341 JUMP JUMPDEST PUSH1 0x40 MLOAD DUP1 SWAP2 SUB SWAP1 RETURN JUMPDEST PUSH2 0x87 PUSH1 0x4 DUP1 CALLDATASIZE SUB DUP2 ADD SWAP1 PUSH2 0x82 SWAP2 SWAP1 PUSH2 0x4D6 JUMP JUMPDEST PUSH2 0x16F JUMP JUMPDEST STOP JUMPDEST PUSH2 0xA3 PUSH1 0x4 DUP1 CALLDATASIZE SUB DUP2 ADD SWAP1 PUSH2 0x9E SWAP2 SWAP1 PUSH2 0x530 JUMP JUMPDEST PUSH2 0x1D0 JUMP JUMPDEST PUSH1 0x40 MLOAD PUSH2 0xB1 SWAP3 SWAP2 SWAP1 PUSH2 0x341 JUMP JUMPDEST PUSH1 0x40 MLOAD DUP1 SWAP2 SUB SWAP1 RETURN JUMPDEST PUSH2 0xD4 PUSH1 0x4 DUP1 CALLDATASIZE SUB DUP2 ADD SWAP1 PUSH2 0xCF SWAP2 SWAP1 PUSH2 0x4D6 JUMP JUMPDEST PUSH2 0x285 JUMP JUMPDEST STOP JUMPDEST PUSH0 PUSH1 0x60 PUSH0 SLOAD PUSH1 0x1 DUP1 DUP1 SLOAD PUSH2 0xE9 SWAP1 PUSH2 0x588 JUMP JUMPDEST DUP1 PUSH1 0x1F ADD PUSH1 0x20 DUP1 SWAP2 DIV MUL PUSH1 0x20 ADD PUSH1 0x40 MLOAD SWAP1 DUP2 ADD PUSH1 0x40 MSTORE DUP1 SWAP3 SWAP2 SWAP1 DUP2 DUP2 MSTORE PUSH1 0x20 ADD DUP3 DUP1 SLOAD PUSH2 0x115 SWAP1 PUSH2 0x588 JUMP JUMPDEST DUP1 ISZERO PUSH2 0x160 JUMPI DUP1 PUSH1 0x1F LT PUSH2 0x137 JUMPI PUSH2 0x100 DUP1 DUP4 SLOAD DIV MUL DUP4 MSTORE SWAP2 PUSH1 0x20 ADD SWAP2 PUSH2 0x160 JUMP JUMPDEST DUP3 ADD SWAP2 SWAP1 PUSH0 MSTORE PUSH1 0x20 PUSH0 KECCAK256 SWAP1 JUMPDEST DUP2 SLOAD DUP2 MSTORE SWAP1 PUSH1 0x1 ADD SWAP1 PUSH1 0x20 ADD DUP1 DUP4 GT PUSH2 0x143 JUMPI DUP3 SWAP1 SUB PUSH1 0x1F AND DUP3 ADD SWAP2 JUMPDEST POP POP POP POP POP SWAP1 POP SWAP2 POP SWAP2 POP SWAP1 SWAP2 JUMP JUMPDEST PUSH1 0x2 PUSH1 0x40 MLOAD DUP1 PUSH1 0x40 ADD PUSH1 0x40 MSTORE DUP1 DUP5 DUP2 MSTORE PUSH1 0x20 ADD DUP4 DUP2 MSTORE POP SWAP1 DUP1 PUSH1 0x1 DUP2 SLOAD ADD DUP1 DUP3 SSTORE DUP1 SWAP2 POP POP PUSH1 0x1 SWAP1 SUB SWAP1 PUSH0 MSTORE PUSH1 0x20 PUSH0 KECCAK256 SWAP1 PUSH1 0x2 MUL ADD PUSH0 SWAP1 SWAP2 SWAP1 SWAP2 SWAP1 SWAP2 POP PUSH0 DUP3 ADD MLOAD DUP2 PUSH0 ADD SSTORE PUSH1 0x20 DUP3 ADD MLOAD DUP2 PUSH1 0x1 ADD SWAP1 DUP2 PUSH2 0x1C9 SWAP2 SWAP1 PUSH2 0x755 JUMP JUMPDEST POP POP POP POP POP JUMP JUMPDEST PUSH1 0x2 DUP2 DUP2 SLOAD DUP2 LT PUSH2 0x1DF JUMPI PUSH0 DUP1 REVERT JUMPDEST SWAP1 PUSH0 MSTORE PUSH1 0x20 PUSH0 KECCAK256 SWAP1 PUSH1 0x2 MUL ADD PUSH0 SWAP2 POP SWAP1 POP DUP1 PUSH0 ADD SLOAD SWAP1 DUP1 PUSH1 0x1 ADD DUP1 SLOAD PUSH2 0x204 SWAP1 PUSH2 0x588 JUMP JUMPDEST DUP1 PUSH1 0x1F ADD PUSH1 0x20 DUP1 SWAP2 DIV MUL PUSH1 0x20 ADD PUSH1 0x40 MLOAD SWAP1 DUP2 ADD PUSH1 0x40 MSTORE DUP1 SWAP3 SWAP2 SWAP1 DUP2 DUP2 MSTORE PUSH1 0x20 ADD DUP3 DUP1 SLOAD PUSH2 0x230 SWAP1 PUSH2 0x588 JUMP JUMPDEST DUP1 ISZERO PUSH2 0x27B JUMPI DUP1 PUSH1 0x1F LT PUSH2 0x252 JUMPI PUSH2 0x100 DUP1 DUP4 SLOAD DIV MUL DUP4 MSTORE SWAP2 PUSH1 0x20 ADD SWAP2 PUSH2 0x27B JUMP JUMPDEST DUP3 ADD SWAP2 SWAP1 PUSH0 MSTORE PUSH1 0x20 PUSH0 KECCAK256 SWAP1 JUMPDEST DUP2 SLOAD DUP2 MSTORE SWAP1 PUSH1 0x1 ADD SWAP1 PUSH1 0x20 ADD DUP1 DUP4 GT PUSH2 0x25E JUMPI DUP3 SWAP1 SUB PUSH1 0x1F AND DUP3 ADD SWAP2 JUMPDEST POP POP POP POP POP SWAP1 POP DUP3 JUMP JUMPDEST DUP2 PUSH0 DUP2 SWAP1 SSTORE POP DUP1 PUSH1 0x1 SWAP1 DUP2 PUSH2 0x29A SWAP2 SWAP1 PUSH2 0x755 JUMP JUMPDEST POP POP POP JUMP JUMPDEST PUSH0 DUP2 SWAP1 POP SWAP2 SWAP1 POP JUMP JUMPDEST PUSH2 0x2B1 DUP2 PUSH2 0x29F JUMP JUMPDEST DUP3 MSTORE POP POP JUMP JUMPDEST PUSH0 DUP2 MLOAD SWAP1 POP SWAP2 SWAP1 POP JUMP JUMPDEST PUSH0 DUP3 DUP3 MSTORE PUSH1 0x20 DUP3 ADD SWAP1 POP SWAP3 SWAP2 POP POP JUMP JUMPDEST PUSH0 JUMPDEST DUP4 DUP2 LT ISZERO PUSH2 0x2EE JUMPI DUP1 DUP3 ADD MLOAD DUP2 DUP5 ADD MSTORE PUSH1 0x20 DUP2 ADD SWAP1 POP PUSH2 0x2D3 JUMP JUMPDEST PUSH0 DUP5 DUP5 ADD MSTORE POP POP POP POP JUMP JUMPDEST PUSH0 PUSH1 0x1F NOT PUSH1 0x1F DUP4 ADD AND SWAP1 POP SWAP2 SWAP1 POP JUMP JUMPDEST PUSH0 PUSH2 0x313 DUP3 PUSH2 0x2B7 JUMP JUMPDEST PUSH2 0x31D DUP2 DUP6 PUSH2 0x2C1 JUMP JUMPDEST SWAP4 POP PUSH2 0x32D DUP2 DUP6 PUSH1 0x20 DUP7 ADD PUSH2 0x2D1 JUMP JUMPDEST PUSH2 0x336 DUP2 PUSH2 0x2F9 JUMP JUMPDEST DUP5 ADD SWAP2 POP POP SWAP3 SWAP2 POP POP JUMP JUMPDEST PUSH0 PUSH1 0x40 DUP3 ADD SWAP1 POP PUSH2 0x354 PUSH0 DUP4 ADD DUP6 PUSH2 0x2A8 JUMP JUMPDEST DUP2 DUP2 SUB PUSH1 0x20 DUP4 ADD MSTORE PUSH2 0x366 DUP2 DUP5 PUSH2 0x309 JUMP JUMPDEST SWAP1 POP SWAP4 SWAP3 POP POP POP JUMP JUMPDEST PUSH0 PUSH1 0x40 MLOAD SWAP1 POP SWAP1 JUMP JUMPDEST PUSH0 DUP1 REVERT JUMPDEST PUSH0 DUP1 REVERT JUMPDEST PUSH2 0x389 DUP2 PUSH2 0x29F JUMP JUMPDEST DUP2 EQ PUSH2 0x393 JUMPI PUSH0 DUP1 REVERT JUMPDEST POP JUMP JUMPDEST PUSH0 DUP2 CALLDATALOAD SWAP1 POP PUSH2 0x3A4 DUP2 PUSH2 0x380 JUMP JUMPDEST SWAP3 SWAP2 POP POP JUMP JUMPDEST PUSH0 DUP1 REVERT JUMPDEST PUSH0 DUP1 REVERT JUMPDEST PUSH32 0x4E487B7100000000000000000000000000000000000000000000000000000000 PUSH0 MSTORE PUSH1 0x41 PUSH1 0x4 MSTORE PUSH1 0x24 PUSH0 REVERT JUMPDEST PUSH2 0x3E8 DUP3 PUSH2 0x2F9 JUMP JUMPDEST DUP2 ADD DUP2 DUP2 LT PUSH8 0xFFFFFFFFFFFFFFFF DUP3 GT OR ISZERO PUSH2 0x407 JUMPI PUSH2 0x406 PUSH2 0x3B2 JUMP JUMPDEST JUMPDEST DUP1 PUSH1 0x40 MSTORE POP POP POP JUMP JUMPDEST PUSH0 PUSH2 0x419 PUSH2 0x36F JUMP JUMPDEST SWAP1 POP PUSH2 0x425 DUP3 DUP3 PUSH2 0x3DF JUMP JUMPDEST SWAP2 SWAP1 POP JUMP JUMPDEST PUSH0 PUSH8 0xFFFFFFFFFFFFFFFF DUP3 GT ISZERO PUSH2 0x444 JUMPI PUSH2 0x443 PUSH2 0x3B2 JUMP JUMPDEST JUMPDEST PUSH2 0x44D DUP3 PUSH2 0x2F9 JUMP JUMPDEST SWAP1 POP PUSH1 0x20 DUP2 ADD SWAP1 POP SWAP2 SWAP1 POP JUMP JUMPDEST DUP3 DUP2 DUP4 CALLDATACOPY PUSH0 DUP4 DUP4 ADD MSTORE POP POP POP JUMP JUMPDEST PUSH0 PUSH2 0x47A PUSH2 0x475 DUP5 PUSH2 0x42A JUMP JUMPDEST PUSH2 0x410 JUMP JUMPDEST SWAP1 POP DUP3 DUP2 MSTORE PUSH1 0x20 DUP2 ADD DUP5 DUP5 DUP5 ADD GT ISZERO PUSH2 0x496 JUMPI PUSH2 0x495 PUSH2 0x3AE JUMP JUMPDEST JUMPDEST PUSH2 0x4A1 DUP5 DUP3 DUP6 PUSH2 0x45A JUMP JUMPDEST POP SWAP4 SWAP3 POP POP POP JUMP JUMPDEST PUSH0 DUP3 PUSH1 0x1F DUP4 ADD SLT PUSH2 0x4BD JUMPI PUSH2 0x4BC PUSH2 0x3AA JUMP JUMPDEST JUMPDEST DUP2 CALLDATALOAD PUSH2 0x4CD DUP5 DUP3 PUSH1 0x20 DUP7 ADD PUSH2 0x468 JUMP JUMPDEST SWAP2 POP POP SWAP3 SWAP2 POP POP JUMP JUMPDEST PUSH0 DUP1 PUSH1 0x40 DUP4 DUP6 SUB SLT ISZERO PUSH2 0x4EC JUMPI PUSH2 0x4EB PUSH2 0x378 JUMP JUMPDEST JUMPDEST PUSH0 PUSH2 0x4F9 DUP6 DUP3 DUP7 ADD PUSH2 0x396 JUMP JUMPDEST SWAP3 POP POP PUSH1 0x20 DUP4 ADD CALLDATALOAD PUSH8 0xFFFFFFFFFFFFFFFF DUP2 GT ISZERO PUSH2 0x51A JUMPI PUSH2 0x519 PUSH2 0x37C JUMP JUMPDEST JUMPDEST PUSH2 0x526 DUP6 DUP3 DUP7 ADD PUSH2 0x4A9 JUMP JUMPDEST SWAP2 POP POP SWAP3 POP SWAP3 SWAP1 POP JUMP JUMPDEST PUSH0 PUSH1 0x20 DUP3 DUP5 SUB SLT ISZERO PUSH2 0x545 JUMPI PUSH2 0x544 PUSH2 0x378 JUMP JUMPDEST JUMPDEST PUSH0 PUSH2 0x552 DUP5 DUP3 DUP6 ADD PUSH2 0x396 JUMP JUMPDEST SWAP2 POP POP SWAP3 SWAP2 POP POP JUMP JUMPDEST PUSH32 0x4E487B7100000000000000000000000000000000000000000000000000000000 PUSH0 MSTORE PUSH1 0x22 PUSH1 0x4 MSTORE PUSH1 0x24 PUSH0 REVERT JUMPDEST PUSH0 PUSH1 0x2 DUP3 DIV SWAP1 POP PUSH1 0x1 DUP3 AND DUP1 PUSH2 0x59F JUMPI PUSH1 0x7F DUP3 AND SWAP2 POP JUMPDEST PUSH1 0x20 DUP3 LT DUP2 SUB PUSH2 0x5B2 JUMPI PUSH2 0x5B1 PUSH2 0x55B JUMP JUMPDEST JUMPDEST POP SWAP2 SWAP1 POP JUMP JUMPDEST PUSH0 DUP2 SWAP1 POP DUP2 PUSH0 MSTORE PUSH1 0x20 PUSH0 KECCAK256 SWAP1 POP SWAP2 SWAP1 POP JUMP JUMPDEST PUSH0 PUSH1 0x20 PUSH1 0x1F DUP4 ADD DIV SWAP1 POP SWAP2 SWAP1 POP JUMP JUMPDEST PUSH0 DUP3 DUP3 SHL SWAP1 POP SWAP3 SWAP2 POP POP JUMP JUMPDEST PUSH0 PUSH1 0x8 DUP4 MUL PUSH2 0x614 PUSH32 0xFFFFFFFFFFFFFFFFFFFFFFFFFFFFFFFFFFFFFFFFFFFFFFFFFFFFFFFFFFFFFFFF DUP3 PUSH2 0x5D9 JUMP JUMPDEST PUSH2 0x61E DUP7 DUP4 PUSH2 0x5D9 JUMP JUMPDEST SWAP6 POP DUP1 NOT DUP5 AND SWAP4 POP DUP1 DUP7 AND DUP5 OR SWAP3 POP POP POP SWAP4 SWAP3 POP POP POP JUMP JUMPDEST PUSH0 DUP2 SWAP1 POP SWAP2 SWAP1 POP JUMP JUMPDEST PUSH0 PUSH2 0x659 PUSH2 0x654 PUSH2 0x64F DUP5 PUSH2 0x29F JUMP JUMPDEST PUSH2 0x636 JUMP JUMPDEST PUSH2 0x29F JUMP JUMPDEST SWAP1 POP SWAP2 SWAP1 POP JUMP JUMPDEST PUSH0 DUP2 SWAP1 POP SWAP2 SWAP1 POP JUMP JUMPDEST PUSH2 0x672 DUP4 PUSH2 0x63F JUMP JUMPDEST PUSH2 0x686 PUSH2 0x67E DUP3 PUSH2 0x660 JUMP JUMPDEST DUP5 DUP5 SLOAD PUSH2 0x5E5 JUMP JUMPDEST DUP3 SSTORE POP POP POP POP JUMP JUMPDEST PUSH0 SWAP1 JUMP JUMPDEST PUSH2 0x69A PUSH2 0x68E JUMP JUMPDEST PUSH2 0x6A5 DUP2 DUP5 DUP5 PUSH2 0x669 JUMP JUMPDEST POP POP POP JUMP JUMPDEST JUMPDEST DUP2 DUP2 LT ISZERO PUSH2 0x6C8 JUMPI PUSH2 0x6BD PUSH0 DUP3 PUSH2 0x692 JUMP JUMPDEST PUSH1 0x1 DUP2 ADD SWAP1 POP PUSH2 0x6AB JUMP JUMPDEST POP POP JUMP JUMPDEST PUSH1 0x1F DUP3 GT ISZERO PUSH2 0x70D JUMPI PUSH2 0x6DE DUP2 PUSH2 0x5B8 JUMP JUMPDEST PUSH2 0x6E7 DUP5 PUSH2 0x5CA JUMP JUMPDEST DUP2 ADD PUSH1 0x20 DUP6 LT ISZERO PUSH2 0x6F6 JUMPI DUP2 SWAP1 POP JUMPDEST PUSH2 0x70A PUSH2 0x702 DUP6 PUSH2 0x5CA JUMP JUMPDEST DUP4 ADD DUP3 PUSH2 0x6AA JUMP JUMPDEST POP POP JUMPDEST POP POP POP JUMP JUMPDEST PUSH0 DUP3 DUP3 SHR SWAP1 POP SWAP3 SWAP2 POP POP JUMP JUMPDEST PUSH0 PUSH2 0x72D PUSH0 NOT DUP5 PUSH1 0x8 MUL PUSH2 0x712 JUMP JUMPDEST NOT DUP1 DUP4 AND SWAP2 POP POP SWAP3 SWAP2 POP POP JUMP JUMPDEST PUSH0 PUSH2 0x745 DUP4 DUP4 PUSH2 0x71E JUMP JUMPDEST SWAP2 POP DUP3 PUSH1 0x2 MUL DUP3 OR SWAP1 POP SWAP3 SWAP2 POP POP JUMP JUMPDEST PUSH2 0x75E DUP3 PUSH2 0x2B7 JUMP JUMPDEST PUSH8 0xFFFFFFFFFFFFFFFF DUP2 GT ISZERO PUSH2 0x777 JUMPI PUSH2 0x776 PUSH2 0x3B2 JUMP JUMPDEST JUMPDEST PUSH2 0x781 DUP3 SLOAD PUSH2 0x588 JUMP JUMPDEST PUSH2 0x78C DUP3 DUP3 DUP6 PUSH2 0x6CC JUMP JUMPDEST PUSH0 PUSH1 0x20 SWAP1 POP PUSH1 0x1F DUP4 GT PUSH1 0x1 DUP2 EQ PUSH2 0x7BD JUMPI PUSH0 DUP5 ISZERO PUSH2 0x7AB JUMPI DUP3 DUP8 ADD MLOAD SWAP1 POP JUMPDEST PUSH2 0x7B5 DUP6 DUP3 PUSH2 0x73A JUMP JUMPDEST DUP7 SSTORE POP PUSH2 0x81C JUMP JUMPDEST PUSH1 0x1F NOT DUP5 AND PUSH2 0x7CB DUP7 PUSH2 0x5B8 JUMP JUMPDEST PUSH0 JUMPDEST DUP3 DUP2 LT ISZERO PUSH2 0x7F2 JUMPI DUP5 DUP10 ADD MLOAD DUP3 SSTORE PUSH1 0x1 DUP3 ADD SWAP2 POP PUSH1 0x20 DUP6 ADD SWAP5 POP PUSH1 0x20 DUP2 ADD SWAP1 POP PUSH2 0x7CD JUMP JUMPDEST DUP7 DUP4 LT ISZERO PUSH2 0x80F JUMPI DUP5 DUP10 ADD MLOAD PUSH2 0x80B PUSH1 0x1F DUP10 AND DUP3 PUSH2 0x71E JUMP JUMPDEST DUP4 SSTORE POP JUMPDEST PUSH1 0x1 PUSH1 0x2 DUP9 MUL ADD DUP9 SSTORE POP POP POP JUMPDEST POP POP POP POP POP POP JUMP INVALID LOG2 PUSH5 0x6970667358 0x22 SLT KECCAK256 GAS 0xCB 0x4C BASEFEE DUP16 0xB9 0xEE 0xC2 PUSH12 0xF380C879B451446737A1E964 SWAP10 KECCAK256 0x1E 0xBA DUP4 CALLVALUE 0xBC EQ EXTCODESIZE PUSH5 0xB964736F6C PUSH4 0x43000818 STOP CALLER "
				},
				"gasEstimates": {
					"creation": {
						"codeDepositCost": "427600",
						"executionCost": "459",
						"totalCost": "428059"
					},
					"external": {
						"ListofPerson(uint256)": "infinite",
						"addPerson(uint256,string)": "infinite",
						"retrieve()": "infinite",
						"store(uint256,string)": "infinite"
					}
				},
				"methodIdentifiers": {
					"ListofPerson(uint256)": "ce895030",
					"addPerson(uint256,string)": "bc832d4e",
					"retrieve()": "2e64cec1",
					"store(uint256,string)": "e1ff178a"
				}
			},
			"storageLayout": {
				"storage": [
					{
						"astId": 3,
						"contract": "contracts/third.sol:ArrayofNumAndText",
						"label": "Mynumber",
						"offset": 0,
						"slot": "0",
						"type": "t_uint256"
					},
					{
						"astId": 5,
						"contract": "contracts/third.sol:ArrayofNumAndText",
						"label": "Myname",
						"offset": 0,
						"slot": "1",
						"type": "t_string_storage"
					},
					{
						"astId": 14,
						"contract": "contracts/third.sol:ArrayofNumAndText",
						"label": "ListofPerson",
						"offset": 0,
						"slot": "2",
						"type": "t_array(t_struct(Person)10_storage)dyn_storage"
					}
				],
				"types": {
					"t_array(t_struct(Person)10_storage)dyn_storage": {
						"base": "t_struct(Person)10_storage",
						"encoding": "dynamic_array",
						"label": "struct ArrayofNumAndText.Person[]",
						"numberOfBytes": "32"
					},
					"t_string_storage": {
						"encoding": "bytes",
						"label": "string",
						"numberOfBytes": "32"
					},
					"t_struct(Person)10_storage": {
						"encoding": "inplace",
						"label": "struct ArrayofNumAndText.Person",
						"members": [
							{
								"astId": 7,
								"contract": "contracts/third.sol:ArrayofNumAndText",
								"label": "Number",
								"offset": 0,
								"slot": "0",
								"type": "t_uint256"
							},
							{
								"astId": 9,
								"contract": "contracts/third.sol:ArrayofNumAndText",
								"label": "Name",
								"offset": 0,
								"slot": "1",
								"type": "t_string_storage"
							}
						],
						"numberOfBytes": "64"
					},
					"t_uint256": {
						"encoding": "inplace",
						"label": "uint256",
						"numberOfBytes": "32"
					}
				}
			},
			"userdoc": {
				"kind": "user",
				"methods": {},
				"version": 1
			}
		}
	}
}