{
	"contracts/mapping.sol": {
		"Mapping": {
			"abi": [
				{
					"inputs": [
						{
							"internalType": "string",
							"name": "",
							"type": "string"
						}
					],
					"name": "FindNumByText",
					"outputs": [
						{
							"internalType": "uint256",
							"name": "",
							"type": "uint256"
						}
					],
					"stateMutability": "view",
					"type": "function"
				},
				{
					"inputs": [
						{
							"internalType": "uint256",
							"name": "",
							"type": "uint256"
						}
					],
					"name": "ListofAnimals",
					"outputs": [
						{
							"internalType": "string",
							"name": "Name",
							"type": "string"
						},
						{
							"internalType": "uint256",
							"name": "Number",
							"type": "uint256"
						}
					],
					"stateMutability": "view",
					"type": "function"
				},
				{
					"inputs": [
						{
							"internalType": "uint256",
							"name": "_number",
							"type": "uint256"
						},
						{
							"internalType": "string",
							"name": "_name",
							"type": "string"
						}
					],
					"name": "addAnimal",
					"outputs": [],
					"stateMutability": "nonpayable",
					"type": "function"
				},
				{
					"inputs": [],
					"name": "retrieve",
					"outputs": [
						{
							"internalType": "uint256",
							"name": "",
							"type": "uint256"
						},
						{
							"internalType": "string",
							"name": "",
							"type": "string"
						}
					],
					"stateMutability": "view",
					"type": "function"
				},
				{
					"inputs": [
						{
							"internalType": "uint256",
							"name": "_number",
							"type": "uint256"
						},
						{
							"internalType": "string",
							"name": "_name",
							"type": "string"
						}
					],
					"name": "store",
					"outputs": [],
					"stateMutability": "nonpayable",
					"type": "function"
				}
			],
			"devdoc": {
				"kind": "dev",
				"methods": {},
				"version": 1
			},
			"evm": {
				"assembly": "    /* \"contracts/mapping.sol\":254:1212  contract Mapping{... */\n  mstore(0x40, 0x80)\n  callvalue\n  dup1\n  iszero\n  tag_1\n  jumpi\n  0x00\n  dup1\n  revert\ntag_1:\n  pop\n  dataSize(sub_0)\n  dup1\n  dataOffset(sub_0)\n  0x00\n  codecopy\n  0x00\n  return\nstop\n\nsub_0: assembly {\n        /* \"contracts/mapping.sol\":254:1212  contract Mapping{... */\n      mstore(0x40, 0x80)\n      callvalue\n      dup1\n      iszero\n      tag_1\n      jumpi\n      0x00\n      dup1\n      revert\n    tag_1:\n      pop\n      jumpi(tag_2, lt(calldatasize, 0x04))\n      shr(0xe0, calldataload(0x00))\n      dup1\n      0x21cb54e4\n      eq\n      tag_3\n      jumpi\n      dup1\n      0x2e64cec1\n      eq\n      tag_4\n      jumpi\n      dup1\n      0x3c32211b\n      eq\n      tag_5\n      jumpi\n      dup1\n      0x9753c762\n      eq\n      tag_6\n      jumpi\n      dup1\n      0xe1ff178a\n      eq\n      tag_7\n      jumpi\n    tag_2:\n      0x00\n      dup1\n      revert\n        /* \"contracts/mapping.sol\":398:445  mapping(string => uint256) public FindNumByText */\n    tag_3:\n      tag_8\n      0x04\n      dup1\n      calldatasize\n      sub\n      dup2\n      add\n      swap1\n      tag_9\n      swap2\n      swap1\n      tag_10\n      jump\t// in\n    tag_9:\n      tag_11\n      jump\t// in\n    tag_8:\n      mload(0x40)\n      tag_12\n      swap2\n      swap1\n      tag_13\n      jump\t// in\n    tag_12:\n      mload(0x40)\n      dup1\n      swap2\n      sub\n      swap1\n      return\n        /* \"contracts/mapping.sol\":814:920  function retrieve() public view returns(uint256, string memory){... */\n    tag_4:\n      tag_14\n      tag_15\n      jump\t// in\n    tag_14:\n      mload(0x40)\n      tag_16\n      swap3\n      swap2\n      swap1\n      tag_17\n      jump\t// in\n    tag_16:\n      mload(0x40)\n      dup1\n      swap2\n      sub\n      swap1\n      return\n        /* \"contracts/mapping.sol\":928:1209  function addAnimal(uint256 _number,string memory _name) public {... */\n    tag_5:\n      tag_18\n      0x04\n      dup1\n      calldatasize\n      sub\n      dup2\n      add\n      swap1\n      tag_19\n      swap2\n      swap1\n      tag_20\n      jump\t// in\n    tag_19:\n      tag_21\n      jump\t// in\n    tag_18:\n      stop\n        /* \"contracts/mapping.sol\":650:679  Animal[] public ListofAnimals */\n    tag_6:\n      tag_22\n      0x04\n      dup1\n      calldatasize\n      sub\n      dup2\n      add\n      swap1\n      tag_23\n      swap2\n      swap1\n      tag_24\n      jump\t// in\n    tag_23:\n      tag_25\n      jump\t// in\n    tag_22:\n      mload(0x40)\n      tag_26\n      swap3\n      swap2\n      swap1\n      tag_27\n      jump\t// in\n    tag_26:\n      mload(0x40)\n      dup1\n      swap2\n      sub\n      swap1\n      return\n        /* \"contracts/mapping.sol\":690:809  function store(uint256 _number, string memory _name) public {... */\n    tag_7:\n      tag_28\n      0x04\n      dup1\n      calldatasize\n      sub\n      dup2\n      add\n      swap1\n      tag_29\n      swap2\n      swap1\n      tag_20\n      jump\t// in\n    tag_29:\n      tag_30\n      jump\t// in\n    tag_28:\n      stop\n        /* \"contracts/mapping.sol\":398:445  mapping(string => uint256) public FindNumByText */\n    tag_11:\n      0x02\n      dup2\n      dup1\n      mload\n      0x20\n      dup2\n      add\n      dup3\n      add\n      dup1\n      mload\n      dup5\n      dup3\n      mstore\n      0x20\n      dup4\n      add\n      0x20\n      dup6\n      add\n      keccak256\n      dup2\n      dup4\n      mstore\n      dup1\n      swap6\n      pop\n      pop\n      pop\n      pop\n      pop\n      pop\n      0x00\n      swap2\n      pop\n      swap1\n      pop\n      sload\n      dup2\n      jump\t// out\n        /* \"contracts/mapping.sol\":814:920  function retrieve() public view returns(uint256, string memory){... */\n    tag_15:\n        /* \"contracts/mapping.sol\":854:861  uint256 */\n      0x00\n        /* \"contracts/mapping.sol\":863:876  string memory */\n      0x60\n        /* \"contracts/mapping.sol\":896:904  Mynumber */\n      sload(0x00)\n        /* \"contracts/mapping.sol\":905:911  Myname */\n      0x01\n        /* \"contracts/mapping.sol\":888:912  return (Mynumber,Myname) */\n      dup1\n      dup1\n      sload\n      tag_32\n      swap1\n      tag_33\n      jump\t// in\n    tag_32:\n      dup1\n      0x1f\n      add\n      0x20\n      dup1\n      swap2\n      div\n      mul\n      0x20\n      add\n      mload(0x40)\n      swap1\n      dup2\n      add\n      0x40\n      mstore\n      dup1\n      swap3\n      swap2\n      swap1\n      dup2\n      dup2\n      mstore\n      0x20\n      add\n      dup3\n      dup1\n      sload\n      tag_34\n      swap1\n      tag_33\n      jump\t// in\n    tag_34:\n      dup1\n      iszero\n      tag_35\n      jumpi\n      dup1\n      0x1f\n      lt\n      tag_36\n      jumpi\n      0x0100\n      dup1\n      dup4\n      sload\n      div\n      mul\n      dup4\n      mstore\n      swap2\n      0x20\n      add\n      swap2\n      jump(tag_35)\n    tag_36:\n      dup3\n      add\n      swap2\n      swap1\n      0x00\n      mstore\n      keccak256(0x00, 0x20)\n      swap1\n    tag_37:\n      dup2\n      sload\n      dup2\n      mstore\n      swap1\n      0x01\n      add\n      swap1\n      0x20\n      add\n      dup1\n      dup4\n      gt\n      tag_37\n      jumpi\n      dup3\n      swap1\n      sub\n      0x1f\n      and\n      dup3\n      add\n      swap2\n    tag_35:\n      pop\n      pop\n      pop\n      pop\n      pop\n      swap1\n      pop\n      swap2\n      pop\n      swap2\n      pop\n        /* \"contracts/mapping.sol\":814:920  function retrieve() public view returns(uint256, string memory){... */\n      swap1\n      swap2\n      jump\t// out\n        /* \"contracts/mapping.sol\":928:1209  function addAnimal(uint256 _number,string memory _name) public {... */\n    tag_21:\n        /* \"contracts/mapping.sol\":1001:1014  ListofAnimals */\n      0x03\n        /* \"contracts/mapping.sol\":1020:1041  Animal(_name,_number) */\n      mload(0x40)\n      dup1\n      0x40\n      add\n      0x40\n      mstore\n      dup1\n        /* \"contracts/mapping.sol\":1027:1032  _name */\n      dup4\n        /* \"contracts/mapping.sol\":1020:1041  Animal(_name,_number) */\n      dup2\n      mstore\n      0x20\n      add\n        /* \"contracts/mapping.sol\":1033:1040  _number */\n      dup5\n        /* \"contracts/mapping.sol\":1020:1041  Animal(_name,_number) */\n      dup2\n      mstore\n      pop\n        /* \"contracts/mapping.sol\":1001:1042  ListofAnimals.push(Animal(_name,_number)) */\n      swap1\n      dup1\n      0x01\n      dup2\n      sload\n      add\n      dup1\n      dup3\n      sstore\n      dup1\n      swap2\n      pop\n      pop\n      0x01\n      swap1\n      sub\n      swap1\n      0x00\n      mstore\n      keccak256(0x00, 0x20)\n      swap1\n      0x02\n      mul\n      add\n      0x00\n      swap1\n      swap2\n      swap1\n      swap2\n      swap1\n      swap2\n      pop\n      0x00\n      dup3\n      add\n      mload\n      dup2\n      0x00\n      add\n      swap1\n      dup2\n      tag_40\n      swap2\n      swap1\n      tag_41\n      jump\t// in\n    tag_40:\n      pop\n      0x20\n      dup3\n      add\n      mload\n      dup2\n      0x01\n      add\n      sstore\n      pop\n      pop\n        /* \"contracts/mapping.sol\":1194:1201  _number */\n      dup2\n        /* \"contracts/mapping.sol\":1172:1185  FindNumByText */\n      0x02\n        /* \"contracts/mapping.sol\":1186:1191  _name */\n      dup3\n        /* \"contracts/mapping.sol\":1172:1192  FindNumByText[_name] */\n      mload(0x40)\n      tag_42\n      swap2\n      swap1\n      tag_43\n      jump\t// in\n    tag_42:\n      swap1\n      dup2\n      mstore\n      0x20\n      add\n      mload(0x40)\n      dup1\n      swap2\n      sub\n      swap1\n      keccak256\n        /* \"contracts/mapping.sol\":1172:1201  FindNumByText[_name] =_number */\n      dup2\n      swap1\n      sstore\n      pop\n        /* \"contracts/mapping.sol\":928:1209  function addAnimal(uint256 _number,string memory _name) public {... */\n      pop\n      pop\n      jump\t// out\n        /* \"contracts/mapping.sol\":650:679  Animal[] public ListofAnimals */\n    tag_25:\n      0x03\n      dup2\n      dup2\n      sload\n      dup2\n      lt\n      tag_44\n      jumpi\n      0x00\n      dup1\n      revert\n    tag_44:\n      swap1\n      0x00\n      mstore\n      keccak256(0x00, 0x20)\n      swap1\n      0x02\n      mul\n      add\n      0x00\n      swap2\n      pop\n      swap1\n      pop\n      dup1\n      0x00\n      add\n      dup1\n      sload\n      tag_46\n      swap1\n      tag_33\n      jump\t// in\n    tag_46:\n      dup1\n      0x1f\n      add\n      0x20\n      dup1\n      swap2\n      div\n      mul\n      0x20\n      add\n      mload(0x40)\n      swap1\n      dup2\n      add\n      0x40\n      mstore\n      dup1\n      swap3\n      swap2\n      swap1\n      dup2\n      dup2\n      mstore\n      0x20\n      add\n      dup3\n      dup1\n      sload\n      tag_47\n      swap1\n      tag_33\n      jump\t// in\n    tag_47:\n      dup1\n      iszero\n      tag_48\n      jumpi\n      dup1\n      0x1f\n      lt\n      tag_49\n      jumpi\n      0x0100\n      dup1\n      dup4\n      sload\n      div\n      mul\n      dup4\n      mstore\n      swap2\n      0x20\n      add\n      swap2\n      jump(tag_48)\n    tag_49:\n      dup3\n      add\n      swap2\n      swap1\n      0x00\n      mstore\n      keccak256(0x00, 0x20)\n      swap1\n    tag_50:\n      dup2\n      sload\n      dup2\n      mstore\n      swap1\n      0x01\n      add\n      swap1\n      0x20\n      add\n      dup1\n      dup4\n      gt\n      tag_50\n      jumpi\n      dup3\n      swap1\n      sub\n      0x1f\n      and\n      dup3\n      add\n      swap2\n    tag_48:\n      pop\n      pop\n      pop\n      pop\n      pop\n      swap1\n      dup1\n      0x01\n      add\n      sload\n      swap1\n      pop\n      dup3\n      jump\t// out\n        /* \"contracts/mapping.sol\":690:809  function store(uint256 _number, string memory _name) public {... */\n    tag_30:\n        /* \"contracts/mapping.sol\":768:775  _number */\n      dup2\n        /* \"contracts/mapping.sol\":759:767  Mynumber */\n      0x00\n        /* \"contracts/mapping.sol\":759:775  Mynumber=_number */\n      dup2\n      swap1\n      sstore\n      pop\n        /* \"contracts/mapping.sol\":784:789  _name */\n      dup1\n        /* \"contracts/mapping.sol\":777:783  Myname */\n      0x01\n        /* \"contracts/mapping.sol\":777:789  Myname=_name */\n      swap1\n      dup2\n      tag_52\n      swap2\n      swap1\n      tag_41\n      jump\t// in\n    tag_52:\n      pop\n        /* \"contracts/mapping.sol\":690:809  function store(uint256 _number, string memory _name) public {... */\n      pop\n      pop\n      jump\t// out\n        /* \"#utility.yul\":7:82   */\n    tag_53:\n        /* \"#utility.yul\":40:46   */\n      0x00\n        /* \"#utility.yul\":73:75   */\n      0x40\n        /* \"#utility.yul\":67:76   */\n      mload\n        /* \"#utility.yul\":57:76   */\n      swap1\n      pop\n        /* \"#utility.yul\":7:82   */\n      swap1\n      jump\t// out\n        /* \"#utility.yul\":88:205   */\n    tag_54:\n        /* \"#utility.yul\":197:198   */\n      0x00\n        /* \"#utility.yul\":194:195   */\n      dup1\n        /* \"#utility.yul\":187:199   */\n      revert\n        /* \"#utility.yul\":211:328   */\n    tag_55:\n        /* \"#utility.yul\":320:321   */\n      0x00\n        /* \"#utility.yul\":317:318   */\n      dup1\n        /* \"#utility.yul\":310:322   */\n      revert\n        /* \"#utility.yul\":334:451   */\n    tag_56:\n        /* \"#utility.yul\":443:444   */\n      0x00\n        /* \"#utility.yul\":440:441   */\n      dup1\n        /* \"#utility.yul\":433:445   */\n      revert\n        /* \"#utility.yul\":457:574   */\n    tag_57:\n        /* \"#utility.yul\":566:567   */\n      0x00\n        /* \"#utility.yul\":563:564   */\n      dup1\n        /* \"#utility.yul\":556:568   */\n      revert\n        /* \"#utility.yul\":580:682   */\n    tag_58:\n        /* \"#utility.yul\":621:627   */\n      0x00\n        /* \"#utility.yul\":672:674   */\n      0x1f\n        /* \"#utility.yul\":668:675   */\n      not\n        /* \"#utility.yul\":663:665   */\n      0x1f\n        /* \"#utility.yul\":656:661   */\n      dup4\n        /* \"#utility.yul\":652:666   */\n      add\n        /* \"#utility.yul\":648:676   */\n      and\n        /* \"#utility.yul\":638:676   */\n      swap1\n      pop\n        /* \"#utility.yul\":580:682   */\n      swap2\n      swap1\n      pop\n      jump\t// out\n        /* \"#utility.yul\":688:868   */\n    tag_59:\n        /* \"#utility.yul\":736:813   */\n      0x4e487b7100000000000000000000000000000000000000000000000000000000\n        /* \"#utility.yul\":733:734   */\n      0x00\n        /* \"#utility.yul\":726:814   */\n      mstore\n        /* \"#utility.yul\":833:837   */\n      0x41\n        /* \"#utility.yul\":830:831   */\n      0x04\n        /* \"#utility.yul\":823:838   */\n      mstore\n        /* \"#utility.yul\":857:861   */\n      0x24\n        /* \"#utility.yul\":854:855   */\n      0x00\n        /* \"#utility.yul\":847:862   */\n      revert\n        /* \"#utility.yul\":874:1155   */\n    tag_60:\n        /* \"#utility.yul\":957:984   */\n      tag_101\n        /* \"#utility.yul\":979:983   */\n      dup3\n        /* \"#utility.yul\":957:984   */\n      tag_58\n      jump\t// in\n    tag_101:\n        /* \"#utility.yul\":949:955   */\n      dup2\n        /* \"#utility.yul\":945:985   */\n      add\n        /* \"#utility.yul\":1087:1093   */\n      dup2\n        /* \"#utility.yul\":1075:1085   */\n      dup2\n        /* \"#utility.yul\":1072:1094   */\n      lt\n        /* \"#utility.yul\":1051:1069   */\n      0xffffffffffffffff\n        /* \"#utility.yul\":1039:1049   */\n      dup3\n        /* \"#utility.yul\":1036:1070   */\n      gt\n        /* \"#utility.yul\":1033:1095   */\n      or\n        /* \"#utility.yul\":1030:1118   */\n      iszero\n      tag_102\n      jumpi\n        /* \"#utility.yul\":1098:1116   */\n      tag_103\n      tag_59\n      jump\t// in\n    tag_103:\n        /* \"#utility.yul\":1030:1118   */\n    tag_102:\n        /* \"#utility.yul\":1138:1148   */\n      dup1\n        /* \"#utility.yul\":1134:1136   */\n      0x40\n        /* \"#utility.yul\":1127:1149   */\n      mstore\n        /* \"#utility.yul\":917:1155   */\n      pop\n        /* \"#utility.yul\":874:1155   */\n      pop\n      pop\n      jump\t// out\n        /* \"#utility.yul\":1161:1290   */\n    tag_61:\n        /* \"#utility.yul\":1195:1201   */\n      0x00\n        /* \"#utility.yul\":1222:1242   */\n      tag_105\n      tag_53\n      jump\t// in\n    tag_105:\n        /* \"#utility.yul\":1212:1242   */\n      swap1\n      pop\n        /* \"#utility.yul\":1251:1284   */\n      tag_106\n        /* \"#utility.yul\":1279:1283   */\n      dup3\n        /* \"#utility.yul\":1271:1277   */\n      dup3\n        /* \"#utility.yul\":1251:1284   */\n      tag_60\n      jump\t// in\n    tag_106:\n        /* \"#utility.yul\":1161:1290   */\n      swap2\n      swap1\n      pop\n      jump\t// out\n        /* \"#utility.yul\":1296:1604   */\n    tag_62:\n        /* \"#utility.yul\":1358:1362   */\n      0x00\n        /* \"#utility.yul\":1448:1466   */\n      0xffffffffffffffff\n        /* \"#utility.yul\":1440:1446   */\n      dup3\n        /* \"#utility.yul\":1437:1467   */\n      gt\n        /* \"#utility.yul\":1434:1490   */\n      iszero\n      tag_108\n      jumpi\n        /* \"#utility.yul\":1470:1488   */\n      tag_109\n      tag_59\n      jump\t// in\n    tag_109:\n        /* \"#utility.yul\":1434:1490   */\n    tag_108:\n        /* \"#utility.yul\":1508:1537   */\n      tag_110\n        /* \"#utility.yul\":1530:1536   */\n      dup3\n        /* \"#utility.yul\":1508:1537   */\n      tag_58\n      jump\t// in\n    tag_110:\n        /* \"#utility.yul\":1500:1537   */\n      swap1\n      pop\n        /* \"#utility.yul\":1592:1596   */\n      0x20\n        /* \"#utility.yul\":1586:1590   */\n      dup2\n        /* \"#utility.yul\":1582:1597   */\n      add\n        /* \"#utility.yul\":1574:1597   */\n      swap1\n      pop\n        /* \"#utility.yul\":1296:1604   */\n      swap2\n      swap1\n      pop\n      jump\t// out\n        /* \"#utility.yul\":1610:1756   */\n    tag_63:\n        /* \"#utility.yul\":1707:1713   */\n      dup3\n        /* \"#utility.yul\":1702:1705   */\n      dup2\n        /* \"#utility.yul\":1697:1700   */\n      dup4\n        /* \"#utility.yul\":1684:1714   */\n      calldatacopy\n        /* \"#utility.yul\":1748:1749   */\n      0x00\n        /* \"#utility.yul\":1739:1745   */\n      dup4\n        /* \"#utility.yul\":1734:1737   */\n      dup4\n        /* \"#utility.yul\":1730:1746   */\n      add\n        /* \"#utility.yul\":1723:1750   */\n      mstore\n        /* \"#utility.yul\":1610:1756   */\n      pop\n      pop\n      pop\n      jump\t// out\n        /* \"#utility.yul\":1762:2187   */\n    tag_64:\n        /* \"#utility.yul\":1840:1845   */\n      0x00\n        /* \"#utility.yul\":1865:1931   */\n      tag_113\n        /* \"#utility.yul\":1881:1930   */\n      tag_114\n        /* \"#utility.yul\":1923:1929   */\n      dup5\n        /* \"#utility.yul\":1881:1930   */\n      tag_62\n      jump\t// in\n    tag_114:\n        /* \"#utility.yul\":1865:1931   */\n      tag_61\n      jump\t// in\n    tag_113:\n        /* \"#utility.yul\":1856:1931   */\n      swap1\n      pop\n        /* \"#utility.yul\":1954:1960   */\n      dup3\n        /* \"#utility.yul\":1947:1952   */\n      dup2\n        /* \"#utility.yul\":1940:1961   */\n      mstore\n        /* \"#utility.yul\":1992:1996   */\n      0x20\n        /* \"#utility.yul\":1985:1990   */\n      dup2\n        /* \"#utility.yul\":1981:1997   */\n      add\n        /* \"#utility.yul\":2030:2033   */\n      dup5\n        /* \"#utility.yul\":2021:2027   */\n      dup5\n        /* \"#utility.yul\":2016:2019   */\n      dup5\n        /* \"#utility.yul\":2012:2028   */\n      add\n        /* \"#utility.yul\":2009:2034   */\n      gt\n        /* \"#utility.yul\":2006:2118   */\n      iszero\n      tag_115\n      jumpi\n        /* \"#utility.yul\":2037:2116   */\n      tag_116\n      tag_57\n      jump\t// in\n    tag_116:\n        /* \"#utility.yul\":2006:2118   */\n    tag_115:\n        /* \"#utility.yul\":2127:2181   */\n      tag_117\n        /* \"#utility.yul\":2174:2180   */\n      dup5\n        /* \"#utility.yul\":2169:2172   */\n      dup3\n        /* \"#utility.yul\":2164:2167   */\n      dup6\n        /* \"#utility.yul\":2127:2181   */\n      tag_63\n      jump\t// in\n    tag_117:\n        /* \"#utility.yul\":1846:2187   */\n      pop\n        /* \"#utility.yul\":1762:2187   */\n      swap4\n      swap3\n      pop\n      pop\n      pop\n      jump\t// out\n        /* \"#utility.yul\":2207:2547   */\n    tag_65:\n        /* \"#utility.yul\":2263:2268   */\n      0x00\n        /* \"#utility.yul\":2312:2315   */\n      dup3\n        /* \"#utility.yul\":2305:2309   */\n      0x1f\n        /* \"#utility.yul\":2297:2303   */\n      dup4\n        /* \"#utility.yul\":2293:2310   */\n      add\n        /* \"#utility.yul\":2289:2316   */\n      slt\n        /* \"#utility.yul\":2279:2401   */\n      tag_119\n      jumpi\n        /* \"#utility.yul\":2320:2399   */\n      tag_120\n      tag_56\n      jump\t// in\n    tag_120:\n        /* \"#utility.yul\":2279:2401   */\n    tag_119:\n        /* \"#utility.yul\":2437:2443   */\n      dup2\n        /* \"#utility.yul\":2424:2444   */\n      calldataload\n        /* \"#utility.yul\":2462:2541   */\n      tag_121\n        /* \"#utility.yul\":2537:2540   */\n      dup5\n        /* \"#utility.yul\":2529:2535   */\n      dup3\n        /* \"#utility.yul\":2522:2526   */\n      0x20\n        /* \"#utility.yul\":2514:2520   */\n      dup7\n        /* \"#utility.yul\":2510:2527   */\n      add\n        /* \"#utility.yul\":2462:2541   */\n      tag_64\n      jump\t// in\n    tag_121:\n        /* \"#utility.yul\":2453:2541   */\n      swap2\n      pop\n        /* \"#utility.yul\":2269:2547   */\n      pop\n        /* \"#utility.yul\":2207:2547   */\n      swap3\n      swap2\n      pop\n      pop\n      jump\t// out\n        /* \"#utility.yul\":2553:3062   */\n    tag_10:\n        /* \"#utility.yul\":2622:2628   */\n      0x00\n        /* \"#utility.yul\":2671:2673   */\n      0x20\n        /* \"#utility.yul\":2659:2668   */\n      dup3\n        /* \"#utility.yul\":2650:2657   */\n      dup5\n        /* \"#utility.yul\":2646:2669   */\n      sub\n        /* \"#utility.yul\":2642:2674   */\n      slt\n        /* \"#utility.yul\":2639:2758   */\n      iszero\n      tag_123\n      jumpi\n        /* \"#utility.yul\":2677:2756   */\n      tag_124\n      tag_54\n      jump\t// in\n    tag_124:\n        /* \"#utility.yul\":2639:2758   */\n    tag_123:\n        /* \"#utility.yul\":2825:2826   */\n      0x00\n        /* \"#utility.yul\":2814:2823   */\n      dup3\n        /* \"#utility.yul\":2810:2827   */\n      add\n        /* \"#utility.yul\":2797:2828   */\n      calldataload\n        /* \"#utility.yul\":2855:2873   */\n      0xffffffffffffffff\n        /* \"#utility.yul\":2847:2853   */\n      dup2\n        /* \"#utility.yul\":2844:2874   */\n      gt\n        /* \"#utility.yul\":2841:2958   */\n      iszero\n      tag_125\n      jumpi\n        /* \"#utility.yul\":2877:2956   */\n      tag_126\n      tag_55\n      jump\t// in\n    tag_126:\n        /* \"#utility.yul\":2841:2958   */\n    tag_125:\n        /* \"#utility.yul\":2982:3045   */\n      tag_127\n        /* \"#utility.yul\":3037:3044   */\n      dup5\n        /* \"#utility.yul\":3028:3034   */\n      dup3\n        /* \"#utility.yul\":3017:3026   */\n      dup6\n        /* \"#utility.yul\":3013:3035   */\n      add\n        /* \"#utility.yul\":2982:3045   */\n      tag_65\n      jump\t// in\n    tag_127:\n        /* \"#utility.yul\":2972:3045   */\n      swap2\n      pop\n        /* \"#utility.yul\":2768:3055   */\n      pop\n        /* \"#utility.yul\":2553:3062   */\n      swap3\n      swap2\n      pop\n      pop\n      jump\t// out\n        /* \"#utility.yul\":3068:3145   */\n    tag_66:\n        /* \"#utility.yul\":3105:3112   */\n      0x00\n        /* \"#utility.yul\":3134:3139   */\n      dup2\n        /* \"#utility.yul\":3123:3139   */\n      swap1\n      pop\n        /* \"#utility.yul\":3068:3145   */\n      swap2\n      swap1\n      pop\n      jump\t// out\n        /* \"#utility.yul\":3151:3269   */\n    tag_67:\n        /* \"#utility.yul\":3238:3262   */\n      tag_130\n        /* \"#utility.yul\":3256:3261   */\n      dup2\n        /* \"#utility.yul\":3238:3262   */\n      tag_66\n      jump\t// in\n    tag_130:\n        /* \"#utility.yul\":3233:3236   */\n      dup3\n        /* \"#utility.yul\":3226:3263   */\n      mstore\n        /* \"#utility.yul\":3151:3269   */\n      pop\n      pop\n      jump\t// out\n        /* \"#utility.yul\":3275:3497   */\n    tag_13:\n        /* \"#utility.yul\":3368:3372   */\n      0x00\n        /* \"#utility.yul\":3406:3408   */\n      0x20\n        /* \"#utility.yul\":3395:3404   */\n      dup3\n        /* \"#utility.yul\":3391:3409   */\n      add\n        /* \"#utility.yul\":3383:3409   */\n      swap1\n      pop\n        /* \"#utility.yul\":3419:3490   */\n      tag_132\n        /* \"#utility.yul\":3487:3488   */\n      0x00\n        /* \"#utility.yul\":3476:3485   */\n      dup4\n        /* \"#utility.yul\":3472:3489   */\n      add\n        /* \"#utility.yul\":3463:3469   */\n      dup5\n        /* \"#utility.yul\":3419:3490   */\n      tag_67\n      jump\t// in\n    tag_132:\n        /* \"#utility.yul\":3275:3497   */\n      swap3\n      swap2\n      pop\n      pop\n      jump\t// out\n        /* \"#utility.yul\":3503:3602   */\n    tag_68:\n        /* \"#utility.yul\":3555:3561   */\n      0x00\n        /* \"#utility.yul\":3589:3594   */\n      dup2\n        /* \"#utility.yul\":3583:3595   */\n      mload\n        /* \"#utility.yul\":3573:3595   */\n      swap1\n      pop\n        /* \"#utility.yul\":3503:3602   */\n      swap2\n      swap1\n      pop\n      jump\t// out\n        /* \"#utility.yul\":3608:3777   */\n    tag_69:\n        /* \"#utility.yul\":3692:3703   */\n      0x00\n        /* \"#utility.yul\":3726:3732   */\n      dup3\n        /* \"#utility.yul\":3721:3724   */\n      dup3\n        /* \"#utility.yul\":3714:3733   */\n      mstore\n        /* \"#utility.yul\":3766:3770   */\n      0x20\n        /* \"#utility.yul\":3761:3764   */\n      dup3\n        /* \"#utility.yul\":3757:3771   */\n      add\n        /* \"#utility.yul\":3742:3771   */\n      swap1\n      pop\n        /* \"#utility.yul\":3608:3777   */\n      swap3\n      swap2\n      pop\n      pop\n      jump\t// out\n        /* \"#utility.yul\":3783:4029   */\n    tag_70:\n        /* \"#utility.yul\":3864:3865   */\n      0x00\n        /* \"#utility.yul\":3874:3987   */\n    tag_136:\n        /* \"#utility.yul\":3888:3894   */\n      dup4\n        /* \"#utility.yul\":3885:3886   */\n      dup2\n        /* \"#utility.yul\":3882:3895   */\n      lt\n        /* \"#utility.yul\":3874:3987   */\n      iszero\n      tag_138\n      jumpi\n        /* \"#utility.yul\":3973:3974   */\n      dup1\n        /* \"#utility.yul\":3968:3971   */\n      dup3\n        /* \"#utility.yul\":3964:3975   */\n      add\n        /* \"#utility.yul\":3958:3976   */\n      mload\n        /* \"#utility.yul\":3954:3955   */\n      dup2\n        /* \"#utility.yul\":3949:3952   */\n      dup5\n        /* \"#utility.yul\":3945:3956   */\n      add\n        /* \"#utility.yul\":3938:3977   */\n      mstore\n        /* \"#utility.yul\":3910:3912   */\n      0x20\n        /* \"#utility.yul\":3907:3908   */\n      dup2\n        /* \"#utility.yul\":3903:3913   */\n      add\n        /* \"#utility.yul\":3898:3913   */\n      swap1\n      pop\n        /* \"#utility.yul\":3874:3987   */\n      jump(tag_136)\n    tag_138:\n        /* \"#utility.yul\":4021:4022   */\n      0x00\n        /* \"#utility.yul\":4012:4018   */\n      dup5\n        /* \"#utility.yul\":4007:4010   */\n      dup5\n        /* \"#utility.yul\":4003:4019   */\n      add\n        /* \"#utility.yul\":3996:4023   */\n      mstore\n        /* \"#utility.yul\":3845:4029   */\n      pop\n        /* \"#utility.yul\":3783:4029   */\n      pop\n      pop\n      pop\n      jump\t// out\n        /* \"#utility.yul\":4035:4412   */\n    tag_71:\n        /* \"#utility.yul\":4123:4126   */\n      0x00\n        /* \"#utility.yul\":4151:4190   */\n      tag_140\n        /* \"#utility.yul\":4184:4189   */\n      dup3\n        /* \"#utility.yul\":4151:4190   */\n      tag_68\n      jump\t// in\n    tag_140:\n        /* \"#utility.yul\":4206:4277   */\n      tag_141\n        /* \"#utility.yul\":4270:4276   */\n      dup2\n        /* \"#utility.yul\":4265:4268   */\n      dup6\n        /* \"#utility.yul\":4206:4277   */\n      tag_69\n      jump\t// in\n    tag_141:\n        /* \"#utility.yul\":4199:4277   */\n      swap4\n      pop\n        /* \"#utility.yul\":4286:4351   */\n      tag_142\n        /* \"#utility.yul\":4344:4350   */\n      dup2\n        /* \"#utility.yul\":4339:4342   */\n      dup6\n        /* \"#utility.yul\":4332:4336   */\n      0x20\n        /* \"#utility.yul\":4325:4330   */\n      dup7\n        /* \"#utility.yul\":4321:4337   */\n      add\n        /* \"#utility.yul\":4286:4351   */\n      tag_70\n      jump\t// in\n    tag_142:\n        /* \"#utility.yul\":4376:4405   */\n      tag_143\n        /* \"#utility.yul\":4398:4404   */\n      dup2\n        /* \"#utility.yul\":4376:4405   */\n      tag_58\n      jump\t// in\n    tag_143:\n        /* \"#utility.yul\":4371:4374   */\n      dup5\n        /* \"#utility.yul\":4367:4406   */\n      add\n        /* \"#utility.yul\":4360:4406   */\n      swap2\n      pop\n        /* \"#utility.yul\":4127:4412   */\n      pop\n        /* \"#utility.yul\":4035:4412   */\n      swap3\n      swap2\n      pop\n      pop\n      jump\t// out\n        /* \"#utility.yul\":4418:4841   */\n    tag_17:\n        /* \"#utility.yul\":4559:4563   */\n      0x00\n        /* \"#utility.yul\":4597:4599   */\n      0x40\n        /* \"#utility.yul\":4586:4595   */\n      dup3\n        /* \"#utility.yul\":4582:4600   */\n      add\n        /* \"#utility.yul\":4574:4600   */\n      swap1\n      pop\n        /* \"#utility.yul\":4610:4681   */\n      tag_145\n        /* \"#utility.yul\":4678:4679   */\n      0x00\n        /* \"#utility.yul\":4667:4676   */\n      dup4\n        /* \"#utility.yul\":4663:4680   */\n      add\n        /* \"#utility.yul\":4654:4660   */\n      dup6\n        /* \"#utility.yul\":4610:4681   */\n      tag_67\n      jump\t// in\n    tag_145:\n        /* \"#utility.yul\":4728:4737   */\n      dup2\n        /* \"#utility.yul\":4722:4726   */\n      dup2\n        /* \"#utility.yul\":4718:4738   */\n      sub\n        /* \"#utility.yul\":4713:4715   */\n      0x20\n        /* \"#utility.yul\":4702:4711   */\n      dup4\n        /* \"#utility.yul\":4698:4716   */\n      add\n        /* \"#utility.yul\":4691:4739   */\n      mstore\n        /* \"#utility.yul\":4756:4834   */\n      tag_146\n        /* \"#utility.yul\":4829:4833   */\n      dup2\n        /* \"#utility.yul\":4820:4826   */\n      dup5\n        /* \"#utility.yul\":4756:4834   */\n      tag_71\n      jump\t// in\n    tag_146:\n        /* \"#utility.yul\":4748:4834   */\n      swap1\n      pop\n        /* \"#utility.yul\":4418:4841   */\n      swap4\n      swap3\n      pop\n      pop\n      pop\n      jump\t// out\n        /* \"#utility.yul\":4847:4969   */\n    tag_72:\n        /* \"#utility.yul\":4920:4944   */\n      tag_148\n        /* \"#utility.yul\":4938:4943   */\n      dup2\n        /* \"#utility.yul\":4920:4944   */\n      tag_66\n      jump\t// in\n    tag_148:\n        /* \"#utility.yul\":4913:4918   */\n      dup2\n        /* \"#utility.yul\":4910:4945   */\n      eq\n        /* \"#utility.yul\":4900:4963   */\n      tag_149\n      jumpi\n        /* \"#utility.yul\":4959:4960   */\n      0x00\n        /* \"#utility.yul\":4956:4957   */\n      dup1\n        /* \"#utility.yul\":4949:4961   */\n      revert\n        /* \"#utility.yul\":4900:4963   */\n    tag_149:\n        /* \"#utility.yul\":4847:4969   */\n      pop\n      jump\t// out\n        /* \"#utility.yul\":4975:5114   */\n    tag_73:\n        /* \"#utility.yul\":5021:5026   */\n      0x00\n        /* \"#utility.yul\":5059:5065   */\n      dup2\n        /* \"#utility.yul\":5046:5066   */\n      calldataload\n        /* \"#utility.yul\":5037:5066   */\n      swap1\n      pop\n        /* \"#utility.yul\":5075:5108   */\n      tag_151\n        /* \"#utility.yul\":5102:5107   */\n      dup2\n        /* \"#utility.yul\":5075:5108   */\n      tag_72\n      jump\t// in\n    tag_151:\n        /* \"#utility.yul\":4975:5114   */\n      swap3\n      swap2\n      pop\n      pop\n      jump\t// out\n        /* \"#utility.yul\":5120:5774   */\n    tag_20:\n        /* \"#utility.yul\":5198:5204   */\n      0x00\n        /* \"#utility.yul\":5206:5212   */\n      dup1\n        /* \"#utility.yul\":5255:5257   */\n      0x40\n        /* \"#utility.yul\":5243:5252   */\n      dup4\n        /* \"#utility.yul\":5234:5241   */\n      dup6\n        /* \"#utility.yul\":5230:5253   */\n      sub\n        /* \"#utility.yul\":5226:5258   */\n      slt\n        /* \"#utility.yul\":5223:5342   */\n      iszero\n      tag_153\n      jumpi\n        /* \"#utility.yul\":5261:5340   */\n      tag_154\n      tag_54\n      jump\t// in\n    tag_154:\n        /* \"#utility.yul\":5223:5342   */\n    tag_153:\n        /* \"#utility.yul\":5381:5382   */\n      0x00\n        /* \"#utility.yul\":5406:5459   */\n      tag_155\n        /* \"#utility.yul\":5451:5458   */\n      dup6\n        /* \"#utility.yul\":5442:5448   */\n      dup3\n        /* \"#utility.yul\":5431:5440   */\n      dup7\n        /* \"#utility.yul\":5427:5449   */\n      add\n        /* \"#utility.yul\":5406:5459   */\n      tag_73\n      jump\t// in\n    tag_155:\n        /* \"#utility.yul\":5396:5459   */\n      swap3\n      pop\n        /* \"#utility.yul\":5352:5469   */\n      pop\n        /* \"#utility.yul\":5536:5538   */\n      0x20\n        /* \"#utility.yul\":5525:5534   */\n      dup4\n        /* \"#utility.yul\":5521:5539   */\n      add\n        /* \"#utility.yul\":5508:5540   */\n      calldataload\n        /* \"#utility.yul\":5567:5585   */\n      0xffffffffffffffff\n        /* \"#utility.yul\":5559:5565   */\n      dup2\n        /* \"#utility.yul\":5556:5586   */\n      gt\n        /* \"#utility.yul\":5553:5670   */\n      iszero\n      tag_156\n      jumpi\n        /* \"#utility.yul\":5589:5668   */\n      tag_157\n      tag_55\n      jump\t// in\n    tag_157:\n        /* \"#utility.yul\":5553:5670   */\n    tag_156:\n        /* \"#utility.yul\":5694:5757   */\n      tag_158\n        /* \"#utility.yul\":5749:5756   */\n      dup6\n        /* \"#utility.yul\":5740:5746   */\n      dup3\n        /* \"#utility.yul\":5729:5738   */\n      dup7\n        /* \"#utility.yul\":5725:5747   */\n      add\n        /* \"#utility.yul\":5694:5757   */\n      tag_65\n      jump\t// in\n    tag_158:\n        /* \"#utility.yul\":5684:5757   */\n      swap2\n      pop\n        /* \"#utility.yul\":5479:5767   */\n      pop\n        /* \"#utility.yul\":5120:5774   */\n      swap3\n      pop\n      swap3\n      swap1\n      pop\n      jump\t// out\n        /* \"#utility.yul\":5780:6109   */\n    tag_24:\n        /* \"#utility.yul\":5839:5845   */\n      0x00\n        /* \"#utility.yul\":5888:5890   */\n      0x20\n        /* \"#utility.yul\":5876:5885   */\n      dup3\n        /* \"#utility.yul\":5867:5874   */\n      dup5\n        /* \"#utility.yul\":5863:5886   */\n      sub\n        /* \"#utility.yul\":5859:5891   */\n      slt\n        /* \"#utility.yul\":5856:5975   */\n      iszero\n      tag_160\n      jumpi\n        /* \"#utility.yul\":5894:5973   */\n      tag_161\n      tag_54\n      jump\t// in\n    tag_161:\n        /* \"#utility.yul\":5856:5975   */\n    tag_160:\n        /* \"#utility.yul\":6014:6015   */\n      0x00\n        /* \"#utility.yul\":6039:6092   */\n      tag_162\n        /* \"#utility.yul\":6084:6091   */\n      dup5\n        /* \"#utility.yul\":6075:6081   */\n      dup3\n        /* \"#utility.yul\":6064:6073   */\n      dup6\n        /* \"#utility.yul\":6060:6082   */\n      add\n        /* \"#utility.yul\":6039:6092   */\n      tag_73\n      jump\t// in\n    tag_162:\n        /* \"#utility.yul\":6029:6092   */\n      swap2\n      pop\n        /* \"#utility.yul\":5985:6102   */\n      pop\n        /* \"#utility.yul\":5780:6109   */\n      swap3\n      swap2\n      pop\n      pop\n      jump\t// out\n        /* \"#utility.yul\":6115:6538   */\n    tag_27:\n        /* \"#utility.yul\":6256:6260   */\n      0x00\n        /* \"#utility.yul\":6294:6296   */\n      0x40\n        /* \"#utility.yul\":6283:6292   */\n      dup3\n        /* \"#utility.yul\":6279:6297   */\n      add\n        /* \"#utility.yul\":6271:6297   */\n      swap1\n      pop\n        /* \"#utility.yul\":6343:6352   */\n      dup2\n        /* \"#utility.yul\":6337:6341   */\n      dup2\n        /* \"#utility.yul\":6333:6353   */\n      sub\n        /* \"#utility.yul\":6329:6330   */\n      0x00\n        /* \"#utility.yul\":6318:6327   */\n      dup4\n        /* \"#utility.yul\":6314:6331   */\n      add\n        /* \"#utility.yul\":6307:6354   */\n      mstore\n        /* \"#utility.yul\":6371:6449   */\n      tag_164\n        /* \"#utility.yul\":6444:6448   */\n      dup2\n        /* \"#utility.yul\":6435:6441   */\n      dup6\n        /* \"#utility.yul\":6371:6449   */\n      tag_71\n      jump\t// in\n    tag_164:\n        /* \"#utility.yul\":6363:6449   */\n      swap1\n      pop\n        /* \"#utility.yul\":6459:6531   */\n      tag_165\n        /* \"#utility.yul\":6527:6529   */\n      0x20\n        /* \"#utility.yul\":6516:6525   */\n      dup4\n        /* \"#utility.yul\":6512:6530   */\n      add\n        /* \"#utility.yul\":6503:6509   */\n      dup5\n        /* \"#utility.yul\":6459:6531   */\n      tag_67\n      jump\t// in\n    tag_165:\n        /* \"#utility.yul\":6115:6538   */\n      swap4\n      swap3\n      pop\n      pop\n      pop\n      jump\t// out\n        /* \"#utility.yul\":6544:6724   */\n    tag_74:\n        /* \"#utility.yul\":6592:6669   */\n      0x4e487b7100000000000000000000000000000000000000000000000000000000\n        /* \"#utility.yul\":6589:6590   */\n      0x00\n        /* \"#utility.yul\":6582:6670   */\n      mstore\n        /* \"#utility.yul\":6689:6693   */\n      0x22\n        /* \"#utility.yul\":6686:6687   */\n      0x04\n        /* \"#utility.yul\":6679:6694   */\n      mstore\n        /* \"#utility.yul\":6713:6717   */\n      0x24\n        /* \"#utility.yul\":6710:6711   */\n      0x00\n        /* \"#utility.yul\":6703:6718   */\n      revert\n        /* \"#utility.yul\":6730:7050   */\n    tag_33:\n        /* \"#utility.yul\":6774:6780   */\n      0x00\n        /* \"#utility.yul\":6811:6812   */\n      0x02\n        /* \"#utility.yul\":6805:6809   */\n      dup3\n        /* \"#utility.yul\":6801:6813   */\n      div\n        /* \"#utility.yul\":6791:6813   */\n      swap1\n      pop\n        /* \"#utility.yul\":6858:6859   */\n      0x01\n        /* \"#utility.yul\":6852:6856   */\n      dup3\n        /* \"#utility.yul\":6848:6860   */\n      and\n        /* \"#utility.yul\":6879:6897   */\n      dup1\n        /* \"#utility.yul\":6869:6950   */\n      tag_168\n      jumpi\n        /* \"#utility.yul\":6935:6939   */\n      0x7f\n        /* \"#utility.yul\":6927:6933   */\n      dup3\n        /* \"#utility.yul\":6923:6940   */\n      and\n        /* \"#utility.yul\":6913:6940   */\n      swap2\n      pop\n        /* \"#utility.yul\":6869:6950   */\n    tag_168:\n        /* \"#utility.yul\":6997:6999   */\n      0x20\n        /* \"#utility.yul\":6989:6995   */\n      dup3\n        /* \"#utility.yul\":6986:7000   */\n      lt\n        /* \"#utility.yul\":6966:6984   */\n      dup2\n        /* \"#utility.yul\":6963:7001   */\n      sub\n        /* \"#utility.yul\":6960:7044   */\n      tag_169\n      jumpi\n        /* \"#utility.yul\":7016:7034   */\n      tag_170\n      tag_74\n      jump\t// in\n    tag_170:\n        /* \"#utility.yul\":6960:7044   */\n    tag_169:\n        /* \"#utility.yul\":6781:7050   */\n      pop\n        /* \"#utility.yul\":6730:7050   */\n      swap2\n      swap1\n      pop\n      jump\t// out\n        /* \"#utility.yul\":7056:7197   */\n    tag_75:\n        /* \"#utility.yul\":7105:7109   */\n      0x00\n        /* \"#utility.yul\":7128:7131   */\n      dup2\n        /* \"#utility.yul\":7120:7131   */\n      swap1\n      pop\n        /* \"#utility.yul\":7151:7154   */\n      dup2\n        /* \"#utility.yul\":7148:7149   */\n      0x00\n        /* \"#utility.yul\":7141:7155   */\n      mstore\n        /* \"#utility.yul\":7185:7189   */\n      0x20\n        /* \"#utility.yul\":7182:7183   */\n      0x00\n        /* \"#utility.yul\":7172:7190   */\n      keccak256\n        /* \"#utility.yul\":7164:7190   */\n      swap1\n      pop\n        /* \"#utility.yul\":7056:7197   */\n      swap2\n      swap1\n      pop\n      jump\t// out\n        /* \"#utility.yul\":7203:7296   */\n    tag_76:\n        /* \"#utility.yul\":7240:7246   */\n      0x00\n        /* \"#utility.yul\":7287:7289   */\n      0x20\n        /* \"#utility.yul\":7282:7284   */\n      0x1f\n        /* \"#utility.yul\":7275:7280   */\n      dup4\n        /* \"#utility.yul\":7271:7285   */\n      add\n        /* \"#utility.yul\":7267:7290   */\n      div\n        /* \"#utility.yul\":7257:7290   */\n      swap1\n      pop\n        /* \"#utility.yul\":7203:7296   */\n      swap2\n      swap1\n      pop\n      jump\t// out\n        /* \"#utility.yul\":7302:7409   */\n    tag_77:\n        /* \"#utility.yul\":7346:7354   */\n      0x00\n        /* \"#utility.yul\":7396:7401   */\n      dup3\n        /* \"#utility.yul\":7390:7394   */\n      dup3\n        /* \"#utility.yul\":7386:7402   */\n      shl\n        /* \"#utility.yul\":7365:7402   */\n      swap1\n      pop\n        /* \"#utility.yul\":7302:7409   */\n      swap3\n      swap2\n      pop\n      pop\n      jump\t// out\n        /* \"#utility.yul\":7415:7808   */\n    tag_78:\n        /* \"#utility.yul\":7484:7490   */\n      0x00\n        /* \"#utility.yul\":7534:7535   */\n      0x08\n        /* \"#utility.yul\":7522:7532   */\n      dup4\n        /* \"#utility.yul\":7518:7536   */\n      mul\n        /* \"#utility.yul\":7557:7654   */\n      tag_175\n        /* \"#utility.yul\":7587:7653   */\n      0xffffffffffffffffffffffffffffffffffffffffffffffffffffffffffffffff\n        /* \"#utility.yul\":7576:7585   */\n      dup3\n        /* \"#utility.yul\":7557:7654   */\n      tag_77\n      jump\t// in\n    tag_175:\n        /* \"#utility.yul\":7675:7714   */\n      tag_176\n        /* \"#utility.yul\":7705:7713   */\n      dup7\n        /* \"#utility.yul\":7694:7703   */\n      dup4\n        /* \"#utility.yul\":7675:7714   */\n      tag_77\n      jump\t// in\n    tag_176:\n        /* \"#utility.yul\":7663:7714   */\n      swap6\n      pop\n        /* \"#utility.yul\":7747:7751   */\n      dup1\n        /* \"#utility.yul\":7743:7752   */\n      not\n        /* \"#utility.yul\":7736:7741   */\n      dup5\n        /* \"#utility.yul\":7732:7753   */\n      and\n        /* \"#utility.yul\":7723:7753   */\n      swap4\n      pop\n        /* \"#utility.yul\":7796:7800   */\n      dup1\n        /* \"#utility.yul\":7786:7794   */\n      dup7\n        /* \"#utility.yul\":7782:7801   */\n      and\n        /* \"#utility.yul\":7775:7780   */\n      dup5\n        /* \"#utility.yul\":7772:7802   */\n      or\n        /* \"#utility.yul\":7762:7802   */\n      swap3\n      pop\n        /* \"#utility.yul\":7491:7808   */\n      pop\n      pop\n        /* \"#utility.yul\":7415:7808   */\n      swap4\n      swap3\n      pop\n      pop\n      pop\n      jump\t// out\n        /* \"#utility.yul\":7814:7874   */\n    tag_79:\n        /* \"#utility.yul\":7842:7845   */\n      0x00\n        /* \"#utility.yul\":7863:7868   */\n      dup2\n        /* \"#utility.yul\":7856:7868   */\n      swap1\n      pop\n        /* \"#utility.yul\":7814:7874   */\n      swap2\n      swap1\n      pop\n      jump\t// out\n        /* \"#utility.yul\":7880:8022   */\n    tag_80:\n        /* \"#utility.yul\":7930:7939   */\n      0x00\n        /* \"#utility.yul\":7963:8016   */\n      tag_179\n        /* \"#utility.yul\":7981:8015   */\n      tag_180\n        /* \"#utility.yul\":7990:8014   */\n      tag_181\n        /* \"#utility.yul\":8008:8013   */\n      dup5\n        /* \"#utility.yul\":7990:8014   */\n      tag_66\n      jump\t// in\n    tag_181:\n        /* \"#utility.yul\":7981:8015   */\n      tag_79\n      jump\t// in\n    tag_180:\n        /* \"#utility.yul\":7963:8016   */\n      tag_66\n      jump\t// in\n    tag_179:\n        /* \"#utility.yul\":7950:8016   */\n      swap1\n      pop\n        /* \"#utility.yul\":7880:8022   */\n      swap2\n      swap1\n      pop\n      jump\t// out\n        /* \"#utility.yul\":8028:8103   */\n    tag_81:\n        /* \"#utility.yul\":8071:8074   */\n      0x00\n        /* \"#utility.yul\":8092:8097   */\n      dup2\n        /* \"#utility.yul\":8085:8097   */\n      swap1\n      pop\n        /* \"#utility.yul\":8028:8103   */\n      swap2\n      swap1\n      pop\n      jump\t// out\n        /* \"#utility.yul\":8109:8378   */\n    tag_82:\n        /* \"#utility.yul\":8219:8258   */\n      tag_184\n        /* \"#utility.yul\":8250:8257   */\n      dup4\n        /* \"#utility.yul\":8219:8258   */\n      tag_80\n      jump\t// in\n    tag_184:\n        /* \"#utility.yul\":8280:8371   */\n      tag_185\n        /* \"#utility.yul\":8329:8370   */\n      tag_186\n        /* \"#utility.yul\":8353:8369   */\n      dup3\n        /* \"#utility.yul\":8329:8370   */\n      tag_81\n      jump\t// in\n    tag_186:\n        /* \"#utility.yul\":8321:8327   */\n      dup5\n        /* \"#utility.yul\":8314:8318   */\n      dup5\n        /* \"#utility.yul\":8308:8319   */\n      sload\n        /* \"#utility.yul\":8280:8371   */\n      tag_78\n      jump\t// in\n    tag_185:\n        /* \"#utility.yul\":8274:8278   */\n      dup3\n        /* \"#utility.yul\":8267:8372   */\n      sstore\n        /* \"#utility.yul\":8185:8378   */\n      pop\n        /* \"#utility.yul\":8109:8378   */\n      pop\n      pop\n      pop\n      jump\t// out\n        /* \"#utility.yul\":8384:8457   */\n    tag_83:\n        /* \"#utility.yul\":8429:8432   */\n      0x00\n        /* \"#utility.yul\":8384:8457   */\n      swap1\n      jump\t// out\n        /* \"#utility.yul\":8463:8652   */\n    tag_84:\n        /* \"#utility.yul\":8540:8572   */\n      tag_189\n      tag_83\n      jump\t// in\n    tag_189:\n        /* \"#utility.yul\":8581:8646   */\n      tag_190\n        /* \"#utility.yul\":8639:8645   */\n      dup2\n        /* \"#utility.yul\":8631:8637   */\n      dup5\n        /* \"#utility.yul\":8625:8629   */\n      dup5\n        /* \"#utility.yul\":8581:8646   */\n      tag_82\n      jump\t// in\n    tag_190:\n        /* \"#utility.yul\":8516:8652   */\n      pop\n        /* \"#utility.yul\":8463:8652   */\n      pop\n      pop\n      jump\t// out\n        /* \"#utility.yul\":8658:8844   */\n    tag_85:\n        /* \"#utility.yul\":8718:8838   */\n    tag_192:\n        /* \"#utility.yul\":8735:8738   */\n      dup2\n        /* \"#utility.yul\":8728:8733   */\n      dup2\n        /* \"#utility.yul\":8725:8739   */\n      lt\n        /* \"#utility.yul\":8718:8838   */\n      iszero\n      tag_194\n      jumpi\n        /* \"#utility.yul\":8789:8828   */\n      tag_195\n        /* \"#utility.yul\":8826:8827   */\n      0x00\n        /* \"#utility.yul\":8819:8824   */\n      dup3\n        /* \"#utility.yul\":8789:8828   */\n      tag_84\n      jump\t// in\n    tag_195:\n        /* \"#utility.yul\":8762:8763   */\n      0x01\n        /* \"#utility.yul\":8755:8760   */\n      dup2\n        /* \"#utility.yul\":8751:8764   */\n      add\n        /* \"#utility.yul\":8742:8764   */\n      swap1\n      pop\n        /* \"#utility.yul\":8718:8838   */\n      jump(tag_192)\n    tag_194:\n        /* \"#utility.yul\":8658:8844   */\n      pop\n      pop\n      jump\t// out\n        /* \"#utility.yul\":8850:9393   */\n    tag_86:\n        /* \"#utility.yul\":8951:8953   */\n      0x1f\n        /* \"#utility.yul\":8946:8949   */\n      dup3\n        /* \"#utility.yul\":8943:8954   */\n      gt\n        /* \"#utility.yul\":8940:9386   */\n      iszero\n      tag_197\n      jumpi\n        /* \"#utility.yul\":8985:9023   */\n      tag_198\n        /* \"#utility.yul\":9017:9022   */\n      dup2\n        /* \"#utility.yul\":8985:9023   */\n      tag_75\n      jump\t// in\n    tag_198:\n        /* \"#utility.yul\":9069:9098   */\n      tag_199\n        /* \"#utility.yul\":9087:9097   */\n      dup5\n        /* \"#utility.yul\":9069:9098   */\n      tag_76\n      jump\t// in\n    tag_199:\n        /* \"#utility.yul\":9059:9067   */\n      dup2\n        /* \"#utility.yul\":9055:9099   */\n      add\n        /* \"#utility.yul\":9252:9254   */\n      0x20\n        /* \"#utility.yul\":9240:9250   */\n      dup6\n        /* \"#utility.yul\":9237:9255   */\n      lt\n        /* \"#utility.yul\":9234:9283   */\n      iszero\n      tag_200\n      jumpi\n        /* \"#utility.yul\":9273:9281   */\n      dup2\n        /* \"#utility.yul\":9258:9281   */\n      swap1\n      pop\n        /* \"#utility.yul\":9234:9283   */\n    tag_200:\n        /* \"#utility.yul\":9296:9376   */\n      tag_201\n        /* \"#utility.yul\":9352:9374   */\n      tag_202\n        /* \"#utility.yul\":9370:9373   */\n      dup6\n        /* \"#utility.yul\":9352:9374   */\n      tag_76\n      jump\t// in\n    tag_202:\n        /* \"#utility.yul\":9342:9350   */\n      dup4\n        /* \"#utility.yul\":9338:9375   */\n      add\n        /* \"#utility.yul\":9325:9336   */\n      dup3\n        /* \"#utility.yul\":9296:9376   */\n      tag_85\n      jump\t// in\n    tag_201:\n        /* \"#utility.yul\":8955:9386   */\n      pop\n      pop\n        /* \"#utility.yul\":8940:9386   */\n    tag_197:\n        /* \"#utility.yul\":8850:9393   */\n      pop\n      pop\n      pop\n      jump\t// out\n        /* \"#utility.yul\":9399:9516   */\n    tag_87:\n        /* \"#utility.yul\":9453:9461   */\n      0x00\n        /* \"#utility.yul\":9503:9508   */\n      dup3\n        /* \"#utility.yul\":9497:9501   */\n      dup3\n        /* \"#utility.yul\":9493:9509   */\n      shr\n        /* \"#utility.yul\":9472:9509   */\n      swap1\n      pop\n        /* \"#utility.yul\":9399:9516   */\n      swap3\n      swap2\n      pop\n      pop\n      jump\t// out\n        /* \"#utility.yul\":9522:9691   */\n    tag_88:\n        /* \"#utility.yul\":9566:9572   */\n      0x00\n        /* \"#utility.yul\":9599:9650   */\n      tag_205\n        /* \"#utility.yul\":9647:9648   */\n      0x00\n        /* \"#utility.yul\":9643:9649   */\n      not\n        /* \"#utility.yul\":9635:9640   */\n      dup5\n        /* \"#utility.yul\":9632:9633   */\n      0x08\n        /* \"#utility.yul\":9628:9641   */\n      mul\n        /* \"#utility.yul\":9599:9650   */\n      tag_87\n      jump\t// in\n    tag_205:\n        /* \"#utility.yul\":9595:9651   */\n      not\n        /* \"#utility.yul\":9680:9684   */\n      dup1\n        /* \"#utility.yul\":9674:9678   */\n      dup4\n        /* \"#utility.yul\":9670:9685   */\n      and\n        /* \"#utility.yul\":9660:9685   */\n      swap2\n      pop\n        /* \"#utility.yul\":9573:9691   */\n      pop\n        /* \"#utility.yul\":9522:9691   */\n      swap3\n      swap2\n      pop\n      pop\n      jump\t// out\n        /* \"#utility.yul\":9696:9991   */\n    tag_89:\n        /* \"#utility.yul\":9772:9776   */\n      0x00\n        /* \"#utility.yul\":9918:9947   */\n      tag_207\n        /* \"#utility.yul\":9943:9946   */\n      dup4\n        /* \"#utility.yul\":9937:9941   */\n      dup4\n        /* \"#utility.yul\":9918:9947   */\n      tag_88\n      jump\t// in\n    tag_207:\n        /* \"#utility.yul\":9910:9947   */\n      swap2\n      pop\n        /* \"#utility.yul\":9980:9983   */\n      dup3\n        /* \"#utility.yul\":9977:9978   */\n      0x02\n        /* \"#utility.yul\":9973:9984   */\n      mul\n        /* \"#utility.yul\":9967:9971   */\n      dup3\n        /* \"#utility.yul\":9964:9985   */\n      or\n        /* \"#utility.yul\":9956:9985   */\n      swap1\n      pop\n        /* \"#utility.yul\":9696:9991   */\n      swap3\n      swap2\n      pop\n      pop\n      jump\t// out\n        /* \"#utility.yul\":9996:11391   */\n    tag_41:\n        /* \"#utility.yul\":10113:10150   */\n      tag_209\n        /* \"#utility.yul\":10146:10149   */\n      dup3\n        /* \"#utility.yul\":10113:10150   */\n      tag_68\n      jump\t// in\n    tag_209:\n        /* \"#utility.yul\":10215:10233   */\n      0xffffffffffffffff\n        /* \"#utility.yul\":10207:10213   */\n      dup2\n        /* \"#utility.yul\":10204:10234   */\n      gt\n        /* \"#utility.yul\":10201:10257   */\n      iszero\n      tag_210\n      jumpi\n        /* \"#utility.yul\":10237:10255   */\n      tag_211\n      tag_59\n      jump\t// in\n    tag_211:\n        /* \"#utility.yul\":10201:10257   */\n    tag_210:\n        /* \"#utility.yul\":10281:10319   */\n      tag_212\n        /* \"#utility.yul\":10313:10317   */\n      dup3\n        /* \"#utility.yul\":10307:10318   */\n      sload\n        /* \"#utility.yul\":10281:10319   */\n      tag_33\n      jump\t// in\n    tag_212:\n        /* \"#utility.yul\":10366:10433   */\n      tag_213\n        /* \"#utility.yul\":10426:10432   */\n      dup3\n        /* \"#utility.yul\":10418:10424   */\n      dup3\n        /* \"#utility.yul\":10412:10416   */\n      dup6\n        /* \"#utility.yul\":10366:10433   */\n      tag_86\n      jump\t// in\n    tag_213:\n        /* \"#utility.yul\":10460:10461   */\n      0x00\n        /* \"#utility.yul\":10484:10488   */\n      0x20\n        /* \"#utility.yul\":10471:10488   */\n      swap1\n      pop\n        /* \"#utility.yul\":10516:10518   */\n      0x1f\n        /* \"#utility.yul\":10508:10514   */\n      dup4\n        /* \"#utility.yul\":10505:10519   */\n      gt\n        /* \"#utility.yul\":10533:10534   */\n      0x01\n        /* \"#utility.yul\":10528:11146   */\n      dup2\n      eq\n      tag_215\n      jumpi\n        /* \"#utility.yul\":11190:11191   */\n      0x00\n        /* \"#utility.yul\":11207:11213   */\n      dup5\n        /* \"#utility.yul\":11204:11281   */\n      iszero\n      tag_216\n      jumpi\n        /* \"#utility.yul\":11256:11265   */\n      dup3\n        /* \"#utility.yul\":11251:11254   */\n      dup8\n        /* \"#utility.yul\":11247:11266   */\n      add\n        /* \"#utility.yul\":11241:11267   */\n      mload\n        /* \"#utility.yul\":11232:11267   */\n      swap1\n      pop\n        /* \"#utility.yul\":11204:11281   */\n    tag_216:\n        /* \"#utility.yul\":11307:11374   */\n      tag_217\n        /* \"#utility.yul\":11367:11373   */\n      dup6\n        /* \"#utility.yul\":11360:11365   */\n      dup3\n        /* \"#utility.yul\":11307:11374   */\n      tag_89\n      jump\t// in\n    tag_217:\n        /* \"#utility.yul\":11301:11305   */\n      dup7\n        /* \"#utility.yul\":11294:11375   */\n      sstore\n        /* \"#utility.yul\":11163:11385   */\n      pop\n        /* \"#utility.yul\":10498:11385   */\n      jump(tag_214)\n        /* \"#utility.yul\":10528:11146   */\n    tag_215:\n        /* \"#utility.yul\":10580:10584   */\n      0x1f\n        /* \"#utility.yul\":10576:10585   */\n      not\n        /* \"#utility.yul\":10568:10574   */\n      dup5\n        /* \"#utility.yul\":10564:10586   */\n      and\n        /* \"#utility.yul\":10614:10651   */\n      tag_218\n        /* \"#utility.yul\":10646:10650   */\n      dup7\n        /* \"#utility.yul\":10614:10651   */\n      tag_75\n      jump\t// in\n    tag_218:\n        /* \"#utility.yul\":10673:10674   */\n      0x00\n        /* \"#utility.yul\":10687:10895   */\n    tag_219:\n        /* \"#utility.yul\":10701:10708   */\n      dup3\n        /* \"#utility.yul\":10698:10699   */\n      dup2\n        /* \"#utility.yul\":10695:10709   */\n      lt\n        /* \"#utility.yul\":10687:10895   */\n      iszero\n      tag_221\n      jumpi\n        /* \"#utility.yul\":10780:10789   */\n      dup5\n        /* \"#utility.yul\":10775:10778   */\n      dup10\n        /* \"#utility.yul\":10771:10790   */\n      add\n        /* \"#utility.yul\":10765:10791   */\n      mload\n        /* \"#utility.yul\":10757:10763   */\n      dup3\n        /* \"#utility.yul\":10750:10792   */\n      sstore\n        /* \"#utility.yul\":10831:10832   */\n      0x01\n        /* \"#utility.yul\":10823:10829   */\n      dup3\n        /* \"#utility.yul\":10819:10833   */\n      add\n        /* \"#utility.yul\":10809:10833   */\n      swap2\n      pop\n        /* \"#utility.yul\":10878:10880   */\n      0x20\n        /* \"#utility.yul\":10867:10876   */\n      dup6\n        /* \"#utility.yul\":10863:10881   */\n      add\n        /* \"#utility.yul\":10850:10881   */\n      swap5\n      pop\n        /* \"#utility.yul\":10724:10728   */\n      0x20\n        /* \"#utility.yul\":10721:10722   */\n      dup2\n        /* \"#utility.yul\":10717:10729   */\n      add\n        /* \"#utility.yul\":10712:10729   */\n      swap1\n      pop\n        /* \"#utility.yul\":10687:10895   */\n      jump(tag_219)\n    tag_221:\n        /* \"#utility.yul\":10923:10929   */\n      dup7\n        /* \"#utility.yul\":10914:10921   */\n      dup4\n        /* \"#utility.yul\":10911:10930   */\n      lt\n        /* \"#utility.yul\":10908:11087   */\n      iszero\n      tag_222\n      jumpi\n        /* \"#utility.yul\":10981:10990   */\n      dup5\n        /* \"#utility.yul\":10976:10979   */\n      dup10\n        /* \"#utility.yul\":10972:10991   */\n      add\n        /* \"#utility.yul\":10966:10992   */\n      mload\n        /* \"#utility.yul\":11024:11072   */\n      tag_223\n        /* \"#utility.yul\":11066:11070   */\n      0x1f\n        /* \"#utility.yul\":11058:11064   */\n      dup10\n        /* \"#utility.yul\":11054:11071   */\n      and\n        /* \"#utility.yul\":11043:11052   */\n      dup3\n        /* \"#utility.yul\":11024:11072   */\n      tag_88\n      jump\t// in\n    tag_223:\n        /* \"#utility.yul\":11016:11022   */\n      dup4\n        /* \"#utility.yul\":11009:11073   */\n      sstore\n        /* \"#utility.yul\":10931:11087   */\n      pop\n        /* \"#utility.yul\":10908:11087   */\n    tag_222:\n        /* \"#utility.yul\":11133:11134   */\n      0x01\n        /* \"#utility.yul\":11129:11130   */\n      0x02\n        /* \"#utility.yul\":11121:11127   */\n      dup9\n        /* \"#utility.yul\":11117:11131   */\n      mul\n        /* \"#utility.yul\":11113:11135   */\n      add\n        /* \"#utility.yul\":11107:11111   */\n      dup9\n        /* \"#utility.yul\":11100:11136   */\n      sstore\n        /* \"#utility.yul\":10535:11146   */\n      pop\n      pop\n      pop\n        /* \"#utility.yul\":10498:11385   */\n    tag_214:\n      pop\n        /* \"#utility.yul\":10088:11391   */\n      pop\n      pop\n      pop\n        /* \"#utility.yul\":9996:11391   */\n      pop\n      pop\n      jump\t// out\n        /* \"#utility.yul\":11397:11545   */\n    tag_90:\n        /* \"#utility.yul\":11499:11510   */\n      0x00\n        /* \"#utility.yul\":11536:11539   */\n      dup2\n        /* \"#utility.yul\":11521:11539   */\n      swap1\n      pop\n        /* \"#utility.yul\":11397:11545   */\n      swap3\n      swap2\n      pop\n      pop\n      jump\t// out\n        /* \"#utility.yul\":11551:11941   */\n    tag_91:\n        /* \"#utility.yul\":11657:11660   */\n      0x00\n        /* \"#utility.yul\":11685:11724   */\n      tag_226\n        /* \"#utility.yul\":11718:11723   */\n      dup3\n        /* \"#utility.yul\":11685:11724   */\n      tag_68\n      jump\t// in\n    tag_226:\n        /* \"#utility.yul\":11740:11829   */\n      tag_227\n        /* \"#utility.yul\":11822:11828   */\n      dup2\n        /* \"#utility.yul\":11817:11820   */\n      dup6\n        /* \"#utility.yul\":11740:11829   */\n      tag_90\n      jump\t// in\n    tag_227:\n        /* \"#utility.yul\":11733:11829   */\n      swap4\n      pop\n        /* \"#utility.yul\":11838:11903   */\n      tag_228\n        /* \"#utility.yul\":11896:11902   */\n      dup2\n        /* \"#utility.yul\":11891:11894   */\n      dup6\n        /* \"#utility.yul\":11884:11888   */\n      0x20\n        /* \"#utility.yul\":11877:11882   */\n      dup7\n        /* \"#utility.yul\":11873:11889   */\n      add\n        /* \"#utility.yul\":11838:11903   */\n      tag_70\n      jump\t// in\n    tag_228:\n        /* \"#utility.yul\":11928:11934   */\n      dup1\n        /* \"#utility.yul\":11923:11926   */\n      dup5\n        /* \"#utility.yul\":11919:11935   */\n      add\n        /* \"#utility.yul\":11912:11935   */\n      swap2\n      pop\n        /* \"#utility.yul\":11661:11941   */\n      pop\n        /* \"#utility.yul\":11551:11941   */\n      swap3\n      swap2\n      pop\n      pop\n      jump\t// out\n        /* \"#utility.yul\":11947:12222   */\n    tag_43:\n        /* \"#utility.yul\":12079:12082   */\n      0x00\n        /* \"#utility.yul\":12101:12196   */\n      tag_230\n        /* \"#utility.yul\":12192:12195   */\n      dup3\n        /* \"#utility.yul\":12183:12189   */\n      dup5\n        /* \"#utility.yul\":12101:12196   */\n      tag_91\n      jump\t// in\n    tag_230:\n        /* \"#utility.yul\":12094:12196   */\n      swap2\n      pop\n        /* \"#utility.yul\":12213:12216   */\n      dup2\n        /* \"#utility.yul\":12206:12216   */\n      swap1\n      pop\n        /* \"#utility.yul\":11947:12222   */\n      swap3\n      swap2\n      pop\n      pop\n      jump\t// out\n\n    auxdata: 0xa2646970667358221220e32fdd114f34d010846a856765e051c6b95dd244008c06827a52bd113e6d30f464736f6c63430008180033\n}\n",
				"bytecode": {
					"linkReferences": {},
					"object": "608060405234801561000f575f80fd5b506109c38061001d5f395ff3fe608060405234801561000f575f80fd5b5060043610610055575f3560e01c806321cb54e4146100595780632e64cec1146100895780633c32211b146100a85780639753c762146100c4578063e1ff178a146100f5575b5f80fd5b610073600480360381019061006e9190610477565b610111565b60405161008091906104d6565b60405180910390f35b61009161013e565b60405161009f929190610569565b60405180910390f35b6100c260048036038101906100bd91906105c1565b6101d7565b005b6100de60048036038101906100d9919061061b565b61025b565b6040516100ec929190610646565b60405180910390f35b61010f600480360381019061010a91906105c1565b610310565b005b6002818051602081018201805184825260208301602085012081835280955050505050505f915090505481565b5f60605f546001808054610151906106a1565b80601f016020809104026020016040519081016040528092919081815260200182805461017d906106a1565b80156101c85780601f1061019f576101008083540402835291602001916101c8565b820191905f5260205f20905b8154815290600101906020018083116101ab57829003601f168201915b50505050509050915091509091565b6003604051806040016040528083815260200184815250908060018154018082558091505060019003905f5260205f2090600202015f909190919091505f820151815f019081610227919061086e565b50602082015181600101555050816002826040516102459190610977565b9081526020016040518091039020819055505050565b6003818154811061026a575f80fd5b905f5260205f2090600202015f91509050805f018054610289906106a1565b80601f01602080910402602001604051908101604052809291908181526020018280546102b5906106a1565b80156103005780601f106102d757610100808354040283529160200191610300565b820191905f5260205f20905b8154815290600101906020018083116102e357829003601f168201915b5050505050908060010154905082565b815f819055508060019081610325919061086e565b505050565b5f604051905090565b5f80fd5b5f80fd5b5f80fd5b5f80fd5b5f601f19601f8301169050919050565b7f4e487b71000000000000000000000000000000000000000000000000000000005f52604160045260245ffd5b61038982610343565b810181811067ffffffffffffffff821117156103a8576103a7610353565b5b80604052505050565b5f6103ba61032a565b90506103c68282610380565b919050565b5f67ffffffffffffffff8211156103e5576103e4610353565b5b6103ee82610343565b9050602081019050919050565b828183375f83830152505050565b5f61041b610416846103cb565b6103b1565b9050828152602081018484840111156104375761043661033f565b5b6104428482856103fb565b509392505050565b5f82601f83011261045e5761045d61033b565b5b813561046e848260208601610409565b91505092915050565b5f6020828403121561048c5761048b610333565b5b5f82013567ffffffffffffffff8111156104a9576104a8610337565b5b6104b58482850161044a565b91505092915050565b5f819050919050565b6104d0816104be565b82525050565b5f6020820190506104e95f8301846104c7565b92915050565b5f81519050919050565b5f82825260208201905092915050565b5f5b8381101561052657808201518184015260208101905061050b565b5f8484015250505050565b5f61053b826104ef565b61054581856104f9565b9350610555818560208601610509565b61055e81610343565b840191505092915050565b5f60408201905061057c5f8301856104c7565b818103602083015261058e8184610531565b90509392505050565b6105a0816104be565b81146105aa575f80fd5b50565b5f813590506105bb81610597565b92915050565b5f80604083850312156105d7576105d6610333565b5b5f6105e4858286016105ad565b925050602083013567ffffffffffffffff81111561060557610604610337565b5b6106118582860161044a565b9150509250929050565b5f602082840312156106305761062f610333565b5b5f61063d848285016105ad565b91505092915050565b5f6040820190508181035f83015261065e8185610531565b905061066d60208301846104c7565b9392505050565b7f4e487b71000000000000000000000000000000000000000000000000000000005f52602260045260245ffd5b5f60028204905060018216806106b857607f821691505b6020821081036106cb576106ca610674565b5b50919050565b5f819050815f5260205f209050919050565b5f6020601f8301049050919050565b5f82821b905092915050565b5f6008830261072d7fffffffffffffffffffffffffffffffffffffffffffffffffffffffffffffffff826106f2565b61073786836106f2565b95508019841693508086168417925050509392505050565b5f819050919050565b5f61077261076d610768846104be565b61074f565b6104be565b9050919050565b5f819050919050565b61078b83610758565b61079f61079782610779565b8484546106fe565b825550505050565b5f90565b6107b36107a7565b6107be818484610782565b505050565b5b818110156107e1576107d65f826107ab565b6001810190506107c4565b5050565b601f821115610826576107f7816106d1565b610800846106e3565b8101602085101561080f578190505b61082361081b856106e3565b8301826107c3565b50505b505050565b5f82821c905092915050565b5f6108465f198460080261082b565b1980831691505092915050565b5f61085e8383610837565b9150826002028217905092915050565b610877826104ef565b67ffffffffffffffff8111156108905761088f610353565b5b61089a82546106a1565b6108a58282856107e5565b5f60209050601f8311600181146108d6575f84156108c4578287015190505b6108ce8582610853565b865550610935565b601f1984166108e4866106d1565b5f5b8281101561090b578489015182556001820191506020850194506020810190506108e6565b868310156109285784890151610924601f891682610837565b8355505b6001600288020188555050505b505050505050565b5f81905092915050565b5f610951826104ef565b61095b818561093d565b935061096b818560208601610509565b80840191505092915050565b5f6109828284610947565b91508190509291505056fea2646970667358221220e32fdd114f34d010846a856765e051c6b95dd244008c06827a52bd113e6d30f464736f6c63430008180033",
					"opcodes": "PUSH1 0x80 PUSH1 0x40 MSTORE CALLVALUE DUP1 ISZERO PUSH2 0xF JUMPI PUSH0 DUP1 REVERT JUMPDEST POP PUSH2 0x9C3 DUP1 PUSH2 0x1D PUSH0 CODECOPY PUSH0 RETURN INVALID PUSH1 0x80 PUSH1 0x40 MSTORE CALLVALUE DUP1 ISZERO PUSH2 0xF JUMPI PUSH0 DUP1 REVERT JUMPDEST POP PUSH1 0x4 CALLDATASIZE LT PUSH2 0x55 JUMPI PUSH0 CALLDATALOAD PUSH1 0xE0 SHR DUP1 PUSH4 0x21CB54E4 EQ PUSH2 0x59 JUMPI DUP1 PUSH4 0x2E64CEC1 EQ PUSH2 0x89 JUMPI DUP1 PUSH4 0x3C32211B EQ PUSH2 0xA8 JUMPI DUP1 PUSH4 0x9753C762 EQ PUSH2 0xC4 JUMPI DUP1 PUSH4 0xE1FF178A EQ PUSH2 0xF5 JUMPI JUMPDEST PUSH0 DUP1 REVERT JUMPDEST PUSH2 0x73 PUSH1 0x4 DUP1 CALLDATASIZE SUB DUP2 ADD SWAP1 PUSH2 0x6E SWAP2 SWAP1 PUSH2 0x477 JUMP JUMPDEST PUSH2 0x111 JUMP JUMPDEST PUSH1 0x40 MLOAD PUSH2 0x80 SWAP2 SWAP1 PUSH2 0x4D6 JUMP JUMPDEST PUSH1 0x40 MLOAD DUP1 SWAP2 SUB SWAP1 RETURN JUMPDEST PUSH2 0x91 PUSH2 0x13E JUMP JUMPDEST PUSH1 0x40 MLOAD PUSH2 0x9F SWAP3 SWAP2 SWAP1 PUSH2 0x569 JUMP JUMPDEST PUSH1 0x40 MLOAD DUP1 SWAP2 SUB SWAP1 RETURN JUMPDEST PUSH2 0xC2 PUSH1 0x4 DUP1 CALLDATASIZE SUB DUP2 ADD SWAP1 PUSH2 0xBD SWAP2 SWAP1 PUSH2 0x5C1 JUMP JUMPDEST PUSH2 0x1D7 JUMP JUMPDEST STOP JUMPDEST PUSH2 0xDE PUSH1 0x4 DUP1 CALLDATASIZE SUB DUP2 ADD SWAP1 PUSH2 0xD9 SWAP2 SWAP1 PUSH2 0x61B JUMP JUMPDEST PUSH2 0x25B JUMP JUMPDEST PUSH1 0x40 MLOAD PUSH2 0xEC SWAP3 SWAP2 SWAP1 PUSH2 0x646 JUMP JUMPDEST PUSH1 0x40 MLOAD DUP1 SWAP2 SUB SWAP1 RETURN JUMPDEST PUSH2 0x10F PUSH1 0x4 DUP1 CALLDATASIZE SUB DUP2 ADD SWAP1 PUSH2 0x10A SWAP2 SWAP1 PUSH2 0x5C1 JUMP JUMPDEST PUSH2 0x310 JUMP JUMPDEST STOP JUMPDEST PUSH1 0x2 DUP2 DUP1 MLOAD PUSH1 0x20 DUP2 ADD DUP3 ADD DUP1 MLOAD DUP5 DUP3 MSTORE PUSH1 0x20 DUP4 ADD PUSH1 0x20 DUP6 ADD KECCAK256 DUP2 DUP4 MSTORE DUP1 SWAP6 POP POP POP POP POP POP PUSH0 SWAP2 POP SWAP1 POP SLOAD DUP2 JUMP JUMPDEST PUSH0 PUSH1 0x60 PUSH0 SLOAD PUSH1 0x1 DUP1 DUP1 SLOAD PUSH2 0x151 SWAP1 PUSH2 0x6A1 JUMP JUMPDEST DUP1 PUSH1 0x1F ADD PUSH1 0x20 DUP1 SWAP2 DIV MUL PUSH1 0x20 ADD PUSH1 0x40 MLOAD SWAP1 DUP2 ADD PUSH1 0x40 MSTORE DUP1 SWAP3 SWAP2 SWAP1 DUP2 DUP2 MSTORE PUSH1 0x20 ADD DUP3 DUP1 SLOAD PUSH2 0x17D SWAP1 PUSH2 0x6A1 JUMP JUMPDEST DUP1 ISZERO PUSH2 0x1C8 JUMPI DUP1 PUSH1 0x1F LT PUSH2 0x19F JUMPI PUSH2 0x100 DUP1 DUP4 SLOAD DIV MUL DUP4 MSTORE SWAP2 PUSH1 0x20 ADD SWAP2 PUSH2 0x1C8 JUMP JUMPDEST DUP3 ADD SWAP2 SWAP1 PUSH0 MSTORE PUSH1 0x20 PUSH0 KECCAK256 SWAP1 JUMPDEST DUP2 SLOAD DUP2 MSTORE SWAP1 PUSH1 0x1 ADD SWAP1 PUSH1 0x20 ADD DUP1 DUP4 GT PUSH2 0x1AB JUMPI DUP3 SWAP1 SUB PUSH1 0x1F AND DUP3 ADD SWAP2 JUMPDEST POP POP POP POP POP SWAP1 POP SWAP2 POP SWAP2 POP SWAP1 SWAP2 JUMP JUMPDEST PUSH1 0x3 PUSH1 0x40 MLOAD DUP1 PUSH1 0x40 ADD PUSH1 0x40 MSTORE DUP1 DUP4 DUP2 MSTORE PUSH1 0x20 ADD DUP5 DUP2 MSTORE POP SWAP1 DUP1 PUSH1 0x1 DUP2 SLOAD ADD DUP1 DUP3 SSTORE DUP1 SWAP2 POP POP PUSH1 0x1 SWAP1 SUB SWAP1 PUSH0 MSTORE PUSH1 0x20 PUSH0 KECCAK256 SWAP1 PUSH1 0x2 MUL ADD PUSH0 SWAP1 SWAP2 SWAP1 SWAP2 SWAP1 SWAP2 POP PUSH0 DUP3 ADD MLOAD DUP2 PUSH0 ADD SWAP1 DUP2 PUSH2 0x227 SWAP2 SWAP1 PUSH2 0x86E JUMP JUMPDEST POP PUSH1 0x20 DUP3 ADD MLOAD DUP2 PUSH1 0x1 ADD SSTORE POP POP DUP2 PUSH1 0x2 DUP3 PUSH1 0x40 MLOAD PUSH2 0x245 SWAP2 SWAP1 PUSH2 0x977 JUMP JUMPDEST SWAP1 DUP2 MSTORE PUSH1 0x20 ADD PUSH1 0x40 MLOAD DUP1 SWAP2 SUB SWAP1 KECCAK256 DUP2 SWAP1 SSTORE POP POP POP JUMP JUMPDEST PUSH1 0x3 DUP2 DUP2 SLOAD DUP2 LT PUSH2 0x26A JUMPI PUSH0 DUP1 REVERT JUMPDEST SWAP1 PUSH0 MSTORE PUSH1 0x20 PUSH0 KECCAK256 SWAP1 PUSH1 0x2 MUL ADD PUSH0 SWAP2 POP SWAP1 POP DUP1 PUSH0 ADD DUP1 SLOAD PUSH2 0x289 SWAP1 PUSH2 0x6A1 JUMP JUMPDEST DUP1 PUSH1 0x1F ADD PUSH1 0x20 DUP1 SWAP2 DIV MUL PUSH1 0x20 ADD PUSH1 0x40 MLOAD SWAP1 DUP2 ADD PUSH1 0x40 MSTORE DUP1 SWAP3 SWAP2 SWAP1 DUP2 DUP2 MSTORE PUSH1 0x20 ADD DUP3 DUP1 SLOAD PUSH2 0x2B5 SWAP1 PUSH2 0x6A1 JUMP JUMPDEST DUP1 ISZERO PUSH2 0x300 JUMPI DUP1 PUSH1 0x1F LT PUSH2 0x2D7 JUMPI PUSH2 0x100 DUP1 DUP4 SLOAD DIV MUL DUP4 MSTORE SWAP2 PUSH1 0x20 ADD SWAP2 PUSH2 0x300 JUMP JUMPDEST DUP3 ADD SWAP2 SWAP1 PUSH0 MSTORE PUSH1 0x20 PUSH0 KECCAK256 SWAP1 JUMPDEST DUP2 SLOAD DUP2 MSTORE SWAP1 PUSH1 0x1 ADD SWAP1 PUSH1 0x20 ADD DUP1 DUP4 GT PUSH2 0x2E3 JUMPI DUP3 SWAP1 SUB PUSH1 0x1F AND DUP3 ADD SWAP2 JUMPDEST POP POP POP POP POP SWAP1 DUP1 PUSH1 0x1 ADD SLOAD SWAP1 POP DUP3 JUMP JUMPDEST DUP2 PUSH0 DUP2 SWAP1 SSTORE POP DUP1 PUSH1 0x1 SWAP1 DUP2 PUSH2 0x325 SWAP2 SWAP1 PUSH2 0x86E JUMP JUMPDEST POP POP POP JUMP JUMPDEST PUSH0 PUSH1 0x40 MLOAD SWAP1 POP SWAP1 JUMP JUMPDEST PUSH0 DUP1 REVERT JUMPDEST PUSH0 DUP1 REVERT JUMPDEST PUSH0 DUP1 REVERT JUMPDEST PUSH0 DUP1 REVERT JUMPDEST PUSH0 PUSH1 0x1F NOT PUSH1 0x1F DUP4 ADD AND SWAP1 POP SWAP2 SWAP1 POP JUMP JUMPDEST PUSH32 0x4E487B7100000000000000000000000000000000000000000000000000000000 PUSH0 MSTORE PUSH1 0x41 PUSH1 0x4 MSTORE PUSH1 0x24 PUSH0 REVERT JUMPDEST PUSH2 0x389 DUP3 PUSH2 0x343 JUMP JUMPDEST DUP2 ADD DUP2 DUP2 LT PUSH8 0xFFFFFFFFFFFFFFFF DUP3 GT OR ISZERO PUSH2 0x3A8 JUMPI PUSH2 0x3A7 PUSH2 0x353 JUMP JUMPDEST JUMPDEST DUP1 PUSH1 0x40 MSTORE POP POP POP JUMP JUMPDEST PUSH0 PUSH2 0x3BA PUSH2 0x32A JUMP JUMPDEST SWAP1 POP PUSH2 0x3C6 DUP3 DUP3 PUSH2 0x380 JUMP JUMPDEST SWAP2 SWAP1 POP JUMP JUMPDEST PUSH0 PUSH8 0xFFFFFFFFFFFFFFFF DUP3 GT ISZERO PUSH2 0x3E5 JUMPI PUSH2 0x3E4 PUSH2 0x353 JUMP JUMPDEST JUMPDEST PUSH2 0x3EE DUP3 PUSH2 0x343 JUMP JUMPDEST SWAP1 POP PUSH1 0x20 DUP2 ADD SWAP1 POP SWAP2 SWAP1 POP JUMP JUMPDEST DUP3 DUP2 DUP4 CALLDATACOPY PUSH0 DUP4 DUP4 ADD MSTORE POP POP POP JUMP JUMPDEST PUSH0 PUSH2 0x41B PUSH2 0x416 DUP5 PUSH2 0x3CB JUMP JUMPDEST PUSH2 0x3B1 JUMP JUMPDEST SWAP1 POP DUP3 DUP2 MSTORE PUSH1 0x20 DUP2 ADD DUP5 DUP5 DUP5 ADD GT ISZERO PUSH2 0x437 JUMPI PUSH2 0x436 PUSH2 0x33F JUMP JUMPDEST JUMPDEST PUSH2 0x442 DUP5 DUP3 DUP6 PUSH2 0x3FB JUMP JUMPDEST POP SWAP4 SWAP3 POP POP POP JUMP JUMPDEST PUSH0 DUP3 PUSH1 0x1F DUP4 ADD SLT PUSH2 0x45E JUMPI PUSH2 0x45D PUSH2 0x33B JUMP JUMPDEST JUMPDEST DUP2 CALLDATALOAD PUSH2 0x46E DUP5 DUP3 PUSH1 0x20 DUP7 ADD PUSH2 0x409 JUMP JUMPDEST SWAP2 POP POP SWAP3 SWAP2 POP POP JUMP JUMPDEST PUSH0 PUSH1 0x20 DUP3 DUP5 SUB SLT ISZERO PUSH2 0x48C JUMPI PUSH2 0x48B PUSH2 0x333 JUMP JUMPDEST JUMPDEST PUSH0 DUP3 ADD CALLDATALOAD PUSH8 0xFFFFFFFFFFFFFFFF DUP2 GT ISZERO PUSH2 0x4A9 JUMPI PUSH2 0x4A8 PUSH2 0x337 JUMP JUMPDEST JUMPDEST PUSH2 0x4B5 DUP5 DUP3 DUP6 ADD PUSH2 0x44A JUMP JUMPDEST SWAP2 POP POP SWAP3 SWAP2 POP POP JUMP JUMPDEST PUSH0 DUP2 SWAP1 POP SWAP2 SWAP1 POP JUMP JUMPDEST PUSH2 0x4D0 DUP2 PUSH2 0x4BE JUMP JUMPDEST DUP3 MSTORE POP POP JUMP JUMPDEST PUSH0 PUSH1 0x20 DUP3 ADD SWAP1 POP PUSH2 0x4E9 PUSH0 DUP4 ADD DUP5 PUSH2 0x4C7 JUMP JUMPDEST SWAP3 SWAP2 POP POP JUMP JUMPDEST PUSH0 DUP2 MLOAD SWAP1 POP SWAP2 SWAP1 POP JUMP JUMPDEST PUSH0 DUP3 DUP3 MSTORE PUSH1 0x20 DUP3 ADD SWAP1 POP SWAP3 SWAP2 POP POP JUMP JUMPDEST PUSH0 JUMPDEST DUP4 DUP2 LT ISZERO PUSH2 0x526 JUMPI DUP1 DUP3 ADD MLOAD DUP2 DUP5 ADD MSTORE PUSH1 0x20 DUP2 ADD SWAP1 POP PUSH2 0x50B JUMP JUMPDEST PUSH0 DUP5 DUP5 ADD MSTORE POP POP POP POP JUMP JUMPDEST PUSH0 PUSH2 0x53B DUP3 PUSH2 0x4EF JUMP JUMPDEST PUSH2 0x545 DUP2 DUP6 PUSH2 0x4F9 JUMP JUMPDEST SWAP4 POP PUSH2 0x555 DUP2 DUP6 PUSH1 0x20 DUP7 ADD PUSH2 0x509 JUMP JUMPDEST PUSH2 0x55E DUP2 PUSH2 0x343 JUMP JUMPDEST DUP5 ADD SWAP2 POP POP SWAP3 SWAP2 POP POP JUMP JUMPDEST PUSH0 PUSH1 0x40 DUP3 ADD SWAP1 POP PUSH2 0x57C PUSH0 DUP4 ADD DUP6 PUSH2 0x4C7 JUMP JUMPDEST DUP2 DUP2 SUB PUSH1 0x20 DUP4 ADD MSTORE PUSH2 0x58E DUP2 DUP5 PUSH2 0x531 JUMP JUMPDEST SWAP1 POP SWAP4 SWAP3 POP POP POP JUMP JUMPDEST PUSH2 0x5A0 DUP2 PUSH2 0x4BE JUMP JUMPDEST DUP2 EQ PUSH2 0x5AA JUMPI PUSH0 DUP1 REVERT JUMPDEST POP JUMP JUMPDEST PUSH0 DUP2 CALLDATALOAD SWAP1 POP PUSH2 0x5BB DUP2 PUSH2 0x597 JUMP JUMPDEST SWAP3 SWAP2 POP POP JUMP JUMPDEST PUSH0 DUP1 PUSH1 0x40 DUP4 DUP6 SUB SLT ISZERO PUSH2 0x5D7 JUMPI PUSH2 0x5D6 PUSH2 0x333 JUMP JUMPDEST JUMPDEST PUSH0 PUSH2 0x5E4 DUP6 DUP3 DUP7 ADD PUSH2 0x5AD JUMP JUMPDEST SWAP3 POP POP PUSH1 0x20 DUP4 ADD CALLDATALOAD PUSH8 0xFFFFFFFFFFFFFFFF DUP2 GT ISZERO PUSH2 0x605 JUMPI PUSH2 0x604 PUSH2 0x337 JUMP JUMPDEST JUMPDEST PUSH2 0x611 DUP6 DUP3 DUP7 ADD PUSH2 0x44A JUMP JUMPDEST SWAP2 POP POP SWAP3 POP SWAP3 SWAP1 POP JUMP JUMPDEST PUSH0 PUSH1 0x20 DUP3 DUP5 SUB SLT ISZERO PUSH2 0x630 JUMPI PUSH2 0x62F PUSH2 0x333 JUMP JUMPDEST JUMPDEST PUSH0 PUSH2 0x63D DUP5 DUP3 DUP6 ADD PUSH2 0x5AD JUMP JUMPDEST SWAP2 POP POP SWAP3 SWAP2 POP POP JUMP JUMPDEST PUSH0 PUSH1 0x40 DUP3 ADD SWAP1 POP DUP2 DUP2 SUB PUSH0 DUP4 ADD MSTORE PUSH2 0x65E DUP2 DUP6 PUSH2 0x531 JUMP JUMPDEST SWAP1 POP PUSH2 0x66D PUSH1 0x20 DUP4 ADD DUP5 PUSH2 0x4C7 JUMP JUMPDEST SWAP4 SWAP3 POP POP POP JUMP JUMPDEST PUSH32 0x4E487B7100000000000000000000000000000000000000000000000000000000 PUSH0 MSTORE PUSH1 0x22 PUSH1 0x4 MSTORE PUSH1 0x24 PUSH0 REVERT JUMPDEST PUSH0 PUSH1 0x2 DUP3 DIV SWAP1 POP PUSH1 0x1 DUP3 AND DUP1 PUSH2 0x6B8 JUMPI PUSH1 0x7F DUP3 AND SWAP2 POP JUMPDEST PUSH1 0x20 DUP3 LT DUP2 SUB PUSH2 0x6CB JUMPI PUSH2 0x6CA PUSH2 0x674 JUMP JUMPDEST JUMPDEST POP SWAP2 SWAP1 POP JUMP JUMPDEST PUSH0 DUP2 SWAP1 POP DUP2 PUSH0 MSTORE PUSH1 0x20 PUSH0 KECCAK256 SWAP1 POP SWAP2 SWAP1 POP JUMP JUMPDEST PUSH0 PUSH1 0x20 PUSH1 0x1F DUP4 ADD DIV SWAP1 POP SWAP2 SWAP1 POP JUMP JUMPDEST PUSH0 DUP3 DUP3 SHL SWAP1 POP SWAP3 SWAP2 POP POP JUMP JUMPDEST PUSH0 PUSH1 0x8 DUP4 MUL PUSH2 0x72D PUSH32 0xFFFFFFFFFFFFFFFFFFFFFFFFFFFFFFFFFFFFFFFFFFFFFFFFFFFFFFFFFFFFFFFF DUP3 PUSH2 0x6F2 JUMP JUMPDEST PUSH2 0x737 DUP7 DUP4 PUSH2 0x6F2 JUMP JUMPDEST SWAP6 POP DUP1 NOT DUP5 AND SWAP4 POP DUP1 DUP7 AND DUP5 OR SWAP3 POP POP POP SWAP4 SWAP3 POP POP POP JUMP JUMPDEST PUSH0 DUP2 SWAP1 POP SWAP2 SWAP1 POP JUMP JUMPDEST PUSH0 PUSH2 0x772 PUSH2 0x76D PUSH2 0x768 DUP5 PUSH2 0x4BE JUMP JUMPDEST PUSH2 0x74F JUMP JUMPDEST PUSH2 0x4BE JUMP JUMPDEST SWAP1 POP SWAP2 SWAP1 POP JUMP JUMPDEST PUSH0 DUP2 SWAP1 POP SWAP2 SWAP1 POP JUMP JUMPDEST PUSH2 0x78B DUP4 PUSH2 0x758 JUMP JUMPDEST PUSH2 0x79F PUSH2 0x797 DUP3 PUSH2 0x779 JUMP JUMPDEST DUP5 DUP5 SLOAD PUSH2 0x6FE JUMP JUMPDEST DUP3 SSTORE POP POP POP POP JUMP JUMPDEST PUSH0 SWAP1 JUMP JUMPDEST PUSH2 0x7B3 PUSH2 0x7A7 JUMP JUMPDEST PUSH2 0x7BE DUP2 DUP5 DUP5 PUSH2 0x782 JUMP JUMPDEST POP POP POP JUMP JUMPDEST JUMPDEST DUP2 DUP2 LT ISZERO PUSH2 0x7E1 JUMPI PUSH2 0x7D6 PUSH0 DUP3 PUSH2 0x7AB JUMP JUMPDEST PUSH1 0x1 DUP2 ADD SWAP1 POP PUSH2 0x7C4 JUMP JUMPDEST POP POP JUMP JUMPDEST PUSH1 0x1F DUP3 GT ISZERO PUSH2 0x826 JUMPI PUSH2 0x7F7 DUP2 PUSH2 0x6D1 JUMP JUMPDEST PUSH2 0x800 DUP5 PUSH2 0x6E3 JUMP JUMPDEST DUP2 ADD PUSH1 0x20 DUP6 LT ISZERO PUSH2 0x80F JUMPI DUP2 SWAP1 POP JUMPDEST PUSH2 0x823 PUSH2 0x81B DUP6 PUSH2 0x6E3 JUMP JUMPDEST DUP4 ADD DUP3 PUSH2 0x7C3 JUMP JUMPDEST POP POP JUMPDEST POP POP POP JUMP JUMPDEST PUSH0 DUP3 DUP3 SHR SWAP1 POP SWAP3 SWAP2 POP POP JUMP JUMPDEST PUSH0 PUSH2 0x846 PUSH0 NOT DUP5 PUSH1 0x8 MUL PUSH2 0x82B JUMP JUMPDEST NOT DUP1 DUP4 AND SWAP2 POP POP SWAP3 SWAP2 POP POP JUMP JUMPDEST PUSH0 PUSH2 0x85E DUP4 DUP4 PUSH2 0x837 JUMP JUMPDEST SWAP2 POP DUP3 PUSH1 0x2 MUL DUP3 OR SWAP1 POP SWAP3 SWAP2 POP POP JUMP JUMPDEST PUSH2 0x877 DUP3 PUSH2 0x4EF JUMP JUMPDEST PUSH8 0xFFFFFFFFFFFFFFFF DUP2 GT ISZERO PUSH2 0x890 JUMPI PUSH2 0x88F PUSH2 0x353 JUMP JUMPDEST JUMPDEST PUSH2 0x89A DUP3 SLOAD PUSH2 0x6A1 JUMP JUMPDEST PUSH2 0x8A5 DUP3 DUP3 DUP6 PUSH2 0x7E5 JUMP JUMPDEST PUSH0 PUSH1 0x20 SWAP1 POP PUSH1 0x1F DUP4 GT PUSH1 0x1 DUP2 EQ PUSH2 0x8D6 JUMPI PUSH0 DUP5 ISZERO PUSH2 0x8C4 JUMPI DUP3 DUP8 ADD MLOAD SWAP1 POP JUMPDEST PUSH2 0x8CE DUP6 DUP3 PUSH2 0x853 JUMP JUMPDEST DUP7 SSTORE POP PUSH2 0x935 JUMP JUMPDEST PUSH1 0x1F NOT DUP5 AND PUSH2 0x8E4 DUP7 PUSH2 0x6D1 JUMP JUMPDEST PUSH0 JUMPDEST DUP3 DUP2 LT ISZERO PUSH2 0x90B JUMPI DUP5 DUP10 ADD MLOAD DUP3 SSTORE PUSH1 0x1 DUP3 ADD SWAP2 POP PUSH1 0x20 DUP6 ADD SWAP5 POP PUSH1 0x20 DUP2 ADD SWAP1 POP PUSH2 0x8E6 JUMP JUMPDEST DUP7 DUP4 LT ISZERO PUSH2 0x928 JUMPI DUP5 DUP10 ADD MLOAD PUSH2 0x924 PUSH1 0x1F DUP10 AND DUP3 PUSH2 0x837 JUMP JUMPDEST DUP4 SSTORE POP JUMPDEST PUSH1 0x1 PUSH1 0x2 DUP9 MUL ADD DUP9 SSTORE POP POP POP JUMPDEST POP POP POP POP POP POP JUMP JUMPDEST PUSH0 DUP2 SWAP1 POP SWAP3 SWAP2 POP POP JUMP JUMPDEST PUSH0 PUSH2 0x951 DUP3 PUSH2 0x4EF JUMP JUMPDEST PUSH2 0x95B DUP2 DUP6 PUSH2 0x93D JUMP JUMPDEST SWAP4 POP PUSH2 0x96B DUP2 DUP6 PUSH1 0x20 DUP7 ADD PUSH2 0x509 JUMP JUMPDEST DUP1 DUP5 ADD SWAP2 POP POP SWAP3 SWAP2 POP POP JUMP JUMPDEST PUSH0 PUSH2 0x982 DUP3 DUP5 PUSH2 0x947 JUMP JUMPDEST SWAP2 POP DUP2 SWAP1 POP SWAP3 SWAP2 POP POP JUMP INVALID LOG2 PUSH5 0x6970667358 0x22 SLT KECCAK256 0xE3 0x2F 0xDD GT 0x4F CALLVALUE 0xD0 LT DUP5 PUSH11 0x856765E051C6B95DD24400 DUP13 MOD DUP3 PUSH27 0x52BD113E6D30F464736F6C63430008180033000000000000000000 "
				},
				"gasEstimates": {
					"creation": {
						"codeDepositCost": "499800",
						"executionCost": "535",
						"totalCost": "500335"
					},
					"external": {
						"FindNumByText(string)": "infinite",
						"ListofAnimals(uint256)": "infinite",
						"addAnimal(uint256,string)": "infinite",
						"retrieve()": "infinite",
						"store(uint256,string)": "infinite"
					}
				},
				"methodIdentifiers": {
					"FindNumByText(string)": "21cb54e4",
					"ListofAnimals(uint256)": "9753c762",
					"addAnimal(uint256,string)": "3c32211b",
					"retrieve()": "2e64cec1",
					"store(uint256,string)": "e1ff178a"
				}
			},
			"storageLayout": {
				"storage": [
					{
						"astId": 3,
						"contract": "contracts/mapping.sol:Mapping",
						"label": "Mynumber",
						"offset": 0,
						"slot": "0",
						"type": "t_uint256"
					},
					{
						"astId": 5,
						"contract": "contracts/mapping.sol:Mapping",
						"label": "Myname",
						"offset": 0,
						"slot": "1",
						"type": "t_string_storage"
					},
					{
						"astId": 14,
						"contract": "contracts/mapping.sol:Mapping",
						"label": "FindNumByText",
						"offset": 0,
						"slot": "2",
						"type": "t_mapping(t_string_memory_ptr,t_uint256)"
					},
					{
						"astId": 18,
						"contract": "contracts/mapping.sol:Mapping",
						"label": "ListofAnimals",
						"offset": 0,
						"slot": "3",
						"type": "t_array(t_struct(Animal)10_storage)dyn_storage"
					}
				],
				"types": {
					"t_array(t_struct(Animal)10_storage)dyn_storage": {
						"base": "t_struct(Animal)10_storage",
						"encoding": "dynamic_array",
						"label": "struct Mapping.Animal[]",
						"numberOfBytes": "32"
					},
					"t_mapping(t_string_memory_ptr,t_uint256)": {
						"encoding": "mapping",
						"key": "t_string_memory_ptr",
						"label": "mapping(string => uint256)",
						"numberOfBytes": "32",
						"value": "t_uint256"
					},
					"t_string_memory_ptr": {
						"encoding": "bytes",
						"label": "string",
						"numberOfBytes": "32"
					},
					"t_string_storage": {
						"encoding": "bytes",
						"label": "string",
						"numberOfBytes": "32"
					},
					"t_struct(Animal)10_storage": {
						"encoding": "inplace",
						"label": "struct Mapping.Animal",
						"members": [
							{
								"astId": 7,
								"contract": "contracts/mapping.sol:Mapping",
								"label": "Name",
								"offset": 0,
								"slot": "0",
								"type": "t_string_storage"
							},
							{
								"astId": 9,
								"contract": "contracts/mapping.sol:Mapping",
								"label": "Number",
								"offset": 0,
								"slot": "1",
								"type": "t_uint256"
							}
						],
						"numberOfBytes": "64"
					},
					"t_uint256": {
						"encoding": "inplace",
						"label": "uint256",
						"numberOfBytes": "32"
					}
				}
			},
			"userdoc": {
				"kind": "user",
				"methods": {},
				"version": 1
			}
		}
	}
}