{
	"contracts/third.sol": {
		"ArrayofNumAndText": {
			"abi": [
				{
					"inputs": [
						{
							"internalType": "uint256",
							"name": "",
							"type": "uint256"
						}
					],
					"name": "ListofPerson",
					"outputs": [
						{
							"internalType": "uint256",
							"name": "Number",
							"type": "uint256"
						},
						{
							"internalType": "string",
							"name": "Name",
							"type": "string"
						}
					],
					"stateMutability": "view",
					"type": "function"
				},
				{
					"inputs": [],
					"name": "Myname",
					"outputs": [
						{
							"internalType": "string",
							"name": "",
							"type": "string"
						}
					],
					"stateMutability": "view",
					"type": "function"
				},
				{
					"inputs": [],
					"name": "Mynumber",
					"outputs": [
						{
							"internalType": "uint256",
							"name": "",
							"type": "uint256"
						}
					],
					"stateMutability": "view",
					"type": "function"
				},
				{
					"inputs": [
						{
							"internalType": "uint256",
							"name": "_number",
							"type": "uint256"
						},
						{
							"internalType": "string",
							"name": "_name",
							"type": "string"
						}
					],
					"name": "addPerson",
					"outputs": [],
					"stateMutability": "nonpayable",
					"type": "function"
				},
				{
					"inputs": [],
					"name": "retrieve",
					"outputs": [
						{
							"internalType": "uint256",
							"name": "",
							"type": "uint256"
						},
						{
							"internalType": "string",
							"name": "",
							"type": "string"
						}
					],
					"stateMutability": "view",
					"type": "function"
				},
				{
					"inputs": [
						{
							"internalType": "uint256",
							"name": "_number",
							"type": "uint256"
						},
						{
							"internalType": "string",
							"name": "_name",
							"type": "string"
						}
					],
					"name": "store",
					"outputs": [],
					"stateMutability": "nonpayable",
					"type": "function"
				}
			],
			"devdoc": {
				"kind": "dev",
				"methods": {},
				"version": 1
			},
			"evm": {
				"assembly": "    /* \"contracts/third.sol\":131:756  contract ArrayofNumAndText{... */\n  mstore(0x40, 0x80)\n  callvalue\n  dup1\n  iszero\n  tag_1\n  jumpi\n  0x00\n  dup1\n  revert\ntag_1:\n  pop\n  dataSize(sub_0)\n  dup1\n  dataOffset(sub_0)\n  0x00\n  codecopy\n  0x00\n  return\nstop\n\nsub_0: assembly {\n        /* \"contracts/third.sol\":131:756  contract ArrayofNumAndText{... */\n      mstore(0x40, 0x80)\n      callvalue\n      dup1\n      iszero\n      tag_1\n      jumpi\n      0x00\n      dup1\n      revert\n    tag_1:\n      pop\n      jumpi(tag_2, lt(calldatasize, 0x04))\n      shr(0xe0, calldataload(0x00))\n      dup1\n      0x225bc193\n      eq\n      tag_3\n      jumpi\n      dup1\n      0x2e64cec1\n      eq\n      tag_4\n      jumpi\n      dup1\n      0x93dd0f24\n      eq\n      tag_5\n      jumpi\n      dup1\n      0xbc832d4e\n      eq\n      tag_6\n      jumpi\n      dup1\n      0xce895030\n      eq\n      tag_7\n      jumpi\n      dup1\n      0xe1ff178a\n      eq\n      tag_8\n      jumpi\n    tag_2:\n      0x00\n      dup1\n      revert\n        /* \"contracts/third.sol\":196:216  string public Myname */\n    tag_3:\n      tag_9\n      tag_10\n      jump\t// in\n    tag_9:\n      mload(0x40)\n      tag_11\n      swap2\n      swap1\n      tag_12\n      jump\t// in\n    tag_11:\n      mload(0x40)\n      dup1\n      swap2\n      sub\n      swap1\n      return\n        /* \"contracts/third.sol\":514:620  function retrieve() public view returns(uint256, string memory){... */\n    tag_4:\n      tag_13\n      tag_14\n      jump\t// in\n    tag_13:\n      mload(0x40)\n      tag_15\n      swap3\n      swap2\n      swap1\n      tag_16\n      jump\t// in\n    tag_15:\n      mload(0x40)\n      dup1\n      swap2\n      sub\n      swap1\n      return\n        /* \"contracts/third.sol\":166:189  uint256 public Mynumber */\n    tag_5:\n      tag_17\n      tag_18\n      jump\t// in\n    tag_17:\n      mload(0x40)\n      tag_19\n      swap2\n      swap1\n      tag_20\n      jump\t// in\n    tag_19:\n      mload(0x40)\n      dup1\n      swap2\n      sub\n      swap1\n      return\n        /* \"contracts/third.sol\":626:748  function addPerson(uint256 _number, string memory _name)public {... */\n    tag_6:\n      tag_21\n      0x04\n      dup1\n      calldatasize\n      sub\n      dup2\n      add\n      swap1\n      tag_22\n      swap2\n      swap1\n      tag_23\n      jump\t// in\n    tag_22:\n      tag_24\n      jump\t// in\n    tag_21:\n      stop\n        /* \"contracts/third.sol\":309:337  Person[] public ListofPerson */\n    tag_7:\n      tag_25\n      0x04\n      dup1\n      calldatasize\n      sub\n      dup2\n      add\n      swap1\n      tag_26\n      swap2\n      swap1\n      tag_27\n      jump\t// in\n    tag_26:\n      tag_28\n      jump\t// in\n    tag_25:\n      mload(0x40)\n      tag_29\n      swap3\n      swap2\n      swap1\n      tag_16\n      jump\t// in\n    tag_29:\n      mload(0x40)\n      dup1\n      swap2\n      sub\n      swap1\n      return\n        /* \"contracts/third.sol\":346:506  function store(uint256 _number, string memory _name) public {... */\n    tag_8:\n      tag_30\n      0x04\n      dup1\n      calldatasize\n      sub\n      dup2\n      add\n      swap1\n      tag_31\n      swap2\n      swap1\n      tag_23\n      jump\t// in\n    tag_31:\n      tag_32\n      jump\t// in\n    tag_30:\n      stop\n        /* \"contracts/third.sol\":196:216  string public Myname */\n    tag_10:\n      0x01\n      dup1\n      sload\n      tag_33\n      swap1\n      tag_34\n      jump\t// in\n    tag_33:\n      dup1\n      0x1f\n      add\n      0x20\n      dup1\n      swap2\n      div\n      mul\n      0x20\n      add\n      mload(0x40)\n      swap1\n      dup2\n      add\n      0x40\n      mstore\n      dup1\n      swap3\n      swap2\n      swap1\n      dup2\n      dup2\n      mstore\n      0x20\n      add\n      dup3\n      dup1\n      sload\n      tag_35\n      swap1\n      tag_34\n      jump\t// in\n    tag_35:\n      dup1\n      iszero\n      tag_36\n      jumpi\n      dup1\n      0x1f\n      lt\n      tag_37\n      jumpi\n      0x0100\n      dup1\n      dup4\n      sload\n      div\n      mul\n      dup4\n      mstore\n      swap2\n      0x20\n      add\n      swap2\n      jump(tag_36)\n    tag_37:\n      dup3\n      add\n      swap2\n      swap1\n      0x00\n      mstore\n      keccak256(0x00, 0x20)\n      swap1\n    tag_38:\n      dup2\n      sload\n      dup2\n      mstore\n      swap1\n      0x01\n      add\n      swap1\n      0x20\n      add\n      dup1\n      dup4\n      gt\n      tag_38\n      jumpi\n      dup3\n      swap1\n      sub\n      0x1f\n      and\n      dup3\n      add\n      swap2\n    tag_36:\n      pop\n      pop\n      pop\n      pop\n      pop\n      dup2\n      jump\t// out\n        /* \"contracts/third.sol\":514:620  function retrieve() public view returns(uint256, string memory){... */\n    tag_14:\n        /* \"contracts/third.sol\":554:561  uint256 */\n      0x00\n        /* \"contracts/third.sol\":563:576  string memory */\n      0x60\n        /* \"contracts/third.sol\":596:604  Mynumber */\n      sload(0x00)\n        /* \"contracts/third.sol\":605:611  Myname */\n      0x01\n        /* \"contracts/third.sol\":588:612  return (Mynumber,Myname) */\n      dup1\n      dup1\n      sload\n      tag_40\n      swap1\n      tag_34\n      jump\t// in\n    tag_40:\n      dup1\n      0x1f\n      add\n      0x20\n      dup1\n      swap2\n      div\n      mul\n      0x20\n      add\n      mload(0x40)\n      swap1\n      dup2\n      add\n      0x40\n      mstore\n      dup1\n      swap3\n      swap2\n      swap1\n      dup2\n      dup2\n      mstore\n      0x20\n      add\n      dup3\n      dup1\n      sload\n      tag_41\n      swap1\n      tag_34\n      jump\t// in\n    tag_41:\n      dup1\n      iszero\n      tag_42\n      jumpi\n      dup1\n      0x1f\n      lt\n      tag_43\n      jumpi\n      0x0100\n      dup1\n      dup4\n      sload\n      div\n      mul\n      dup4\n      mstore\n      swap2\n      0x20\n      add\n      swap2\n      jump(tag_42)\n    tag_43:\n      dup3\n      add\n      swap2\n      swap1\n      0x00\n      mstore\n      keccak256(0x00, 0x20)\n      swap1\n    tag_44:\n      dup2\n      sload\n      dup2\n      mstore\n      swap1\n      0x01\n      add\n      swap1\n      0x20\n      add\n      dup1\n      dup4\n      gt\n      tag_44\n      jumpi\n      dup3\n      swap1\n      sub\n      0x1f\n      and\n      dup3\n      add\n      swap2\n    tag_42:\n      pop\n      pop\n      pop\n      pop\n      pop\n      swap1\n      pop\n      swap2\n      pop\n      swap2\n      pop\n        /* \"contracts/third.sol\":514:620  function retrieve() public view returns(uint256, string memory){... */\n      swap1\n      swap2\n      jump\t// out\n        /* \"contracts/third.sol\":166:189  uint256 public Mynumber */\n    tag_18:\n      sload(0x00)\n      dup2\n      jump\t// out\n        /* \"contracts/third.sol\":626:748  function addPerson(uint256 _number, string memory _name)public {... */\n    tag_24:\n        /* \"contracts/third.sol\":700:712  ListofPerson */\n      0x02\n        /* \"contracts/third.sol\":718:739  Person(_number,_name) */\n      mload(0x40)\n      dup1\n      0x40\n      add\n      0x40\n      mstore\n      dup1\n        /* \"contracts/third.sol\":725:732  _number */\n      dup5\n        /* \"contracts/third.sol\":718:739  Person(_number,_name) */\n      dup2\n      mstore\n      0x20\n      add\n        /* \"contracts/third.sol\":733:738  _name */\n      dup4\n        /* \"contracts/third.sol\":718:739  Person(_number,_name) */\n      dup2\n      mstore\n      pop\n        /* \"contracts/third.sol\":700:740  ListofPerson.push(Person(_number,_name)) */\n      swap1\n      dup1\n      0x01\n      dup2\n      sload\n      add\n      dup1\n      dup3\n      sstore\n      dup1\n      swap2\n      pop\n      pop\n      0x01\n      swap1\n      sub\n      swap1\n      0x00\n      mstore\n      keccak256(0x00, 0x20)\n      swap1\n      0x02\n      mul\n      add\n      0x00\n      swap1\n      swap2\n      swap1\n      swap2\n      swap1\n      swap2\n      pop\n      0x00\n      dup3\n      add\n      mload\n      dup2\n      0x00\n      add\n      sstore\n      0x20\n      dup3\n      add\n      mload\n      dup2\n      0x01\n      add\n      swap1\n      dup2\n      tag_47\n      swap2\n      swap1\n      tag_48\n      jump\t// in\n    tag_47:\n      pop\n      pop\n      pop\n        /* \"contracts/third.sol\":626:748  function addPerson(uint256 _number, string memory _name)public {... */\n      pop\n      pop\n      jump\t// out\n        /* \"contracts/third.sol\":309:337  Person[] public ListofPerson */\n    tag_28:\n      0x02\n      dup2\n      dup2\n      sload\n      dup2\n      lt\n      tag_49\n      jumpi\n      0x00\n      dup1\n      revert\n    tag_49:\n      swap1\n      0x00\n      mstore\n      keccak256(0x00, 0x20)\n      swap1\n      0x02\n      mul\n      add\n      0x00\n      swap2\n      pop\n      swap1\n      pop\n      dup1\n      0x00\n      add\n      sload\n      swap1\n      dup1\n      0x01\n      add\n      dup1\n      sload\n      tag_51\n      swap1\n      tag_34\n      jump\t// in\n    tag_51:\n      dup1\n      0x1f\n      add\n      0x20\n      dup1\n      swap2\n      div\n      mul\n      0x20\n      add\n      mload(0x40)\n      swap1\n      dup2\n      add\n      0x40\n      mstore\n      dup1\n      swap3\n      swap2\n      swap1\n      dup2\n      dup2\n      mstore\n      0x20\n      add\n      dup3\n      dup1\n      sload\n      tag_52\n      swap1\n      tag_34\n      jump\t// in\n    tag_52:\n      dup1\n      iszero\n      tag_53\n      jumpi\n      dup1\n      0x1f\n      lt\n      tag_54\n      jumpi\n      0x0100\n      dup1\n      dup4\n      sload\n      div\n      mul\n      dup4\n      mstore\n      swap2\n      0x20\n      add\n      swap2\n      jump(tag_53)\n    tag_54:\n      dup3\n      add\n      swap2\n      swap1\n      0x00\n      mstore\n      keccak256(0x00, 0x20)\n      swap1\n    tag_55:\n      dup2\n      sload\n      dup2\n      mstore\n      swap1\n      0x01\n      add\n      swap1\n      0x20\n      add\n      dup1\n      dup4\n      gt\n      tag_55\n      jumpi\n      dup3\n      swap1\n      sub\n      0x1f\n      and\n      dup3\n      add\n      swap2\n    tag_53:\n      pop\n      pop\n      pop\n      pop\n      pop\n      swap1\n      pop\n      dup3\n      jump\t// out\n        /* \"contracts/third.sol\":346:506  function store(uint256 _number, string memory _name) public {... */\n    tag_32:\n        /* \"contracts/third.sol\":426:433  _number */\n      dup2\n        /* \"contracts/third.sol\":417:425  Mynumber */\n      0x00\n        /* \"contracts/third.sol\":417:433  Mynumber=_number */\n      dup2\n      swap1\n      sstore\n      pop\n        /* \"contracts/third.sol\":442:447  _name */\n      dup1\n        /* \"contracts/third.sol\":435:441  Myname */\n      0x01\n        /* \"contracts/third.sol\":435:447  Myname=_name */\n      swap1\n      dup2\n      tag_57\n      swap2\n      swap1\n      tag_48\n      jump\t// in\n    tag_57:\n      pop\n        /* \"contracts/third.sol\":458:470  ListofPerson */\n      0x02\n        /* \"contracts/third.sol\":476:497  Person(_number,_name) */\n      mload(0x40)\n      dup1\n      0x40\n      add\n      0x40\n      mstore\n      dup1\n        /* \"contracts/third.sol\":483:490  _number */\n      dup5\n        /* \"contracts/third.sol\":476:497  Person(_number,_name) */\n      dup2\n      mstore\n      0x20\n      add\n        /* \"contracts/third.sol\":491:496  _name */\n      dup4\n        /* \"contracts/third.sol\":476:497  Person(_number,_name) */\n      dup2\n      mstore\n      pop\n        /* \"contracts/third.sol\":458:498  ListofPerson.push(Person(_number,_name)) */\n      swap1\n      dup1\n      0x01\n      dup2\n      sload\n      add\n      dup1\n      dup3\n      sstore\n      dup1\n      swap2\n      pop\n      pop\n      0x01\n      swap1\n      sub\n      swap1\n      0x00\n      mstore\n      keccak256(0x00, 0x20)\n      swap1\n      0x02\n      mul\n      add\n      0x00\n      swap1\n      swap2\n      swap1\n      swap2\n      swap1\n      swap2\n      pop\n      0x00\n      dup3\n      add\n      mload\n      dup2\n      0x00\n      add\n      sstore\n      0x20\n      dup3\n      add\n      mload\n      dup2\n      0x01\n      add\n      swap1\n      dup2\n      tag_59\n      swap2\n      swap1\n      tag_48\n      jump\t// in\n    tag_59:\n      pop\n      pop\n      pop\n        /* \"contracts/third.sol\":346:506  function store(uint256 _number, string memory _name) public {... */\n      pop\n      pop\n      jump\t// out\n        /* \"#utility.yul\":7:106   */\n    tag_60:\n        /* \"#utility.yul\":59:65   */\n      0x00\n        /* \"#utility.yul\":93:98   */\n      dup2\n        /* \"#utility.yul\":87:99   */\n      mload\n        /* \"#utility.yul\":77:99   */\n      swap1\n      pop\n        /* \"#utility.yul\":7:106   */\n      swap2\n      swap1\n      pop\n      jump\t// out\n        /* \"#utility.yul\":112:281   */\n    tag_61:\n        /* \"#utility.yul\":196:207   */\n      0x00\n        /* \"#utility.yul\":230:236   */\n      dup3\n        /* \"#utility.yul\":225:228   */\n      dup3\n        /* \"#utility.yul\":218:237   */\n      mstore\n        /* \"#utility.yul\":270:274   */\n      0x20\n        /* \"#utility.yul\":265:268   */\n      dup3\n        /* \"#utility.yul\":261:275   */\n      add\n        /* \"#utility.yul\":246:275   */\n      swap1\n      pop\n        /* \"#utility.yul\":112:281   */\n      swap3\n      swap2\n      pop\n      pop\n      jump\t// out\n        /* \"#utility.yul\":287:533   */\n    tag_62:\n        /* \"#utility.yul\":368:369   */\n      0x00\n        /* \"#utility.yul\":378:491   */\n    tag_101:\n        /* \"#utility.yul\":392:398   */\n      dup4\n        /* \"#utility.yul\":389:390   */\n      dup2\n        /* \"#utility.yul\":386:399   */\n      lt\n        /* \"#utility.yul\":378:491   */\n      iszero\n      tag_103\n      jumpi\n        /* \"#utility.yul\":477:478   */\n      dup1\n        /* \"#utility.yul\":472:475   */\n      dup3\n        /* \"#utility.yul\":468:479   */\n      add\n        /* \"#utility.yul\":462:480   */\n      mload\n        /* \"#utility.yul\":458:459   */\n      dup2\n        /* \"#utility.yul\":453:456   */\n      dup5\n        /* \"#utility.yul\":449:460   */\n      add\n        /* \"#utility.yul\":442:481   */\n      mstore\n        /* \"#utility.yul\":414:416   */\n      0x20\n        /* \"#utility.yul\":411:412   */\n      dup2\n        /* \"#utility.yul\":407:417   */\n      add\n        /* \"#utility.yul\":402:417   */\n      swap1\n      pop\n        /* \"#utility.yul\":378:491   */\n      jump(tag_101)\n    tag_103:\n        /* \"#utility.yul\":525:526   */\n      0x00\n        /* \"#utility.yul\":516:522   */\n      dup5\n        /* \"#utility.yul\":511:514   */\n      dup5\n        /* \"#utility.yul\":507:523   */\n      add\n        /* \"#utility.yul\":500:527   */\n      mstore\n        /* \"#utility.yul\":349:533   */\n      pop\n        /* \"#utility.yul\":287:533   */\n      pop\n      pop\n      pop\n      jump\t// out\n        /* \"#utility.yul\":539:641   */\n    tag_63:\n        /* \"#utility.yul\":580:586   */\n      0x00\n        /* \"#utility.yul\":631:633   */\n      0x1f\n        /* \"#utility.yul\":627:634   */\n      not\n        /* \"#utility.yul\":622:624   */\n      0x1f\n        /* \"#utility.yul\":615:620   */\n      dup4\n        /* \"#utility.yul\":611:625   */\n      add\n        /* \"#utility.yul\":607:635   */\n      and\n        /* \"#utility.yul\":597:635   */\n      swap1\n      pop\n        /* \"#utility.yul\":539:641   */\n      swap2\n      swap1\n      pop\n      jump\t// out\n        /* \"#utility.yul\":647:1024   */\n    tag_64:\n        /* \"#utility.yul\":735:738   */\n      0x00\n        /* \"#utility.yul\":763:802   */\n      tag_106\n        /* \"#utility.yul\":796:801   */\n      dup3\n        /* \"#utility.yul\":763:802   */\n      tag_60\n      jump\t// in\n    tag_106:\n        /* \"#utility.yul\":818:889   */\n      tag_107\n        /* \"#utility.yul\":882:888   */\n      dup2\n        /* \"#utility.yul\":877:880   */\n      dup6\n        /* \"#utility.yul\":818:889   */\n      tag_61\n      jump\t// in\n    tag_107:\n        /* \"#utility.yul\":811:889   */\n      swap4\n      pop\n        /* \"#utility.yul\":898:963   */\n      tag_108\n        /* \"#utility.yul\":956:962   */\n      dup2\n        /* \"#utility.yul\":951:954   */\n      dup6\n        /* \"#utility.yul\":944:948   */\n      0x20\n        /* \"#utility.yul\":937:942   */\n      dup7\n        /* \"#utility.yul\":933:949   */\n      add\n        /* \"#utility.yul\":898:963   */\n      tag_62\n      jump\t// in\n    tag_108:\n        /* \"#utility.yul\":988:1017   */\n      tag_109\n        /* \"#utility.yul\":1010:1016   */\n      dup2\n        /* \"#utility.yul\":988:1017   */\n      tag_63\n      jump\t// in\n    tag_109:\n        /* \"#utility.yul\":983:986   */\n      dup5\n        /* \"#utility.yul\":979:1018   */\n      add\n        /* \"#utility.yul\":972:1018   */\n      swap2\n      pop\n        /* \"#utility.yul\":739:1024   */\n      pop\n        /* \"#utility.yul\":647:1024   */\n      swap3\n      swap2\n      pop\n      pop\n      jump\t// out\n        /* \"#utility.yul\":1030:1343   */\n    tag_12:\n        /* \"#utility.yul\":1143:1147   */\n      0x00\n        /* \"#utility.yul\":1181:1183   */\n      0x20\n        /* \"#utility.yul\":1170:1179   */\n      dup3\n        /* \"#utility.yul\":1166:1184   */\n      add\n        /* \"#utility.yul\":1158:1184   */\n      swap1\n      pop\n        /* \"#utility.yul\":1230:1239   */\n      dup2\n        /* \"#utility.yul\":1224:1228   */\n      dup2\n        /* \"#utility.yul\":1220:1240   */\n      sub\n        /* \"#utility.yul\":1216:1217   */\n      0x00\n        /* \"#utility.yul\":1205:1214   */\n      dup4\n        /* \"#utility.yul\":1201:1218   */\n      add\n        /* \"#utility.yul\":1194:1241   */\n      mstore\n        /* \"#utility.yul\":1258:1336   */\n      tag_111\n        /* \"#utility.yul\":1331:1335   */\n      dup2\n        /* \"#utility.yul\":1322:1328   */\n      dup5\n        /* \"#utility.yul\":1258:1336   */\n      tag_64\n      jump\t// in\n    tag_111:\n        /* \"#utility.yul\":1250:1336   */\n      swap1\n      pop\n        /* \"#utility.yul\":1030:1343   */\n      swap3\n      swap2\n      pop\n      pop\n      jump\t// out\n        /* \"#utility.yul\":1349:1426   */\n    tag_65:\n        /* \"#utility.yul\":1386:1393   */\n      0x00\n        /* \"#utility.yul\":1415:1420   */\n      dup2\n        /* \"#utility.yul\":1404:1420   */\n      swap1\n      pop\n        /* \"#utility.yul\":1349:1426   */\n      swap2\n      swap1\n      pop\n      jump\t// out\n        /* \"#utility.yul\":1432:1550   */\n    tag_66:\n        /* \"#utility.yul\":1519:1543   */\n      tag_114\n        /* \"#utility.yul\":1537:1542   */\n      dup2\n        /* \"#utility.yul\":1519:1543   */\n      tag_65\n      jump\t// in\n    tag_114:\n        /* \"#utility.yul\":1514:1517   */\n      dup3\n        /* \"#utility.yul\":1507:1544   */\n      mstore\n        /* \"#utility.yul\":1432:1550   */\n      pop\n      pop\n      jump\t// out\n        /* \"#utility.yul\":1556:1979   */\n    tag_16:\n        /* \"#utility.yul\":1697:1701   */\n      0x00\n        /* \"#utility.yul\":1735:1737   */\n      0x40\n        /* \"#utility.yul\":1724:1733   */\n      dup3\n        /* \"#utility.yul\":1720:1738   */\n      add\n        /* \"#utility.yul\":1712:1738   */\n      swap1\n      pop\n        /* \"#utility.yul\":1748:1819   */\n      tag_116\n        /* \"#utility.yul\":1816:1817   */\n      0x00\n        /* \"#utility.yul\":1805:1814   */\n      dup4\n        /* \"#utility.yul\":1801:1818   */\n      add\n        /* \"#utility.yul\":1792:1798   */\n      dup6\n        /* \"#utility.yul\":1748:1819   */\n      tag_66\n      jump\t// in\n    tag_116:\n        /* \"#utility.yul\":1866:1875   */\n      dup2\n        /* \"#utility.yul\":1860:1864   */\n      dup2\n        /* \"#utility.yul\":1856:1876   */\n      sub\n        /* \"#utility.yul\":1851:1853   */\n      0x20\n        /* \"#utility.yul\":1840:1849   */\n      dup4\n        /* \"#utility.yul\":1836:1854   */\n      add\n        /* \"#utility.yul\":1829:1877   */\n      mstore\n        /* \"#utility.yul\":1894:1972   */\n      tag_117\n        /* \"#utility.yul\":1967:1971   */\n      dup2\n        /* \"#utility.yul\":1958:1964   */\n      dup5\n        /* \"#utility.yul\":1894:1972   */\n      tag_64\n      jump\t// in\n    tag_117:\n        /* \"#utility.yul\":1886:1972   */\n      swap1\n      pop\n        /* \"#utility.yul\":1556:1979   */\n      swap4\n      swap3\n      pop\n      pop\n      pop\n      jump\t// out\n        /* \"#utility.yul\":1985:2207   */\n    tag_20:\n        /* \"#utility.yul\":2078:2082   */\n      0x00\n        /* \"#utility.yul\":2116:2118   */\n      0x20\n        /* \"#utility.yul\":2105:2114   */\n      dup3\n        /* \"#utility.yul\":2101:2119   */\n      add\n        /* \"#utility.yul\":2093:2119   */\n      swap1\n      pop\n        /* \"#utility.yul\":2129:2200   */\n      tag_119\n        /* \"#utility.yul\":2197:2198   */\n      0x00\n        /* \"#utility.yul\":2186:2195   */\n      dup4\n        /* \"#utility.yul\":2182:2199   */\n      add\n        /* \"#utility.yul\":2173:2179   */\n      dup5\n        /* \"#utility.yul\":2129:2200   */\n      tag_66\n      jump\t// in\n    tag_119:\n        /* \"#utility.yul\":1985:2207   */\n      swap3\n      swap2\n      pop\n      pop\n      jump\t// out\n        /* \"#utility.yul\":2213:2288   */\n    tag_67:\n        /* \"#utility.yul\":2246:2252   */\n      0x00\n        /* \"#utility.yul\":2279:2281   */\n      0x40\n        /* \"#utility.yul\":2273:2282   */\n      mload\n        /* \"#utility.yul\":2263:2282   */\n      swap1\n      pop\n        /* \"#utility.yul\":2213:2288   */\n      swap1\n      jump\t// out\n        /* \"#utility.yul\":2294:2411   */\n    tag_68:\n        /* \"#utility.yul\":2403:2404   */\n      0x00\n        /* \"#utility.yul\":2400:2401   */\n      dup1\n        /* \"#utility.yul\":2393:2405   */\n      revert\n        /* \"#utility.yul\":2417:2534   */\n    tag_69:\n        /* \"#utility.yul\":2526:2527   */\n      0x00\n        /* \"#utility.yul\":2523:2524   */\n      dup1\n        /* \"#utility.yul\":2516:2528   */\n      revert\n        /* \"#utility.yul\":2540:2662   */\n    tag_70:\n        /* \"#utility.yul\":2613:2637   */\n      tag_124\n        /* \"#utility.yul\":2631:2636   */\n      dup2\n        /* \"#utility.yul\":2613:2637   */\n      tag_65\n      jump\t// in\n    tag_124:\n        /* \"#utility.yul\":2606:2611   */\n      dup2\n        /* \"#utility.yul\":2603:2638   */\n      eq\n        /* \"#utility.yul\":2593:2656   */\n      tag_125\n      jumpi\n        /* \"#utility.yul\":2652:2653   */\n      0x00\n        /* \"#utility.yul\":2649:2650   */\n      dup1\n        /* \"#utility.yul\":2642:2654   */\n      revert\n        /* \"#utility.yul\":2593:2656   */\n    tag_125:\n        /* \"#utility.yul\":2540:2662   */\n      pop\n      jump\t// out\n        /* \"#utility.yul\":2668:2807   */\n    tag_71:\n        /* \"#utility.yul\":2714:2719   */\n      0x00\n        /* \"#utility.yul\":2752:2758   */\n      dup2\n        /* \"#utility.yul\":2739:2759   */\n      calldataload\n        /* \"#utility.yul\":2730:2759   */\n      swap1\n      pop\n        /* \"#utility.yul\":2768:2801   */\n      tag_127\n        /* \"#utility.yul\":2795:2800   */\n      dup2\n        /* \"#utility.yul\":2768:2801   */\n      tag_70\n      jump\t// in\n    tag_127:\n        /* \"#utility.yul\":2668:2807   */\n      swap3\n      swap2\n      pop\n      pop\n      jump\t// out\n        /* \"#utility.yul\":2813:2930   */\n    tag_72:\n        /* \"#utility.yul\":2922:2923   */\n      0x00\n        /* \"#utility.yul\":2919:2920   */\n      dup1\n        /* \"#utility.yul\":2912:2924   */\n      revert\n        /* \"#utility.yul\":2936:3053   */\n    tag_73:\n        /* \"#utility.yul\":3045:3046   */\n      0x00\n        /* \"#utility.yul\":3042:3043   */\n      dup1\n        /* \"#utility.yul\":3035:3047   */\n      revert\n        /* \"#utility.yul\":3059:3239   */\n    tag_74:\n        /* \"#utility.yul\":3107:3184   */\n      0x4e487b7100000000000000000000000000000000000000000000000000000000\n        /* \"#utility.yul\":3104:3105   */\n      0x00\n        /* \"#utility.yul\":3097:3185   */\n      mstore\n        /* \"#utility.yul\":3204:3208   */\n      0x41\n        /* \"#utility.yul\":3201:3202   */\n      0x04\n        /* \"#utility.yul\":3194:3209   */\n      mstore\n        /* \"#utility.yul\":3228:3232   */\n      0x24\n        /* \"#utility.yul\":3225:3226   */\n      0x00\n        /* \"#utility.yul\":3218:3233   */\n      revert\n        /* \"#utility.yul\":3245:3526   */\n    tag_75:\n        /* \"#utility.yul\":3328:3355   */\n      tag_132\n        /* \"#utility.yul\":3350:3354   */\n      dup3\n        /* \"#utility.yul\":3328:3355   */\n      tag_63\n      jump\t// in\n    tag_132:\n        /* \"#utility.yul\":3320:3326   */\n      dup2\n        /* \"#utility.yul\":3316:3356   */\n      add\n        /* \"#utility.yul\":3458:3464   */\n      dup2\n        /* \"#utility.yul\":3446:3456   */\n      dup2\n        /* \"#utility.yul\":3443:3465   */\n      lt\n        /* \"#utility.yul\":3422:3440   */\n      0xffffffffffffffff\n        /* \"#utility.yul\":3410:3420   */\n      dup3\n        /* \"#utility.yul\":3407:3441   */\n      gt\n        /* \"#utility.yul\":3404:3466   */\n      or\n        /* \"#utility.yul\":3401:3489   */\n      iszero\n      tag_133\n      jumpi\n        /* \"#utility.yul\":3469:3487   */\n      tag_134\n      tag_74\n      jump\t// in\n    tag_134:\n        /* \"#utility.yul\":3401:3489   */\n    tag_133:\n        /* \"#utility.yul\":3509:3519   */\n      dup1\n        /* \"#utility.yul\":3505:3507   */\n      0x40\n        /* \"#utility.yul\":3498:3520   */\n      mstore\n        /* \"#utility.yul\":3288:3526   */\n      pop\n        /* \"#utility.yul\":3245:3526   */\n      pop\n      pop\n      jump\t// out\n        /* \"#utility.yul\":3532:3661   */\n    tag_76:\n        /* \"#utility.yul\":3566:3572   */\n      0x00\n        /* \"#utility.yul\":3593:3613   */\n      tag_136\n      tag_67\n      jump\t// in\n    tag_136:\n        /* \"#utility.yul\":3583:3613   */\n      swap1\n      pop\n        /* \"#utility.yul\":3622:3655   */\n      tag_137\n        /* \"#utility.yul\":3650:3654   */\n      dup3\n        /* \"#utility.yul\":3642:3648   */\n      dup3\n        /* \"#utility.yul\":3622:3655   */\n      tag_75\n      jump\t// in\n    tag_137:\n        /* \"#utility.yul\":3532:3661   */\n      swap2\n      swap1\n      pop\n      jump\t// out\n        /* \"#utility.yul\":3667:3975   */\n    tag_77:\n        /* \"#utility.yul\":3729:3733   */\n      0x00\n        /* \"#utility.yul\":3819:3837   */\n      0xffffffffffffffff\n        /* \"#utility.yul\":3811:3817   */\n      dup3\n        /* \"#utility.yul\":3808:3838   */\n      gt\n        /* \"#utility.yul\":3805:3861   */\n      iszero\n      tag_139\n      jumpi\n        /* \"#utility.yul\":3841:3859   */\n      tag_140\n      tag_74\n      jump\t// in\n    tag_140:\n        /* \"#utility.yul\":3805:3861   */\n    tag_139:\n        /* \"#utility.yul\":3879:3908   */\n      tag_141\n        /* \"#utility.yul\":3901:3907   */\n      dup3\n        /* \"#utility.yul\":3879:3908   */\n      tag_63\n      jump\t// in\n    tag_141:\n        /* \"#utility.yul\":3871:3908   */\n      swap1\n      pop\n        /* \"#utility.yul\":3963:3967   */\n      0x20\n        /* \"#utility.yul\":3957:3961   */\n      dup2\n        /* \"#utility.yul\":3953:3968   */\n      add\n        /* \"#utility.yul\":3945:3968   */\n      swap1\n      pop\n        /* \"#utility.yul\":3667:3975   */\n      swap2\n      swap1\n      pop\n      jump\t// out\n        /* \"#utility.yul\":3981:4127   */\n    tag_78:\n        /* \"#utility.yul\":4078:4084   */\n      dup3\n        /* \"#utility.yul\":4073:4076   */\n      dup2\n        /* \"#utility.yul\":4068:4071   */\n      dup4\n        /* \"#utility.yul\":4055:4085   */\n      calldatacopy\n        /* \"#utility.yul\":4119:4120   */\n      0x00\n        /* \"#utility.yul\":4110:4116   */\n      dup4\n        /* \"#utility.yul\":4105:4108   */\n      dup4\n        /* \"#utility.yul\":4101:4117   */\n      add\n        /* \"#utility.yul\":4094:4121   */\n      mstore\n        /* \"#utility.yul\":3981:4127   */\n      pop\n      pop\n      pop\n      jump\t// out\n        /* \"#utility.yul\":4133:4558   */\n    tag_79:\n        /* \"#utility.yul\":4211:4216   */\n      0x00\n        /* \"#utility.yul\":4236:4302   */\n      tag_144\n        /* \"#utility.yul\":4252:4301   */\n      tag_145\n        /* \"#utility.yul\":4294:4300   */\n      dup5\n        /* \"#utility.yul\":4252:4301   */\n      tag_77\n      jump\t// in\n    tag_145:\n        /* \"#utility.yul\":4236:4302   */\n      tag_76\n      jump\t// in\n    tag_144:\n        /* \"#utility.yul\":4227:4302   */\n      swap1\n      pop\n        /* \"#utility.yul\":4325:4331   */\n      dup3\n        /* \"#utility.yul\":4318:4323   */\n      dup2\n        /* \"#utility.yul\":4311:4332   */\n      mstore\n        /* \"#utility.yul\":4363:4367   */\n      0x20\n        /* \"#utility.yul\":4356:4361   */\n      dup2\n        /* \"#utility.yul\":4352:4368   */\n      add\n        /* \"#utility.yul\":4401:4404   */\n      dup5\n        /* \"#utility.yul\":4392:4398   */\n      dup5\n        /* \"#utility.yul\":4387:4390   */\n      dup5\n        /* \"#utility.yul\":4383:4399   */\n      add\n        /* \"#utility.yul\":4380:4405   */\n      gt\n        /* \"#utility.yul\":4377:4489   */\n      iszero\n      tag_146\n      jumpi\n        /* \"#utility.yul\":4408:4487   */\n      tag_147\n      tag_73\n      jump\t// in\n    tag_147:\n        /* \"#utility.yul\":4377:4489   */\n    tag_146:\n        /* \"#utility.yul\":4498:4552   */\n      tag_148\n        /* \"#utility.yul\":4545:4551   */\n      dup5\n        /* \"#utility.yul\":4540:4543   */\n      dup3\n        /* \"#utility.yul\":4535:4538   */\n      dup6\n        /* \"#utility.yul\":4498:4552   */\n      tag_78\n      jump\t// in\n    tag_148:\n        /* \"#utility.yul\":4217:4558   */\n      pop\n        /* \"#utility.yul\":4133:4558   */\n      swap4\n      swap3\n      pop\n      pop\n      pop\n      jump\t// out\n        /* \"#utility.yul\":4578:4918   */\n    tag_80:\n        /* \"#utility.yul\":4634:4639   */\n      0x00\n        /* \"#utility.yul\":4683:4686   */\n      dup3\n        /* \"#utility.yul\":4676:4680   */\n      0x1f\n        /* \"#utility.yul\":4668:4674   */\n      dup4\n        /* \"#utility.yul\":4664:4681   */\n      add\n        /* \"#utility.yul\":4660:4687   */\n      slt\n        /* \"#utility.yul\":4650:4772   */\n      tag_150\n      jumpi\n        /* \"#utility.yul\":4691:4770   */\n      tag_151\n      tag_72\n      jump\t// in\n    tag_151:\n        /* \"#utility.yul\":4650:4772   */\n    tag_150:\n        /* \"#utility.yul\":4808:4814   */\n      dup2\n        /* \"#utility.yul\":4795:4815   */\n      calldataload\n        /* \"#utility.yul\":4833:4912   */\n      tag_152\n        /* \"#utility.yul\":4908:4911   */\n      dup5\n        /* \"#utility.yul\":4900:4906   */\n      dup3\n        /* \"#utility.yul\":4893:4897   */\n      0x20\n        /* \"#utility.yul\":4885:4891   */\n      dup7\n        /* \"#utility.yul\":4881:4898   */\n      add\n        /* \"#utility.yul\":4833:4912   */\n      tag_79\n      jump\t// in\n    tag_152:\n        /* \"#utility.yul\":4824:4912   */\n      swap2\n      pop\n        /* \"#utility.yul\":4640:4918   */\n      pop\n        /* \"#utility.yul\":4578:4918   */\n      swap3\n      swap2\n      pop\n      pop\n      jump\t// out\n        /* \"#utility.yul\":4924:5578   */\n    tag_23:\n        /* \"#utility.yul\":5002:5008   */\n      0x00\n        /* \"#utility.yul\":5010:5016   */\n      dup1\n        /* \"#utility.yul\":5059:5061   */\n      0x40\n        /* \"#utility.yul\":5047:5056   */\n      dup4\n        /* \"#utility.yul\":5038:5045   */\n      dup6\n        /* \"#utility.yul\":5034:5057   */\n      sub\n        /* \"#utility.yul\":5030:5062   */\n      slt\n        /* \"#utility.yul\":5027:5146   */\n      iszero\n      tag_154\n      jumpi\n        /* \"#utility.yul\":5065:5144   */\n      tag_155\n      tag_68\n      jump\t// in\n    tag_155:\n        /* \"#utility.yul\":5027:5146   */\n    tag_154:\n        /* \"#utility.yul\":5185:5186   */\n      0x00\n        /* \"#utility.yul\":5210:5263   */\n      tag_156\n        /* \"#utility.yul\":5255:5262   */\n      dup6\n        /* \"#utility.yul\":5246:5252   */\n      dup3\n        /* \"#utility.yul\":5235:5244   */\n      dup7\n        /* \"#utility.yul\":5231:5253   */\n      add\n        /* \"#utility.yul\":5210:5263   */\n      tag_71\n      jump\t// in\n    tag_156:\n        /* \"#utility.yul\":5200:5263   */\n      swap3\n      pop\n        /* \"#utility.yul\":5156:5273   */\n      pop\n        /* \"#utility.yul\":5340:5342   */\n      0x20\n        /* \"#utility.yul\":5329:5338   */\n      dup4\n        /* \"#utility.yul\":5325:5343   */\n      add\n        /* \"#utility.yul\":5312:5344   */\n      calldataload\n        /* \"#utility.yul\":5371:5389   */\n      0xffffffffffffffff\n        /* \"#utility.yul\":5363:5369   */\n      dup2\n        /* \"#utility.yul\":5360:5390   */\n      gt\n        /* \"#utility.yul\":5357:5474   */\n      iszero\n      tag_157\n      jumpi\n        /* \"#utility.yul\":5393:5472   */\n      tag_158\n      tag_69\n      jump\t// in\n    tag_158:\n        /* \"#utility.yul\":5357:5474   */\n    tag_157:\n        /* \"#utility.yul\":5498:5561   */\n      tag_159\n        /* \"#utility.yul\":5553:5560   */\n      dup6\n        /* \"#utility.yul\":5544:5550   */\n      dup3\n        /* \"#utility.yul\":5533:5542   */\n      dup7\n        /* \"#utility.yul\":5529:5551   */\n      add\n        /* \"#utility.yul\":5498:5561   */\n      tag_80\n      jump\t// in\n    tag_159:\n        /* \"#utility.yul\":5488:5561   */\n      swap2\n      pop\n        /* \"#utility.yul\":5283:5571   */\n      pop\n        /* \"#utility.yul\":4924:5578   */\n      swap3\n      pop\n      swap3\n      swap1\n      pop\n      jump\t// out\n        /* \"#utility.yul\":5584:5913   */\n    tag_27:\n        /* \"#utility.yul\":5643:5649   */\n      0x00\n        /* \"#utility.yul\":5692:5694   */\n      0x20\n        /* \"#utility.yul\":5680:5689   */\n      dup3\n        /* \"#utility.yul\":5671:5678   */\n      dup5\n        /* \"#utility.yul\":5667:5690   */\n      sub\n        /* \"#utility.yul\":5663:5695   */\n      slt\n        /* \"#utility.yul\":5660:5779   */\n      iszero\n      tag_161\n      jumpi\n        /* \"#utility.yul\":5698:5777   */\n      tag_162\n      tag_68\n      jump\t// in\n    tag_162:\n        /* \"#utility.yul\":5660:5779   */\n    tag_161:\n        /* \"#utility.yul\":5818:5819   */\n      0x00\n        /* \"#utility.yul\":5843:5896   */\n      tag_163\n        /* \"#utility.yul\":5888:5895   */\n      dup5\n        /* \"#utility.yul\":5879:5885   */\n      dup3\n        /* \"#utility.yul\":5868:5877   */\n      dup6\n        /* \"#utility.yul\":5864:5886   */\n      add\n        /* \"#utility.yul\":5843:5896   */\n      tag_71\n      jump\t// in\n    tag_163:\n        /* \"#utility.yul\":5833:5896   */\n      swap2\n      pop\n        /* \"#utility.yul\":5789:5906   */\n      pop\n        /* \"#utility.yul\":5584:5913   */\n      swap3\n      swap2\n      pop\n      pop\n      jump\t// out\n        /* \"#utility.yul\":5919:6099   */\n    tag_81:\n        /* \"#utility.yul\":5967:6044   */\n      0x4e487b7100000000000000000000000000000000000000000000000000000000\n        /* \"#utility.yul\":5964:5965   */\n      0x00\n        /* \"#utility.yul\":5957:6045   */\n      mstore\n        /* \"#utility.yul\":6064:6068   */\n      0x22\n        /* \"#utility.yul\":6061:6062   */\n      0x04\n        /* \"#utility.yul\":6054:6069   */\n      mstore\n        /* \"#utility.yul\":6088:6092   */\n      0x24\n        /* \"#utility.yul\":6085:6086   */\n      0x00\n        /* \"#utility.yul\":6078:6093   */\n      revert\n        /* \"#utility.yul\":6105:6425   */\n    tag_34:\n        /* \"#utility.yul\":6149:6155   */\n      0x00\n        /* \"#utility.yul\":6186:6187   */\n      0x02\n        /* \"#utility.yul\":6180:6184   */\n      dup3\n        /* \"#utility.yul\":6176:6188   */\n      div\n        /* \"#utility.yul\":6166:6188   */\n      swap1\n      pop\n        /* \"#utility.yul\":6233:6234   */\n      0x01\n        /* \"#utility.yul\":6227:6231   */\n      dup3\n        /* \"#utility.yul\":6223:6235   */\n      and\n        /* \"#utility.yul\":6254:6272   */\n      dup1\n        /* \"#utility.yul\":6244:6325   */\n      tag_166\n      jumpi\n        /* \"#utility.yul\":6310:6314   */\n      0x7f\n        /* \"#utility.yul\":6302:6308   */\n      dup3\n        /* \"#utility.yul\":6298:6315   */\n      and\n        /* \"#utility.yul\":6288:6315   */\n      swap2\n      pop\n        /* \"#utility.yul\":6244:6325   */\n    tag_166:\n        /* \"#utility.yul\":6372:6374   */\n      0x20\n        /* \"#utility.yul\":6364:6370   */\n      dup3\n        /* \"#utility.yul\":6361:6375   */\n      lt\n        /* \"#utility.yul\":6341:6359   */\n      dup2\n        /* \"#utility.yul\":6338:6376   */\n      sub\n        /* \"#utility.yul\":6335:6419   */\n      tag_167\n      jumpi\n        /* \"#utility.yul\":6391:6409   */\n      tag_168\n      tag_81\n      jump\t// in\n    tag_168:\n        /* \"#utility.yul\":6335:6419   */\n    tag_167:\n        /* \"#utility.yul\":6156:6425   */\n      pop\n        /* \"#utility.yul\":6105:6425   */\n      swap2\n      swap1\n      pop\n      jump\t// out\n        /* \"#utility.yul\":6431:6572   */\n    tag_82:\n        /* \"#utility.yul\":6480:6484   */\n      0x00\n        /* \"#utility.yul\":6503:6506   */\n      dup2\n        /* \"#utility.yul\":6495:6506   */\n      swap1\n      pop\n        /* \"#utility.yul\":6526:6529   */\n      dup2\n        /* \"#utility.yul\":6523:6524   */\n      0x00\n        /* \"#utility.yul\":6516:6530   */\n      mstore\n        /* \"#utility.yul\":6560:6564   */\n      0x20\n        /* \"#utility.yul\":6557:6558   */\n      0x00\n        /* \"#utility.yul\":6547:6565   */\n      keccak256\n        /* \"#utility.yul\":6539:6565   */\n      swap1\n      pop\n        /* \"#utility.yul\":6431:6572   */\n      swap2\n      swap1\n      pop\n      jump\t// out\n        /* \"#utility.yul\":6578:6671   */\n    tag_83:\n        /* \"#utility.yul\":6615:6621   */\n      0x00\n        /* \"#utility.yul\":6662:6664   */\n      0x20\n        /* \"#utility.yul\":6657:6659   */\n      0x1f\n        /* \"#utility.yul\":6650:6655   */\n      dup4\n        /* \"#utility.yul\":6646:6660   */\n      add\n        /* \"#utility.yul\":6642:6665   */\n      div\n        /* \"#utility.yul\":6632:6665   */\n      swap1\n      pop\n        /* \"#utility.yul\":6578:6671   */\n      swap2\n      swap1\n      pop\n      jump\t// out\n        /* \"#utility.yul\":6677:6784   */\n    tag_84:\n        /* \"#utility.yul\":6721:6729   */\n      0x00\n        /* \"#utility.yul\":6771:6776   */\n      dup3\n        /* \"#utility.yul\":6765:6769   */\n      dup3\n        /* \"#utility.yul\":6761:6777   */\n      shl\n        /* \"#utility.yul\":6740:6777   */\n      swap1\n      pop\n        /* \"#utility.yul\":6677:6784   */\n      swap3\n      swap2\n      pop\n      pop\n      jump\t// out\n        /* \"#utility.yul\":6790:7183   */\n    tag_85:\n        /* \"#utility.yul\":6859:6865   */\n      0x00\n        /* \"#utility.yul\":6909:6910   */\n      0x08\n        /* \"#utility.yul\":6897:6907   */\n      dup4\n        /* \"#utility.yul\":6893:6911   */\n      mul\n        /* \"#utility.yul\":6932:7029   */\n      tag_173\n        /* \"#utility.yul\":6962:7028   */\n      0xffffffffffffffffffffffffffffffffffffffffffffffffffffffffffffffff\n        /* \"#utility.yul\":6951:6960   */\n      dup3\n        /* \"#utility.yul\":6932:7029   */\n      tag_84\n      jump\t// in\n    tag_173:\n        /* \"#utility.yul\":7050:7089   */\n      tag_174\n        /* \"#utility.yul\":7080:7088   */\n      dup7\n        /* \"#utility.yul\":7069:7078   */\n      dup4\n        /* \"#utility.yul\":7050:7089   */\n      tag_84\n      jump\t// in\n    tag_174:\n        /* \"#utility.yul\":7038:7089   */\n      swap6\n      pop\n        /* \"#utility.yul\":7122:7126   */\n      dup1\n        /* \"#utility.yul\":7118:7127   */\n      not\n        /* \"#utility.yul\":7111:7116   */\n      dup5\n        /* \"#utility.yul\":7107:7128   */\n      and\n        /* \"#utility.yul\":7098:7128   */\n      swap4\n      pop\n        /* \"#utility.yul\":7171:7175   */\n      dup1\n        /* \"#utility.yul\":7161:7169   */\n      dup7\n        /* \"#utility.yul\":7157:7176   */\n      and\n        /* \"#utility.yul\":7150:7155   */\n      dup5\n        /* \"#utility.yul\":7147:7177   */\n      or\n        /* \"#utility.yul\":7137:7177   */\n      swap3\n      pop\n        /* \"#utility.yul\":6866:7183   */\n      pop\n      pop\n        /* \"#utility.yul\":6790:7183   */\n      swap4\n      swap3\n      pop\n      pop\n      pop\n      jump\t// out\n        /* \"#utility.yul\":7189:7249   */\n    tag_86:\n        /* \"#utility.yul\":7217:7220   */\n      0x00\n        /* \"#utility.yul\":7238:7243   */\n      dup2\n        /* \"#utility.yul\":7231:7243   */\n      swap1\n      pop\n        /* \"#utility.yul\":7189:7249   */\n      swap2\n      swap1\n      pop\n      jump\t// out\n        /* \"#utility.yul\":7255:7397   */\n    tag_87:\n        /* \"#utility.yul\":7305:7314   */\n      0x00\n        /* \"#utility.yul\":7338:7391   */\n      tag_177\n        /* \"#utility.yul\":7356:7390   */\n      tag_178\n        /* \"#utility.yul\":7365:7389   */\n      tag_179\n        /* \"#utility.yul\":7383:7388   */\n      dup5\n        /* \"#utility.yul\":7365:7389   */\n      tag_65\n      jump\t// in\n    tag_179:\n        /* \"#utility.yul\":7356:7390   */\n      tag_86\n      jump\t// in\n    tag_178:\n        /* \"#utility.yul\":7338:7391   */\n      tag_65\n      jump\t// in\n    tag_177:\n        /* \"#utility.yul\":7325:7391   */\n      swap1\n      pop\n        /* \"#utility.yul\":7255:7397   */\n      swap2\n      swap1\n      pop\n      jump\t// out\n        /* \"#utility.yul\":7403:7478   */\n    tag_88:\n        /* \"#utility.yul\":7446:7449   */\n      0x00\n        /* \"#utility.yul\":7467:7472   */\n      dup2\n        /* \"#utility.yul\":7460:7472   */\n      swap1\n      pop\n        /* \"#utility.yul\":7403:7478   */\n      swap2\n      swap1\n      pop\n      jump\t// out\n        /* \"#utility.yul\":7484:7753   */\n    tag_89:\n        /* \"#utility.yul\":7594:7633   */\n      tag_182\n        /* \"#utility.yul\":7625:7632   */\n      dup4\n        /* \"#utility.yul\":7594:7633   */\n      tag_87\n      jump\t// in\n    tag_182:\n        /* \"#utility.yul\":7655:7746   */\n      tag_183\n        /* \"#utility.yul\":7704:7745   */\n      tag_184\n        /* \"#utility.yul\":7728:7744   */\n      dup3\n        /* \"#utility.yul\":7704:7745   */\n      tag_88\n      jump\t// in\n    tag_184:\n        /* \"#utility.yul\":7696:7702   */\n      dup5\n        /* \"#utility.yul\":7689:7693   */\n      dup5\n        /* \"#utility.yul\":7683:7694   */\n      sload\n        /* \"#utility.yul\":7655:7746   */\n      tag_85\n      jump\t// in\n    tag_183:\n        /* \"#utility.yul\":7649:7653   */\n      dup3\n        /* \"#utility.yul\":7642:7747   */\n      sstore\n        /* \"#utility.yul\":7560:7753   */\n      pop\n        /* \"#utility.yul\":7484:7753   */\n      pop\n      pop\n      pop\n      jump\t// out\n        /* \"#utility.yul\":7759:7832   */\n    tag_90:\n        /* \"#utility.yul\":7804:7807   */\n      0x00\n        /* \"#utility.yul\":7759:7832   */\n      swap1\n      jump\t// out\n        /* \"#utility.yul\":7838:8027   */\n    tag_91:\n        /* \"#utility.yul\":7915:7947   */\n      tag_187\n      tag_90\n      jump\t// in\n    tag_187:\n        /* \"#utility.yul\":7956:8021   */\n      tag_188\n        /* \"#utility.yul\":8014:8020   */\n      dup2\n        /* \"#utility.yul\":8006:8012   */\n      dup5\n        /* \"#utility.yul\":8000:8004   */\n      dup5\n        /* \"#utility.yul\":7956:8021   */\n      tag_89\n      jump\t// in\n    tag_188:\n        /* \"#utility.yul\":7891:8027   */\n      pop\n        /* \"#utility.yul\":7838:8027   */\n      pop\n      pop\n      jump\t// out\n        /* \"#utility.yul\":8033:8219   */\n    tag_92:\n        /* \"#utility.yul\":8093:8213   */\n    tag_190:\n        /* \"#utility.yul\":8110:8113   */\n      dup2\n        /* \"#utility.yul\":8103:8108   */\n      dup2\n        /* \"#utility.yul\":8100:8114   */\n      lt\n        /* \"#utility.yul\":8093:8213   */\n      iszero\n      tag_192\n      jumpi\n        /* \"#utility.yul\":8164:8203   */\n      tag_193\n        /* \"#utility.yul\":8201:8202   */\n      0x00\n        /* \"#utility.yul\":8194:8199   */\n      dup3\n        /* \"#utility.yul\":8164:8203   */\n      tag_91\n      jump\t// in\n    tag_193:\n        /* \"#utility.yul\":8137:8138   */\n      0x01\n        /* \"#utility.yul\":8130:8135   */\n      dup2\n        /* \"#utility.yul\":8126:8139   */\n      add\n        /* \"#utility.yul\":8117:8139   */\n      swap1\n      pop\n        /* \"#utility.yul\":8093:8213   */\n      jump(tag_190)\n    tag_192:\n        /* \"#utility.yul\":8033:8219   */\n      pop\n      pop\n      jump\t// out\n        /* \"#utility.yul\":8225:8768   */\n    tag_93:\n        /* \"#utility.yul\":8326:8328   */\n      0x1f\n        /* \"#utility.yul\":8321:8324   */\n      dup3\n        /* \"#utility.yul\":8318:8329   */\n      gt\n        /* \"#utility.yul\":8315:8761   */\n      iszero\n      tag_195\n      jumpi\n        /* \"#utility.yul\":8360:8398   */\n      tag_196\n        /* \"#utility.yul\":8392:8397   */\n      dup2\n        /* \"#utility.yul\":8360:8398   */\n      tag_82\n      jump\t// in\n    tag_196:\n        /* \"#utility.yul\":8444:8473   */\n      tag_197\n        /* \"#utility.yul\":8462:8472   */\n      dup5\n        /* \"#utility.yul\":8444:8473   */\n      tag_83\n      jump\t// in\n    tag_197:\n        /* \"#utility.yul\":8434:8442   */\n      dup2\n        /* \"#utility.yul\":8430:8474   */\n      add\n        /* \"#utility.yul\":8627:8629   */\n      0x20\n        /* \"#utility.yul\":8615:8625   */\n      dup6\n        /* \"#utility.yul\":8612:8630   */\n      lt\n        /* \"#utility.yul\":8609:8658   */\n      iszero\n      tag_198\n      jumpi\n        /* \"#utility.yul\":8648:8656   */\n      dup2\n        /* \"#utility.yul\":8633:8656   */\n      swap1\n      pop\n        /* \"#utility.yul\":8609:8658   */\n    tag_198:\n        /* \"#utility.yul\":8671:8751   */\n      tag_199\n        /* \"#utility.yul\":8727:8749   */\n      tag_200\n        /* \"#utility.yul\":8745:8748   */\n      dup6\n        /* \"#utility.yul\":8727:8749   */\n      tag_83\n      jump\t// in\n    tag_200:\n        /* \"#utility.yul\":8717:8725   */\n      dup4\n        /* \"#utility.yul\":8713:8750   */\n      add\n        /* \"#utility.yul\":8700:8711   */\n      dup3\n        /* \"#utility.yul\":8671:8751   */\n      tag_92\n      jump\t// in\n    tag_199:\n        /* \"#utility.yul\":8330:8761   */\n      pop\n      pop\n        /* \"#utility.yul\":8315:8761   */\n    tag_195:\n        /* \"#utility.yul\":8225:8768   */\n      pop\n      pop\n      pop\n      jump\t// out\n        /* \"#utility.yul\":8774:8891   */\n    tag_94:\n        /* \"#utility.yul\":8828:8836   */\n      0x00\n        /* \"#utility.yul\":8878:8883   */\n      dup3\n        /* \"#utility.yul\":8872:8876   */\n      dup3\n        /* \"#utility.yul\":8868:8884   */\n      shr\n        /* \"#utility.yul\":8847:8884   */\n      swap1\n      pop\n        /* \"#utility.yul\":8774:8891   */\n      swap3\n      swap2\n      pop\n      pop\n      jump\t// out\n        /* \"#utility.yul\":8897:9066   */\n    tag_95:\n        /* \"#utility.yul\":8941:8947   */\n      0x00\n        /* \"#utility.yul\":8974:9025   */\n      tag_203\n        /* \"#utility.yul\":9022:9023   */\n      0x00\n        /* \"#utility.yul\":9018:9024   */\n      not\n        /* \"#utility.yul\":9010:9015   */\n      dup5\n        /* \"#utility.yul\":9007:9008   */\n      0x08\n        /* \"#utility.yul\":9003:9016   */\n      mul\n        /* \"#utility.yul\":8974:9025   */\n      tag_94\n      jump\t// in\n    tag_203:\n        /* \"#utility.yul\":8970:9026   */\n      not\n        /* \"#utility.yul\":9055:9059   */\n      dup1\n        /* \"#utility.yul\":9049:9053   */\n      dup4\n        /* \"#utility.yul\":9045:9060   */\n      and\n        /* \"#utility.yul\":9035:9060   */\n      swap2\n      pop\n        /* \"#utility.yul\":8948:9066   */\n      pop\n        /* \"#utility.yul\":8897:9066   */\n      swap3\n      swap2\n      pop\n      pop\n      jump\t// out\n        /* \"#utility.yul\":9071:9366   */\n    tag_96:\n        /* \"#utility.yul\":9147:9151   */\n      0x00\n        /* \"#utility.yul\":9293:9322   */\n      tag_205\n        /* \"#utility.yul\":9318:9321   */\n      dup4\n        /* \"#utility.yul\":9312:9316   */\n      dup4\n        /* \"#utility.yul\":9293:9322   */\n      tag_95\n      jump\t// in\n    tag_205:\n        /* \"#utility.yul\":9285:9322   */\n      swap2\n      pop\n        /* \"#utility.yul\":9355:9358   */\n      dup3\n        /* \"#utility.yul\":9352:9353   */\n      0x02\n        /* \"#utility.yul\":9348:9359   */\n      mul\n        /* \"#utility.yul\":9342:9346   */\n      dup3\n        /* \"#utility.yul\":9339:9360   */\n      or\n        /* \"#utility.yul\":9331:9360   */\n      swap1\n      pop\n        /* \"#utility.yul\":9071:9366   */\n      swap3\n      swap2\n      pop\n      pop\n      jump\t// out\n        /* \"#utility.yul\":9371:10766   */\n    tag_48:\n        /* \"#utility.yul\":9488:9525   */\n      tag_207\n        /* \"#utility.yul\":9521:9524   */\n      dup3\n        /* \"#utility.yul\":9488:9525   */\n      tag_60\n      jump\t// in\n    tag_207:\n        /* \"#utility.yul\":9590:9608   */\n      0xffffffffffffffff\n        /* \"#utility.yul\":9582:9588   */\n      dup2\n        /* \"#utility.yul\":9579:9609   */\n      gt\n        /* \"#utility.yul\":9576:9632   */\n      iszero\n      tag_208\n      jumpi\n        /* \"#utility.yul\":9612:9630   */\n      tag_209\n      tag_74\n      jump\t// in\n    tag_209:\n        /* \"#utility.yul\":9576:9632   */\n    tag_208:\n        /* \"#utility.yul\":9656:9694   */\n      tag_210\n        /* \"#utility.yul\":9688:9692   */\n      dup3\n        /* \"#utility.yul\":9682:9693   */\n      sload\n        /* \"#utility.yul\":9656:9694   */\n      tag_34\n      jump\t// in\n    tag_210:\n        /* \"#utility.yul\":9741:9808   */\n      tag_211\n        /* \"#utility.yul\":9801:9807   */\n      dup3\n        /* \"#utility.yul\":9793:9799   */\n      dup3\n        /* \"#utility.yul\":9787:9791   */\n      dup6\n        /* \"#utility.yul\":9741:9808   */\n      tag_93\n      jump\t// in\n    tag_211:\n        /* \"#utility.yul\":9835:9836   */\n      0x00\n        /* \"#utility.yul\":9859:9863   */\n      0x20\n        /* \"#utility.yul\":9846:9863   */\n      swap1\n      pop\n        /* \"#utility.yul\":9891:9893   */\n      0x1f\n        /* \"#utility.yul\":9883:9889   */\n      dup4\n        /* \"#utility.yul\":9880:9894   */\n      gt\n        /* \"#utility.yul\":9908:9909   */\n      0x01\n        /* \"#utility.yul\":9903:10521   */\n      dup2\n      eq\n      tag_213\n      jumpi\n        /* \"#utility.yul\":10565:10566   */\n      0x00\n        /* \"#utility.yul\":10582:10588   */\n      dup5\n        /* \"#utility.yul\":10579:10656   */\n      iszero\n      tag_214\n      jumpi\n        /* \"#utility.yul\":10631:10640   */\n      dup3\n        /* \"#utility.yul\":10626:10629   */\n      dup8\n        /* \"#utility.yul\":10622:10641   */\n      add\n        /* \"#utility.yul\":10616:10642   */\n      mload\n        /* \"#utility.yul\":10607:10642   */\n      swap1\n      pop\n        /* \"#utility.yul\":10579:10656   */\n    tag_214:\n        /* \"#utility.yul\":10682:10749   */\n      tag_215\n        /* \"#utility.yul\":10742:10748   */\n      dup6\n        /* \"#utility.yul\":10735:10740   */\n      dup3\n        /* \"#utility.yul\":10682:10749   */\n      tag_96\n      jump\t// in\n    tag_215:\n        /* \"#utility.yul\":10676:10680   */\n      dup7\n        /* \"#utility.yul\":10669:10750   */\n      sstore\n        /* \"#utility.yul\":10538:10760   */\n      pop\n        /* \"#utility.yul\":9873:10760   */\n      jump(tag_212)\n        /* \"#utility.yul\":9903:10521   */\n    tag_213:\n        /* \"#utility.yul\":9955:9959   */\n      0x1f\n        /* \"#utility.yul\":9951:9960   */\n      not\n        /* \"#utility.yul\":9943:9949   */\n      dup5\n        /* \"#utility.yul\":9939:9961   */\n      and\n        /* \"#utility.yul\":9989:10026   */\n      tag_216\n        /* \"#utility.yul\":10021:10025   */\n      dup7\n        /* \"#utility.yul\":9989:10026   */\n      tag_82\n      jump\t// in\n    tag_216:\n        /* \"#utility.yul\":10048:10049   */\n      0x00\n        /* \"#utility.yul\":10062:10270   */\n    tag_217:\n        /* \"#utility.yul\":10076:10083   */\n      dup3\n        /* \"#utility.yul\":10073:10074   */\n      dup2\n        /* \"#utility.yul\":10070:10084   */\n      lt\n        /* \"#utility.yul\":10062:10270   */\n      iszero\n      tag_219\n      jumpi\n        /* \"#utility.yul\":10155:10164   */\n      dup5\n        /* \"#utility.yul\":10150:10153   */\n      dup10\n        /* \"#utility.yul\":10146:10165   */\n      add\n        /* \"#utility.yul\":10140:10166   */\n      mload\n        /* \"#utility.yul\":10132:10138   */\n      dup3\n        /* \"#utility.yul\":10125:10167   */\n      sstore\n        /* \"#utility.yul\":10206:10207   */\n      0x01\n        /* \"#utility.yul\":10198:10204   */\n      dup3\n        /* \"#utility.yul\":10194:10208   */\n      add\n        /* \"#utility.yul\":10184:10208   */\n      swap2\n      pop\n        /* \"#utility.yul\":10253:10255   */\n      0x20\n        /* \"#utility.yul\":10242:10251   */\n      dup6\n        /* \"#utility.yul\":10238:10256   */\n      add\n        /* \"#utility.yul\":10225:10256   */\n      swap5\n      pop\n        /* \"#utility.yul\":10099:10103   */\n      0x20\n        /* \"#utility.yul\":10096:10097   */\n      dup2\n        /* \"#utility.yul\":10092:10104   */\n      add\n        /* \"#utility.yul\":10087:10104   */\n      swap1\n      pop\n        /* \"#utility.yul\":10062:10270   */\n      jump(tag_217)\n    tag_219:\n        /* \"#utility.yul\":10298:10304   */\n      dup7\n        /* \"#utility.yul\":10289:10296   */\n      dup4\n        /* \"#utility.yul\":10286:10305   */\n      lt\n        /* \"#utility.yul\":10283:10462   */\n      iszero\n      tag_220\n      jumpi\n        /* \"#utility.yul\":10356:10365   */\n      dup5\n        /* \"#utility.yul\":10351:10354   */\n      dup10\n        /* \"#utility.yul\":10347:10366   */\n      add\n        /* \"#utility.yul\":10341:10367   */\n      mload\n        /* \"#utility.yul\":10399:10447   */\n      tag_221\n        /* \"#utility.yul\":10441:10445   */\n      0x1f\n        /* \"#utility.yul\":10433:10439   */\n      dup10\n        /* \"#utility.yul\":10429:10446   */\n      and\n        /* \"#utility.yul\":10418:10427   */\n      dup3\n        /* \"#utility.yul\":10399:10447   */\n      tag_95\n      jump\t// in\n    tag_221:\n        /* \"#utility.yul\":10391:10397   */\n      dup4\n        /* \"#utility.yul\":10384:10448   */\n      sstore\n        /* \"#utility.yul\":10306:10462   */\n      pop\n        /* \"#utility.yul\":10283:10462   */\n    tag_220:\n        /* \"#utility.yul\":10508:10509   */\n      0x01\n        /* \"#utility.yul\":10504:10505   */\n      0x02\n        /* \"#utility.yul\":10496:10502   */\n      dup9\n        /* \"#utility.yul\":10492:10506   */\n      mul\n        /* \"#utility.yul\":10488:10510   */\n      add\n        /* \"#utility.yul\":10482:10486   */\n      dup9\n        /* \"#utility.yul\":10475:10511   */\n      sstore\n        /* \"#utility.yul\":9910:10521   */\n      pop\n      pop\n      pop\n        /* \"#utility.yul\":9873:10760   */\n    tag_212:\n      pop\n        /* \"#utility.yul\":9463:10766   */\n      pop\n      pop\n      pop\n        /* \"#utility.yul\":9371:10766   */\n      pop\n      pop\n      jump\t// out\n\n    auxdata: 0xa2646970667358221220c9a2289202418cfb5d437903d0bbaa53b88bd883d2fe68eead41fdc20e165ef864736f6c63430008180033\n}\n",
				"bytecode": {
					"linkReferences": {},
					"object": "608060405234801561000f575f80fd5b506109d38061001d5f395ff3fe608060405234801561000f575f80fd5b5060043610610060575f3560e01c8063225bc193146100645780632e64cec11461008257806393dd0f24146100a1578063bc832d4e146100bf578063ce895030146100db578063e1ff178a1461010c575b5f80fd5b61006c610128565b6040516100799190610469565b60405180910390f35b61008a6101b4565b6040516100989291906104a1565b60405180910390f35b6100a961024d565b6040516100b691906104cf565b60405180910390f35b6100d960048036038101906100d4919061064f565b610252565b005b6100f560048036038101906100f091906106a9565b6102b3565b6040516101039291906104a1565b60405180910390f35b6101266004803603810190610121919061064f565b610368565b005b6001805461013590610701565b80601f016020809104026020016040519081016040528092919081815260200182805461016190610701565b80156101ac5780601f10610183576101008083540402835291602001916101ac565b820191905f5260205f20905b81548152906001019060200180831161018f57829003601f168201915b505050505081565b5f60605f5460018080546101c790610701565b80601f01602080910402602001604051908101604052809291908181526020018280546101f390610701565b801561023e5780601f106102155761010080835404028352916020019161023e565b820191905f5260205f20905b81548152906001019060200180831161022157829003601f168201915b50505050509050915091509091565b5f5481565b6002604051806040016040528084815260200183815250908060018154018082558091505060019003905f5260205f2090600202015f909190919091505f820151815f015560208201518160010190816102ac91906108ce565b5050505050565b600281815481106102c2575f80fd5b905f5260205f2090600202015f91509050805f0154908060010180546102e790610701565b80601f016020809104026020016040519081016040528092919081815260200182805461031390610701565b801561035e5780601f106103355761010080835404028352916020019161035e565b820191905f5260205f20905b81548152906001019060200180831161034157829003601f168201915b5050505050905082565b815f81905550806001908161037d91906108ce565b506002604051806040016040528084815260200183815250908060018154018082558091505060019003905f5260205f2090600202015f909190919091505f820151815f015560208201518160010190816103d891906108ce565b5050505050565b5f81519050919050565b5f82825260208201905092915050565b5f5b838110156104165780820151818401526020810190506103fb565b5f8484015250505050565b5f601f19601f8301169050919050565b5f61043b826103df565b61044581856103e9565b93506104558185602086016103f9565b61045e81610421565b840191505092915050565b5f6020820190508181035f8301526104818184610431565b905092915050565b5f819050919050565b61049b81610489565b82525050565b5f6040820190506104b45f830185610492565b81810360208301526104c68184610431565b90509392505050565b5f6020820190506104e25f830184610492565b92915050565b5f604051905090565b5f80fd5b5f80fd5b61050281610489565b811461050c575f80fd5b50565b5f8135905061051d816104f9565b92915050565b5f80fd5b5f80fd5b7f4e487b71000000000000000000000000000000000000000000000000000000005f52604160045260245ffd5b61056182610421565b810181811067ffffffffffffffff821117156105805761057f61052b565b5b80604052505050565b5f6105926104e8565b905061059e8282610558565b919050565b5f67ffffffffffffffff8211156105bd576105bc61052b565b5b6105c682610421565b9050602081019050919050565b828183375f83830152505050565b5f6105f36105ee846105a3565b610589565b90508281526020810184848401111561060f5761060e610527565b5b61061a8482856105d3565b509392505050565b5f82601f83011261063657610635610523565b5b81356106468482602086016105e1565b91505092915050565b5f8060408385031215610665576106646104f1565b5b5f6106728582860161050f565b925050602083013567ffffffffffffffff811115610693576106926104f5565b5b61069f85828601610622565b9150509250929050565b5f602082840312156106be576106bd6104f1565b5b5f6106cb8482850161050f565b91505092915050565b7f4e487b71000000000000000000000000000000000000000000000000000000005f52602260045260245ffd5b5f600282049050600182168061071857607f821691505b60208210810361072b5761072a6106d4565b5b50919050565b5f819050815f5260205f209050919050565b5f6020601f8301049050919050565b5f82821b905092915050565b5f6008830261078d7fffffffffffffffffffffffffffffffffffffffffffffffffffffffffffffffff82610752565b6107978683610752565b95508019841693508086168417925050509392505050565b5f819050919050565b5f6107d26107cd6107c884610489565b6107af565b610489565b9050919050565b5f819050919050565b6107eb836107b8565b6107ff6107f7826107d9565b84845461075e565b825550505050565b5f90565b610813610807565b61081e8184846107e2565b505050565b5b81811015610841576108365f8261080b565b600181019050610824565b5050565b601f8211156108865761085781610731565b61086084610743565b8101602085101561086f578190505b61088361087b85610743565b830182610823565b50505b505050565b5f82821c905092915050565b5f6108a65f198460080261088b565b1980831691505092915050565b5f6108be8383610897565b9150826002028217905092915050565b6108d7826103df565b67ffffffffffffffff8111156108f0576108ef61052b565b5b6108fa8254610701565b610905828285610845565b5f60209050601f831160018114610936575f8415610924578287015190505b61092e85826108b3565b865550610995565b601f19841661094486610731565b5f5b8281101561096b57848901518255600182019150602085019450602081019050610946565b868310156109885784890151610984601f891682610897565b8355505b6001600288020188555050505b50505050505056fea2646970667358221220c9a2289202418cfb5d437903d0bbaa53b88bd883d2fe68eead41fdc20e165ef864736f6c63430008180033",
					"opcodes": "PUSH1 0x80 PUSH1 0x40 MSTORE CALLVALUE DUP1 ISZERO PUSH2 0xF JUMPI PUSH0 DUP1 REVERT JUMPDEST POP PUSH2 0x9D3 DUP1 PUSH2 0x1D PUSH0 CODECOPY PUSH0 RETURN INVALID PUSH1 0x80 PUSH1 0x40 MSTORE CALLVALUE DUP1 ISZERO PUSH2 0xF JUMPI PUSH0 DUP1 REVERT JUMPDEST POP PUSH1 0x4 CALLDATASIZE LT PUSH2 0x60 JUMPI PUSH0 CALLDATALOAD PUSH1 0xE0 SHR DUP1 PUSH4 0x225BC193 EQ PUSH2 0x64 JUMPI DUP1 PUSH4 0x2E64CEC1 EQ PUSH2 0x82 JUMPI DUP1 PUSH4 0x93DD0F24 EQ PUSH2 0xA1 JUMPI DUP1 PUSH4 0xBC832D4E EQ PUSH2 0xBF JUMPI DUP1 PUSH4 0xCE895030 EQ PUSH2 0xDB JUMPI DUP1 PUSH4 0xE1FF178A EQ PUSH2 0x10C JUMPI JUMPDEST PUSH0 DUP1 REVERT JUMPDEST PUSH2 0x6C PUSH2 0x128 JUMP JUMPDEST PUSH1 0x40 MLOAD PUSH2 0x79 SWAP2 SWAP1 PUSH2 0x469 JUMP JUMPDEST PUSH1 0x40 MLOAD DUP1 SWAP2 SUB SWAP1 RETURN JUMPDEST PUSH2 0x8A PUSH2 0x1B4 JUMP JUMPDEST PUSH1 0x40 MLOAD PUSH2 0x98 SWAP3 SWAP2 SWAP1 PUSH2 0x4A1 JUMP JUMPDEST PUSH1 0x40 MLOAD DUP1 SWAP2 SUB SWAP1 RETURN JUMPDEST PUSH2 0xA9 PUSH2 0x24D JUMP JUMPDEST PUSH1 0x40 MLOAD PUSH2 0xB6 SWAP2 SWAP1 PUSH2 0x4CF JUMP JUMPDEST PUSH1 0x40 MLOAD DUP1 SWAP2 SUB SWAP1 RETURN JUMPDEST PUSH2 0xD9 PUSH1 0x4 DUP1 CALLDATASIZE SUB DUP2 ADD SWAP1 PUSH2 0xD4 SWAP2 SWAP1 PUSH2 0x64F JUMP JUMPDEST PUSH2 0x252 JUMP JUMPDEST STOP JUMPDEST PUSH2 0xF5 PUSH1 0x4 DUP1 CALLDATASIZE SUB DUP2 ADD SWAP1 PUSH2 0xF0 SWAP2 SWAP1 PUSH2 0x6A9 JUMP JUMPDEST PUSH2 0x2B3 JUMP JUMPDEST PUSH1 0x40 MLOAD PUSH2 0x103 SWAP3 SWAP2 SWAP1 PUSH2 0x4A1 JUMP JUMPDEST PUSH1 0x40 MLOAD DUP1 SWAP2 SUB SWAP1 RETURN JUMPDEST PUSH2 0x126 PUSH1 0x4 DUP1 CALLDATASIZE SUB DUP2 ADD SWAP1 PUSH2 0x121 SWAP2 SWAP1 PUSH2 0x64F JUMP JUMPDEST PUSH2 0x368 JUMP JUMPDEST STOP JUMPDEST PUSH1 0x1 DUP1 SLOAD PUSH2 0x135 SWAP1 PUSH2 0x701 JUMP JUMPDEST DUP1 PUSH1 0x1F ADD PUSH1 0x20 DUP1 SWAP2 DIV MUL PUSH1 0x20 ADD PUSH1 0x40 MLOAD SWAP1 DUP2 ADD PUSH1 0x40 MSTORE DUP1 SWAP3 SWAP2 SWAP1 DUP2 DUP2 MSTORE PUSH1 0x20 ADD DUP3 DUP1 SLOAD PUSH2 0x161 SWAP1 PUSH2 0x701 JUMP JUMPDEST DUP1 ISZERO PUSH2 0x1AC JUMPI DUP1 PUSH1 0x1F LT PUSH2 0x183 JUMPI PUSH2 0x100 DUP1 DUP4 SLOAD DIV MUL DUP4 MSTORE SWAP2 PUSH1 0x20 ADD SWAP2 PUSH2 0x1AC JUMP JUMPDEST DUP3 ADD SWAP2 SWAP1 PUSH0 MSTORE PUSH1 0x20 PUSH0 KECCAK256 SWAP1 JUMPDEST DUP2 SLOAD DUP2 MSTORE SWAP1 PUSH1 0x1 ADD SWAP1 PUSH1 0x20 ADD DUP1 DUP4 GT PUSH2 0x18F JUMPI DUP3 SWAP1 SUB PUSH1 0x1F AND DUP3 ADD SWAP2 JUMPDEST POP POP POP POP POP DUP2 JUMP JUMPDEST PUSH0 PUSH1 0x60 PUSH0 SLOAD PUSH1 0x1 DUP1 DUP1 SLOAD PUSH2 0x1C7 SWAP1 PUSH2 0x701 JUMP JUMPDEST DUP1 PUSH1 0x1F ADD PUSH1 0x20 DUP1 SWAP2 DIV MUL PUSH1 0x20 ADD PUSH1 0x40 MLOAD SWAP1 DUP2 ADD PUSH1 0x40 MSTORE DUP1 SWAP3 SWAP2 SWAP1 DUP2 DUP2 MSTORE PUSH1 0x20 ADD DUP3 DUP1 SLOAD PUSH2 0x1F3 SWAP1 PUSH2 0x701 JUMP JUMPDEST DUP1 ISZERO PUSH2 0x23E JUMPI DUP1 PUSH1 0x1F LT PUSH2 0x215 JUMPI PUSH2 0x100 DUP1 DUP4 SLOAD DIV MUL DUP4 MSTORE SWAP2 PUSH1 0x20 ADD SWAP2 PUSH2 0x23E JUMP JUMPDEST DUP3 ADD SWAP2 SWAP1 PUSH0 MSTORE PUSH1 0x20 PUSH0 KECCAK256 SWAP1 JUMPDEST DUP2 SLOAD DUP2 MSTORE SWAP1 PUSH1 0x1 ADD SWAP1 PUSH1 0x20 ADD DUP1 DUP4 GT PUSH2 0x221 JUMPI DUP3 SWAP1 SUB PUSH1 0x1F AND DUP3 ADD SWAP2 JUMPDEST POP POP POP POP POP SWAP1 POP SWAP2 POP SWAP2 POP SWAP1 SWAP2 JUMP JUMPDEST PUSH0 SLOAD DUP2 JUMP JUMPDEST PUSH1 0x2 PUSH1 0x40 MLOAD DUP1 PUSH1 0x40 ADD PUSH1 0x40 MSTORE DUP1 DUP5 DUP2 MSTORE PUSH1 0x20 ADD DUP4 DUP2 MSTORE POP SWAP1 DUP1 PUSH1 0x1 DUP2 SLOAD ADD DUP1 DUP3 SSTORE DUP1 SWAP2 POP POP PUSH1 0x1 SWAP1 SUB SWAP1 PUSH0 MSTORE PUSH1 0x20 PUSH0 KECCAK256 SWAP1 PUSH1 0x2 MUL ADD PUSH0 SWAP1 SWAP2 SWAP1 SWAP2 SWAP1 SWAP2 POP PUSH0 DUP3 ADD MLOAD DUP2 PUSH0 ADD SSTORE PUSH1 0x20 DUP3 ADD MLOAD DUP2 PUSH1 0x1 ADD SWAP1 DUP2 PUSH2 0x2AC SWAP2 SWAP1 PUSH2 0x8CE JUMP JUMPDEST POP POP POP POP POP JUMP JUMPDEST PUSH1 0x2 DUP2 DUP2 SLOAD DUP2 LT PUSH2 0x2C2 JUMPI PUSH0 DUP1 REVERT JUMPDEST SWAP1 PUSH0 MSTORE PUSH1 0x20 PUSH0 KECCAK256 SWAP1 PUSH1 0x2 MUL ADD PUSH0 SWAP2 POP SWAP1 POP DUP1 PUSH0 ADD SLOAD SWAP1 DUP1 PUSH1 0x1 ADD DUP1 SLOAD PUSH2 0x2E7 SWAP1 PUSH2 0x701 JUMP JUMPDEST DUP1 PUSH1 0x1F ADD PUSH1 0x20 DUP1 SWAP2 DIV MUL PUSH1 0x20 ADD PUSH1 0x40 MLOAD SWAP1 DUP2 ADD PUSH1 0x40 MSTORE DUP1 SWAP3 SWAP2 SWAP1 DUP2 DUP2 MSTORE PUSH1 0x20 ADD DUP3 DUP1 SLOAD PUSH2 0x313 SWAP1 PUSH2 0x701 JUMP JUMPDEST DUP1 ISZERO PUSH2 0x35E JUMPI DUP1 PUSH1 0x1F LT PUSH2 0x335 JUMPI PUSH2 0x100 DUP1 DUP4 SLOAD DIV MUL DUP4 MSTORE SWAP2 PUSH1 0x20 ADD SWAP2 PUSH2 0x35E JUMP JUMPDEST DUP3 ADD SWAP2 SWAP1 PUSH0 MSTORE PUSH1 0x20 PUSH0 KECCAK256 SWAP1 JUMPDEST DUP2 SLOAD DUP2 MSTORE SWAP1 PUSH1 0x1 ADD SWAP1 PUSH1 0x20 ADD DUP1 DUP4 GT PUSH2 0x341 JUMPI DUP3 SWAP1 SUB PUSH1 0x1F AND DUP3 ADD SWAP2 JUMPDEST POP POP POP POP POP SWAP1 POP DUP3 JUMP JUMPDEST DUP2 PUSH0 DUP2 SWAP1 SSTORE POP DUP1 PUSH1 0x1 SWAP1 DUP2 PUSH2 0x37D SWAP2 SWAP1 PUSH2 0x8CE JUMP JUMPDEST POP PUSH1 0x2 PUSH1 0x40 MLOAD DUP1 PUSH1 0x40 ADD PUSH1 0x40 MSTORE DUP1 DUP5 DUP2 MSTORE PUSH1 0x20 ADD DUP4 DUP2 MSTORE POP SWAP1 DUP1 PUSH1 0x1 DUP2 SLOAD ADD DUP1 DUP3 SSTORE DUP1 SWAP2 POP POP PUSH1 0x1 SWAP1 SUB SWAP1 PUSH0 MSTORE PUSH1 0x20 PUSH0 KECCAK256 SWAP1 PUSH1 0x2 MUL ADD PUSH0 SWAP1 SWAP2 SWAP1 SWAP2 SWAP1 SWAP2 POP PUSH0 DUP3 ADD MLOAD DUP2 PUSH0 ADD SSTORE PUSH1 0x20 DUP3 ADD MLOAD DUP2 PUSH1 0x1 ADD SWAP1 DUP2 PUSH2 0x3D8 SWAP2 SWAP1 PUSH2 0x8CE JUMP JUMPDEST POP POP POP POP POP JUMP JUMPDEST PUSH0 DUP2 MLOAD SWAP1 POP SWAP2 SWAP1 POP JUMP JUMPDEST PUSH0 DUP3 DUP3 MSTORE PUSH1 0x20 DUP3 ADD SWAP1 POP SWAP3 SWAP2 POP POP JUMP JUMPDEST PUSH0 JUMPDEST DUP4 DUP2 LT ISZERO PUSH2 0x416 JUMPI DUP1 DUP3 ADD MLOAD DUP2 DUP5 ADD MSTORE PUSH1 0x20 DUP2 ADD SWAP1 POP PUSH2 0x3FB JUMP JUMPDEST PUSH0 DUP5 DUP5 ADD MSTORE POP POP POP POP JUMP JUMPDEST PUSH0 PUSH1 0x1F NOT PUSH1 0x1F DUP4 ADD AND SWAP1 POP SWAP2 SWAP1 POP JUMP JUMPDEST PUSH0 PUSH2 0x43B DUP3 PUSH2 0x3DF JUMP JUMPDEST PUSH2 0x445 DUP2 DUP6 PUSH2 0x3E9 JUMP JUMPDEST SWAP4 POP PUSH2 0x455 DUP2 DUP6 PUSH1 0x20 DUP7 ADD PUSH2 0x3F9 JUMP JUMPDEST PUSH2 0x45E DUP2 PUSH2 0x421 JUMP JUMPDEST DUP5 ADD SWAP2 POP POP SWAP3 SWAP2 POP POP JUMP JUMPDEST PUSH0 PUSH1 0x20 DUP3 ADD SWAP1 POP DUP2 DUP2 SUB PUSH0 DUP4 ADD MSTORE PUSH2 0x481 DUP2 DUP5 PUSH2 0x431 JUMP JUMPDEST SWAP1 POP SWAP3 SWAP2 POP POP JUMP JUMPDEST PUSH0 DUP2 SWAP1 POP SWAP2 SWAP1 POP JUMP JUMPDEST PUSH2 0x49B DUP2 PUSH2 0x489 JUMP JUMPDEST DUP3 MSTORE POP POP JUMP JUMPDEST PUSH0 PUSH1 0x40 DUP3 ADD SWAP1 POP PUSH2 0x4B4 PUSH0 DUP4 ADD DUP6 PUSH2 0x492 JUMP JUMPDEST DUP2 DUP2 SUB PUSH1 0x20 DUP4 ADD MSTORE PUSH2 0x4C6 DUP2 DUP5 PUSH2 0x431 JUMP JUMPDEST SWAP1 POP SWAP4 SWAP3 POP POP POP JUMP JUMPDEST PUSH0 PUSH1 0x20 DUP3 ADD SWAP1 POP PUSH2 0x4E2 PUSH0 DUP4 ADD DUP5 PUSH2 0x492 JUMP JUMPDEST SWAP3 SWAP2 POP POP JUMP JUMPDEST PUSH0 PUSH1 0x40 MLOAD SWAP1 POP SWAP1 JUMP JUMPDEST PUSH0 DUP1 REVERT JUMPDEST PUSH0 DUP1 REVERT JUMPDEST PUSH2 0x502 DUP2 PUSH2 0x489 JUMP JUMPDEST DUP2 EQ PUSH2 0x50C JUMPI PUSH0 DUP1 REVERT JUMPDEST POP JUMP JUMPDEST PUSH0 DUP2 CALLDATALOAD SWAP1 POP PUSH2 0x51D DUP2 PUSH2 0x4F9 JUMP JUMPDEST SWAP3 SWAP2 POP POP JUMP JUMPDEST PUSH0 DUP1 REVERT JUMPDEST PUSH0 DUP1 REVERT JUMPDEST PUSH32 0x4E487B7100000000000000000000000000000000000000000000000000000000 PUSH0 MSTORE PUSH1 0x41 PUSH1 0x4 MSTORE PUSH1 0x24 PUSH0 REVERT JUMPDEST PUSH2 0x561 DUP3 PUSH2 0x421 JUMP JUMPDEST DUP2 ADD DUP2 DUP2 LT PUSH8 0xFFFFFFFFFFFFFFFF DUP3 GT OR ISZERO PUSH2 0x580 JUMPI PUSH2 0x57F PUSH2 0x52B JUMP JUMPDEST JUMPDEST DUP1 PUSH1 0x40 MSTORE POP POP POP JUMP JUMPDEST PUSH0 PUSH2 0x592 PUSH2 0x4E8 JUMP JUMPDEST SWAP1 POP PUSH2 0x59E DUP3 DUP3 PUSH2 0x558 JUMP JUMPDEST SWAP2 SWAP1 POP JUMP JUMPDEST PUSH0 PUSH8 0xFFFFFFFFFFFFFFFF DUP3 GT ISZERO PUSH2 0x5BD JUMPI PUSH2 0x5BC PUSH2 0x52B JUMP JUMPDEST JUMPDEST PUSH2 0x5C6 DUP3 PUSH2 0x421 JUMP JUMPDEST SWAP1 POP PUSH1 0x20 DUP2 ADD SWAP1 POP SWAP2 SWAP1 POP JUMP JUMPDEST DUP3 DUP2 DUP4 CALLDATACOPY PUSH0 DUP4 DUP4 ADD MSTORE POP POP POP JUMP JUMPDEST PUSH0 PUSH2 0x5F3 PUSH2 0x5EE DUP5 PUSH2 0x5A3 JUMP JUMPDEST PUSH2 0x589 JUMP JUMPDEST SWAP1 POP DUP3 DUP2 MSTORE PUSH1 0x20 DUP2 ADD DUP5 DUP5 DUP5 ADD GT ISZERO PUSH2 0x60F JUMPI PUSH2 0x60E PUSH2 0x527 JUMP JUMPDEST JUMPDEST PUSH2 0x61A DUP5 DUP3 DUP6 PUSH2 0x5D3 JUMP JUMPDEST POP SWAP4 SWAP3 POP POP POP JUMP JUMPDEST PUSH0 DUP3 PUSH1 0x1F DUP4 ADD SLT PUSH2 0x636 JUMPI PUSH2 0x635 PUSH2 0x523 JUMP JUMPDEST JUMPDEST DUP2 CALLDATALOAD PUSH2 0x646 DUP5 DUP3 PUSH1 0x20 DUP7 ADD PUSH2 0x5E1 JUMP JUMPDEST SWAP2 POP POP SWAP3 SWAP2 POP POP JUMP JUMPDEST PUSH0 DUP1 PUSH1 0x40 DUP4 DUP6 SUB SLT ISZERO PUSH2 0x665 JUMPI PUSH2 0x664 PUSH2 0x4F1 JUMP JUMPDEST JUMPDEST PUSH0 PUSH2 0x672 DUP6 DUP3 DUP7 ADD PUSH2 0x50F JUMP JUMPDEST SWAP3 POP POP PUSH1 0x20 DUP4 ADD CALLDATALOAD PUSH8 0xFFFFFFFFFFFFFFFF DUP2 GT ISZERO PUSH2 0x693 JUMPI PUSH2 0x692 PUSH2 0x4F5 JUMP JUMPDEST JUMPDEST PUSH2 0x69F DUP6 DUP3 DUP7 ADD PUSH2 0x622 JUMP JUMPDEST SWAP2 POP POP SWAP3 POP SWAP3 SWAP1 POP JUMP JUMPDEST PUSH0 PUSH1 0x20 DUP3 DUP5 SUB SLT ISZERO PUSH2 0x6BE JUMPI PUSH2 0x6BD PUSH2 0x4F1 JUMP JUMPDEST JUMPDEST PUSH0 PUSH2 0x6CB DUP5 DUP3 DUP6 ADD PUSH2 0x50F JUMP JUMPDEST SWAP2 POP POP SWAP3 SWAP2 POP POP JUMP JUMPDEST PUSH32 0x4E487B7100000000000000000000000000000000000000000000000000000000 PUSH0 MSTORE PUSH1 0x22 PUSH1 0x4 MSTORE PUSH1 0x24 PUSH0 REVERT JUMPDEST PUSH0 PUSH1 0x2 DUP3 DIV SWAP1 POP PUSH1 0x1 DUP3 AND DUP1 PUSH2 0x718 JUMPI PUSH1 0x7F DUP3 AND SWAP2 POP JUMPDEST PUSH1 0x20 DUP3 LT DUP2 SUB PUSH2 0x72B JUMPI PUSH2 0x72A PUSH2 0x6D4 JUMP JUMPDEST JUMPDEST POP SWAP2 SWAP1 POP JUMP JUMPDEST PUSH0 DUP2 SWAP1 POP DUP2 PUSH0 MSTORE PUSH1 0x20 PUSH0 KECCAK256 SWAP1 POP SWAP2 SWAP1 POP JUMP JUMPDEST PUSH0 PUSH1 0x20 PUSH1 0x1F DUP4 ADD DIV SWAP1 POP SWAP2 SWAP1 POP JUMP JUMPDEST PUSH0 DUP3 DUP3 SHL SWAP1 POP SWAP3 SWAP2 POP POP JUMP JUMPDEST PUSH0 PUSH1 0x8 DUP4 MUL PUSH2 0x78D PUSH32 0xFFFFFFFFFFFFFFFFFFFFFFFFFFFFFFFFFFFFFFFFFFFFFFFFFFFFFFFFFFFFFFFF DUP3 PUSH2 0x752 JUMP JUMPDEST PUSH2 0x797 DUP7 DUP4 PUSH2 0x752 JUMP JUMPDEST SWAP6 POP DUP1 NOT DUP5 AND SWAP4 POP DUP1 DUP7 AND DUP5 OR SWAP3 POP POP POP SWAP4 SWAP3 POP POP POP JUMP JUMPDEST PUSH0 DUP2 SWAP1 POP SWAP2 SWAP1 POP JUMP JUMPDEST PUSH0 PUSH2 0x7D2 PUSH2 0x7CD PUSH2 0x7C8 DUP5 PUSH2 0x489 JUMP JUMPDEST PUSH2 0x7AF JUMP JUMPDEST PUSH2 0x489 JUMP JUMPDEST SWAP1 POP SWAP2 SWAP1 POP JUMP JUMPDEST PUSH0 DUP2 SWAP1 POP SWAP2 SWAP1 POP JUMP JUMPDEST PUSH2 0x7EB DUP4 PUSH2 0x7B8 JUMP JUMPDEST PUSH2 0x7FF PUSH2 0x7F7 DUP3 PUSH2 0x7D9 JUMP JUMPDEST DUP5 DUP5 SLOAD PUSH2 0x75E JUMP JUMPDEST DUP3 SSTORE POP POP POP POP JUMP JUMPDEST PUSH0 SWAP1 JUMP JUMPDEST PUSH2 0x813 PUSH2 0x807 JUMP JUMPDEST PUSH2 0x81E DUP2 DUP5 DUP5 PUSH2 0x7E2 JUMP JUMPDEST POP POP POP JUMP JUMPDEST JUMPDEST DUP2 DUP2 LT ISZERO PUSH2 0x841 JUMPI PUSH2 0x836 PUSH0 DUP3 PUSH2 0x80B JUMP JUMPDEST PUSH1 0x1 DUP2 ADD SWAP1 POP PUSH2 0x824 JUMP JUMPDEST POP POP JUMP JUMPDEST PUSH1 0x1F DUP3 GT ISZERO PUSH2 0x886 JUMPI PUSH2 0x857 DUP2 PUSH2 0x731 JUMP JUMPDEST PUSH2 0x860 DUP5 PUSH2 0x743 JUMP JUMPDEST DUP2 ADD PUSH1 0x20 DUP6 LT ISZERO PUSH2 0x86F JUMPI DUP2 SWAP1 POP JUMPDEST PUSH2 0x883 PUSH2 0x87B DUP6 PUSH2 0x743 JUMP JUMPDEST DUP4 ADD DUP3 PUSH2 0x823 JUMP JUMPDEST POP POP JUMPDEST POP POP POP JUMP JUMPDEST PUSH0 DUP3 DUP3 SHR SWAP1 POP SWAP3 SWAP2 POP POP JUMP JUMPDEST PUSH0 PUSH2 0x8A6 PUSH0 NOT DUP5 PUSH1 0x8 MUL PUSH2 0x88B JUMP JUMPDEST NOT DUP1 DUP4 AND SWAP2 POP POP SWAP3 SWAP2 POP POP JUMP JUMPDEST PUSH0 PUSH2 0x8BE DUP4 DUP4 PUSH2 0x897 JUMP JUMPDEST SWAP2 POP DUP3 PUSH1 0x2 MUL DUP3 OR SWAP1 POP SWAP3 SWAP2 POP POP JUMP JUMPDEST PUSH2 0x8D7 DUP3 PUSH2 0x3DF JUMP JUMPDEST PUSH8 0xFFFFFFFFFFFFFFFF DUP2 GT ISZERO PUSH2 0x8F0 JUMPI PUSH2 0x8EF PUSH2 0x52B JUMP JUMPDEST JUMPDEST PUSH2 0x8FA DUP3 SLOAD PUSH2 0x701 JUMP JUMPDEST PUSH2 0x905 DUP3 DUP3 DUP6 PUSH2 0x845 JUMP JUMPDEST PUSH0 PUSH1 0x20 SWAP1 POP PUSH1 0x1F DUP4 GT PUSH1 0x1 DUP2 EQ PUSH2 0x936 JUMPI PUSH0 DUP5 ISZERO PUSH2 0x924 JUMPI DUP3 DUP8 ADD MLOAD SWAP1 POP JUMPDEST PUSH2 0x92E DUP6 DUP3 PUSH2 0x8B3 JUMP JUMPDEST DUP7 SSTORE POP PUSH2 0x995 JUMP JUMPDEST PUSH1 0x1F NOT DUP5 AND PUSH2 0x944 DUP7 PUSH2 0x731 JUMP JUMPDEST PUSH0 JUMPDEST DUP3 DUP2 LT ISZERO PUSH2 0x96B JUMPI DUP5 DUP10 ADD MLOAD DUP3 SSTORE PUSH1 0x1 DUP3 ADD SWAP2 POP PUSH1 0x20 DUP6 ADD SWAP5 POP PUSH1 0x20 DUP2 ADD SWAP1 POP PUSH2 0x946 JUMP JUMPDEST DUP7 DUP4 LT ISZERO PUSH2 0x988 JUMPI DUP5 DUP10 ADD MLOAD PUSH2 0x984 PUSH1 0x1F DUP10 AND DUP3 PUSH2 0x897 JUMP JUMPDEST DUP4 SSTORE POP JUMPDEST PUSH1 0x1 PUSH1 0x2 DUP9 MUL ADD DUP9 SSTORE POP POP POP JUMPDEST POP POP POP POP POP POP JUMP INVALID LOG2 PUSH5 0x6970667358 0x22 SLT KECCAK256 0xC9 LOG2 0x28 SWAP3 MUL COINBASE DUP13 0xFB TSTORE NUMBER PUSH26 0x3D0BBAA53B88BD883D2FE68EEAD41FDC20E165EF864736F6C63 NUMBER STOP ADDMOD XOR STOP CALLER "
				},
				"gasEstimates": {
					"creation": {
						"codeDepositCost": "503000",
						"executionCost": "535",
						"totalCost": "503535"
					},
					"external": {
						"ListofPerson(uint256)": "infinite",
						"Myname()": "infinite",
						"Mynumber()": "2446",
						"addPerson(uint256,string)": "infinite",
						"retrieve()": "infinite",
						"store(uint256,string)": "infinite"
					}
				},
				"methodIdentifiers": {
					"ListofPerson(uint256)": "ce895030",
					"Myname()": "225bc193",
					"Mynumber()": "93dd0f24",
					"addPerson(uint256,string)": "bc832d4e",
					"retrieve()": "2e64cec1",
					"store(uint256,string)": "e1ff178a"
				}
			},
			"storageLayout": {
				"storage": [
					{
						"astId": 3,
						"contract": "contracts/third.sol:ArrayofNumAndText",
						"label": "Mynumber",
						"offset": 0,
						"slot": "0",
						"type": "t_uint256"
					},
					{
						"astId": 5,
						"contract": "contracts/third.sol:ArrayofNumAndText",
						"label": "Myname",
						"offset": 0,
						"slot": "1",
						"type": "t_string_storage"
					},
					{
						"astId": 14,
						"contract": "contracts/third.sol:ArrayofNumAndText",
						"label": "ListofPerson",
						"offset": 0,
						"slot": "2",
						"type": "t_array(t_struct(Person)10_storage)dyn_storage"
					}
				],
				"types": {
					"t_array(t_struct(Person)10_storage)dyn_storage": {
						"base": "t_struct(Person)10_storage",
						"encoding": "dynamic_array",
						"label": "struct ArrayofNumAndText.Person[]",
						"numberOfBytes": "32"
					},
					"t_string_storage": {
						"encoding": "bytes",
						"label": "string",
						"numberOfBytes": "32"
					},
					"t_struct(Person)10_storage": {
						"encoding": "inplace",
						"label": "struct ArrayofNumAndText.Person",
						"members": [
							{
								"astId": 7,
								"contract": "contracts/third.sol:ArrayofNumAndText",
								"label": "Number",
								"offset": 0,
								"slot": "0",
								"type": "t_uint256"
							},
							{
								"astId": 9,
								"contract": "contracts/third.sol:ArrayofNumAndText",
								"label": "Name",
								"offset": 0,
								"slot": "1",
								"type": "t_string_storage"
							}
						],
						"numberOfBytes": "64"
					},
					"t_uint256": {
						"encoding": "inplace",
						"label": "uint256",
						"numberOfBytes": "32"
					}
				}
			},
			"userdoc": {
				"kind": "user",
				"methods": {},
				"version": 1
			}
		}
	}
}